:020000040800F2
:10000000005C0020C56B0008090300080B03000812
:100010000F03000813030008170300080000000086
:100020000000000000000000000000001B030008AA
:100030001D030008000000001F0300082103000842
:100040007D3E0008DF6B0008DF6B0008DF6B0008F7
:10005000DF6B0008DF6B0008DF6B0008DF6B000858
:10006000DF6B0008DF6B0008DF6B0008DF6B000848
:10007000DF6B0008DF6B0008DF6B0008DF6B000838
:10008000DF6B0008DF6B0008DF6B0008DF6B000828
:10009000DF6B0008DF6B0008DF6B0008CD3C000859
:1000A000DF6B0008DF6B0008DF6B0008DF6B000808
:1000B000890700080F09000883090008DF6B0008A2
:1000C000DF6B0008DF6B0008DF6B0008DF6B0008E8
:1000D000DF6B0008EB5A0008375C0008DF6B000894
:1000E000DF6B0008DF6B0008DF6B0008DF6B0008C8
:1000F000DF6B0008DF6B0008DF6B0008DF6B0008B8
:10010000DF6B0008DF6B0008DF6B0008DF6B0008A7
:10011000DF6B0008DF6B0008DF6B0008DF6B000897
:10012000DF6B0008DF6B0008DF6B0008DF6B000887
:1001300000F002F800F073F80AA090E8000C824486
:100140008344AAF10107DA4501D100F068F8AFF263
:10015000090EBAE80F0013F0010F18BFFB1A43F0A5
:100160000103184748A5000068A500000A444FF0A5
:10017000000C10F8013B13F0070408BF10F8014B06
:100180001D1108BF10F8015B641E05D010F8016B4B
:10019000641E01F8016BF9D113F0080F1EBF10F8AF
:1001A000014BAD1C0C1B09D16D1E58BF01F801CBD2
:1001B000FAD505E014F8016B01F8016B6D1EF9D555
:1001C0009142D6D37047000000230024002500266A
:1001D000103A28BF78C1FBD8520728BF30C148BFAA
:1001E0000B60704766290AF00082642908F0A48435
:1001F000782908F0DD84002070471FB509F042FA25
:100200000400002000210AF063F9401C6060002017
:1002100000210AF047F9E0601FBD10B510BD09F0DC
:10022000F3FC1146FFF7E9FF00F008F809F01AFDAA
:1002300003B4FFF7F2FF03BC05F0C2FB00BF00F000
:10024000E0F806F055FC4FF4C06006F0DBFC4FF41C
:10025000E13005F0C4FB00F055F900F0C5F900F0FD
:1002600063FA002140F2833000F007FB00F05AFBF4
:1002700000F086F901F048FE03F008FE4FF47A70B2
:1002800006F073FC40F25371042003F0B5FD02F058
:10029000EFFD06F019FB1548007808B903F036FCAD
:1002A00000201349086000F02AFD00F04AFD00F02C
:1002B000B4FC1AE00F48007801280ED100200D4947
:1002C00008700D4908700D4908700D4908604FF419
:1002D00096610B48001D08F09EFE0A480178012037
:1002E00001F0DAF80A2006F040FCE3E7F002002013
:1002F000400000201C000020540000205500002079
:10030000B81A002009030020704700BFFEE700BFB5
:10031000FEE700BFFEE700BFFEE77047704770478B
:10032000704700000CB50020019000906C480068F8
:1003300040F480306A49086000BF6948006800F4F2
:10034000003000900198401C0190009818B9019865
:10035000B0F5A06FF1D16248006800F4003010B130
:100360000120009001E0002000900098012843D176
:100370005C48006840F010005A4908600846006870
:1003800020F0030008600846006840F002000860A2
:1003900053484068524948600846406848600846EB
:1003A000406840F4806048600846406820F47C1053
:1003B00048600846406840F4E81048600846006815
:1003C00040F08070086000BF4548006800F0007091
:1003D0000028F9D04248406820F0030040494860B6
:1003E0000846406840F00200486000BF3C48406852
:1003F00000F00C000828F9D10CBD10B5FFF792FFF2
:1004000010BD10B53648006840F00100344908605E
:100410000846406834490840314948600846006849
:10042000324908402E4908600846006820F48020C0
:1004300008600846406820F4FE0048604FF41F0042
:100440008860FFF7DAFF4FF000602949086010BDAF
:1004500010B5002100200022214B5B6803F00C0145
:1004600021B1042906D0082928D107E0214B224CCC
:10047000236027E01F4B204C236023E0184B5B6870
:1004800003F47010164B5B6803F48032022303EB15
:10049000904022B9194B4343174C23600DE0104B99
:1004A0005B6803F4003323B1144B4343124C2360C5
:1004B00003E0104B4343104C236003E00D4B0E4C04
:1004C000236000BF00BF064B5B68C3F303130C4CF3
:1004D000E15C094B1B68CB40074C236010BD00005A
:1004E00000100240002002400000FFF8FFFFF6FE6F
:1004F00008ED00E000127A000400002000093D0031
:100500000800002008B50121102006F005FF40205A
:10051000ADF8000010208DF8030003208DF80200D4
:100520006946144806F03CFC4021124806F0E7FCFE
:1005300008BD10B5044610480188104808F0A2F91B
:100540002CB940F283310D4808F09CF910E07CB1E1
:1005500004EBC400C0F561700749088008460188B3
:10056000064808F08FF940F28331044808F08AF910
:1005700010BD0000001001401800002000040040E1
:1005800008B50121102006F0C7FE0121082006F061
:10059000C3FE0720ADF8000010208DF803000320F3
:1005A0008DF8020069460E4806F0FAFB0320ADF80C
:1005B00000008DF8020048208DF8030069460948C4
:1005C00006F0EEFB0121064806F097FC02210448E4
:1005D00006F093FC0421024806F08FFC08BD0000E1
:1005E00000100140000C014008B50121042006F074
:1005F00093FE4FF48050ADF8000010208DF80300FA
:1006000003208DF802006946044806F0C9FB4FF448
:100610008051024806F071FC08BD0000000801404E
:1006200070B50546002405E0601CC4B2C82C01DD8D
:10063000002070BD02213A4807F025FA0028F3D0C7
:100640002946374807F0CCF9002405E0601CC4B205
:10065000C82C01DD0020ECE70121314807F013FA36
:100660000028F3D02E4807F0BDF9C0B2E1E700B58D
:1006700087B00121082006F04FFE0121880306F013
:1006800058FE4FF46040ADF8180018208DF81B009C
:1006900003208DF81A0006A9224806F081FB4FF4CA
:1006A0006041204806F029FC0020ADF804004FF41A
:1006B0008270ADF806000020ADF808000220ADF809
:1006C0000A000120ADF80C004002ADF80E00382001
:1006D000ADF810000020ADF812000720ADF81400AE
:1006E00001A90F4807F0A6F801210D4807F047F9C6
:1006F000FF20FFF795FF07B000BD10B5044608487E
:1007000000884FF6C77108400549088008460088F0
:10071000204308800121024807F031F910BD000094
:1007200000380040000C01401FB50121084606F0CA
:1007300000FE41F28830ADF8080041F61F40ADF8E8
:1007400004000020ADF80A00ADF8060001A94FF042
:10075000804007F0A3FA01224121880707F015FE27
:100760001C208DF8000000208DF8010002208DF87B
:10077000020001208DF80300684606F048FA0121C6
:10078000880707F0E7FD1FBD08B500200090012194
:10079000880708F0A8F800286ED00121880708F023
:1007A000B3F803F03BFBAD48006808B9012000E056
:1007B0000020AA490860AA480068401CA8490860AF
:1007C000A8480068401CA7490860A7480068401C6A
:1007D000A5490860A5480068401CA4490860A448D1
:1007E0000068401CA2490860A2480068401CA1495A
:1007F0000860A1480068401C9F4908609F48007835
:10080000012810D19E480068401C9D490860084698
:100810000068082807DD01209A49087000209849DF
:100820000860964908709848007801280ED18C48D5
:100830000068142801D103F0BAFA894800681E281C
:1008400004D900209149087005F030FA90480078EA
:10085000012811D18F480068401C8E490860084665
:1008600000680A2808DB002008606A46042104F0BA
:1008700084FB00208649087008BD30B589B0054664
:100880000C460121022006F054FD0121112006F042
:1008900043FD0121804806F054FB4020ADF82000C4
:1008A00018208DF8230003208DF8220008A97B482A
:1008B00006F076FA4021794806F021FBADF8185091
:1008C000ADF814400020ADF81A00ADF8160005A9E7
:1008D000734807F0E3F97020ADF804000120ADF88B
:1008E00006000020ADF80C0001A96D4807F013FACE
:1008F00008216B4807F05EFE0121694807F02AFDD8
:1009000040F28331664807F0BDFF09B030BD10B535
:100910000121634807F0E7FF18B10121604807F0A3
:10092000F3FF10BD1FB50121042006F002FD4FF4B6
:100930007A70ADF8080041F61F40ADF804000020C1
:10094000ADF80A00ADF8060001A9564807F0A6F96F
:1009500001224121534807F018FD1E208DF80000A8
:1009600000208DF8010002208DF8020001208DF892
:100970000300684606F04BF901214A4807F0EAFCFB
:100980001FBD10B50121474807F0ADFF002864D016
:100990000121444807F0B8FF43480078012815D1E9
:1009A00004213E4806F0ABFA40480068401C3F492D
:1009B000086008460068502808DB0421374806F024
:1009C0009CFA002039490860374908703848007897
:1009D000012842D137480068401C36490860084663
:1009E00000681E2816DB01212C4806F086FA022139
:1009F0002A4806F082FA40F28331294807F042FF84
:100A000001202D4908701F490870002029490860FD
:100A10002749087027480068062190FBF1F201FB86
:100A2000120068B901211D4806F067FA02211B482F
:100A300006F063FA40F28331194807F023FF0CE017
:100A40000121164806F05BFA0221144806F057FA15
:100A50001A480188124807F015FF10BDB001214265
:100A6000A4020020300000200000002034000020FC
:100A7000380000203C00002044000020240000201A
:100A8000200000201C000020F0020020A80200200E
:100A9000B0020020AC020020000C1A00001001403F
:100AA0000004004000080040900000208C0000205E
:100AB00087000020880000204C0000201800002043
:100AC00070B50446002676E06421FE4808F0A3FADB
:100AD000FD49FE480068801C095CFB4AFB48006831
:100AE000C01C105C01EB0020001DF9490860104695
:100AF000F64A12688118F6480268F64808F024FAA7
:100B0000F4488078132820D1F248C078E8B9F14839
:100B100000790D2819D1EF484079182815D1ED48F2
:100B2000807990B9EB490C72200A48720020087550
:100B3000002508E0E748007DE649495D0844E549AD
:100B40000875681CC5B2142DF4DBE1480178E14852
:100B500005F05BF8DF484079022803D1DD48807951
:100B600050281CD013E0DC48006802280FD3D84876
:100B70000178D84805F049F80020D7490860761C6C
:100B8000032E04DB6421CF4808F045FA03E0D34884
:100B900000780028E7D000BF0020D0490870CB487B
:100BA0000068CB4909680844C8490860C648096814
:100BB000405C00B900E087E700BF70BD10B50024BD
:100BC0006421C04808F027FA0A21C5A005F01DF8E5
:100BD0000020C149086017E0BF480068042813D30B
:100BE0000A21BFA005F011F80020BB490860641C71
:100BF000032C09DB6421B34808F00DFABB4A042139
:100C0000002004F0BAF903E0B94800780028E3D0E6
:100C100000BF0020B149087010BD10B50024642148
:100C2000A84808F0F8F90C21B2A004F0EEFF00206B
:100C3000A9490860A9480078012803D10020A749E4
:100C4000087022E019E0A4480068022815D30C219E
:100C5000A8A004F0DAFF00209F490860641C032C60
:100C60000BDB6421974808F0D6F9FFF7A7FF9F4AEE
:100C70000421002004F081F903E09848007800285E
:100C8000E1D000BF00209549087010BD10B50024C8
:100C900064218C4808F0BFF915219AA004F0B5FF33
:100CA00000208D4908608D480078012803D100207C
:100CB0008A49087022E019E087480068022815D3A5
:100CC000152190A004F0A1FF002083490860641C56
:100CD000032C0BDB64217B4808F09DF9FFF76EFFC6
:100CE000824A0421002004F048F903E07B480078A0
:100CF0000028E1D000BF00207849087010BD10B571
:100D0000102186A004F081FF4FF4FA7005F02DFF4A
:100D1000102187A004F079FF4FF4FA7005F025FF49
:100D2000102188A004F071FF4FF4FA7005F01DFF48
:100D3000102189A004F069FF4FF4FA7005F015FF47
:100D400010BD10B50C2189A004F05FFF4FF4FA60CC
:100D500005F00BFF0C2189A004F057FF4FF4FA6057
:100D600005F003FF0C2189A004F04FFF4FF4FA6057
:100D700005F0FBFE0C2189A004F047FF4FF4FA6058
:100D800005F0F3FE172189A004F03FFF4FF4FA604D
:100D900005F0EBFE17218BA004F037FF4FF4FA604B
:100DA00005F0E3FE17218DA004F02FFF4FF4FA6049
:100DB00005F0DBFE17218FA004F027FF4FF4FA6047
:100DC00005F0D3FE10BD9148007801280DD1002018
:100DD0008E49087001208E49087000208D490860F6
:100DE0008D49086001208D490870704738B5044668
:100DF0000020009001218A4806F065F8A04205D045
:100E00000221874806F05FF8A04222D10A2005F0AF
:100E1000ACFE0121824806F056F8A04208D100201D
:100E2000804908608049086001208049087038BD09
:100E300002217B4806F047F8A04208D100207C49F7
:100E400008607949086001207A490870EFE70020BE
:100E5000EDE70020EBE770B58EB077480078FFF73C
:100E6000C5FF064674480078022827DA6E480068F5
:100E7000042804DB00206F4908706C4908706F4833
:100E8000007801281BD169480078002818D06948EB
:100E90000078002814D06348006865490968401A42
:100EA00001280DDB00206349087060490870604923
:100EB00008605C49086062480068C3E058E271E17C
:100EC0000BE100006C1F0020910000206C0200204C
:100ED00070020020D01F0020300000206802002097
:100EE0005A5506000D0300C56A690000590000202C
:100EF000CC0200205A5508000D11000001D66A6985
:100F0000000000005A5511000D12000200000600FA
:100F1000000000000101E96A690000005A550C0058
:100F20000D0250000701000000226A690000000065
:100F30005A550C000D0250000500050000246A6996
:100F4000000000005A550C000D02500105C80000B9
:100F500000E86A69000000005A550C000D025000BC
:100F6000F0020000000C6A69000000005A550800F9
:100F70000D1A000001DF6A69000000005A550800E0
:100F80000D1A000101E06A69000000005A550800CE
:100F90000D1A000201E16A69000000005A550800BC
:100FA0000D1A000301E26A69000000005A5513009F
:100FB0000D180000A000000096000000C80000000E
:100FC000E56A69005A5513000D180001A0000000E1
:100FD00096000000C8000000E66A69005A55130038
:100FE0000D180002A000000096000000C8000000DC
:100FF000E76A69005A5513000D180003A0000000AD
:1010000096000000C8000000E86A69004C0000205B
:1010100087000020880000208C0000209000002025
:10102000000C0140340000203C000020560000204D
:1010300038000020570000208100002058000020C8
:10104000E4020020401CF9490860084603210268B8
:10105000002004F03EFEF54803210268022004F05F
:1010600038FEF348F3A10268F34807F051FDEF485A
:10107000F0A10268F14807F04BFD0025002408E0CC
:101080002846691CCDB2EC49085C01A90855601CD2
:10109000C4B20A2CF4DB2C208DF80E0000250024AD
:1010A0000AE02846691CCDB2E449095C04F10B0052
:1010B00001AA1154601CC4B20A2CF2DBE04800788B
:1010C000012804D101AAFE211B2002F01FFA0A22E6
:1010D0001E21DA4801F013F831E1DA4800780028DF
:1010E000FAD0D94800780028F6D0D8480068D84906
:1010F0000968401A0128EFDB0020D2490870D24964
:101100000870D2490860D2490860C9480068401C8C
:10111000C7490860084602210268002004F0D9FD92
:10112000C34802210268084604F0D3FDC048C1A1AB
:101130000268C14807F0ECFCBC48BEA10268BF4889
:1011400007F0E6FC0025002408E02846691CCDB223
:10115000B949085C01A90855601CC4B20A2CF4DB2B
:101160002C208DF80E00002500240AE02846691C7A
:10117000CDB2B249095C04F10B0001AA1154601C04
:10118000C4B20A2CF2DBAE480078012804D101AACF
:10119000FE211B2002F0BAF90A221421A64800F011
:1011A000AEFFCCE0AB480078022895D1A648007885
:1011B000002860D0A348007800285CD0A4480068CC
:1011C000A2490968401A012855DB00209D49087092
:1011D0009D4908709D4908609D49086094480068D1
:1011E000401C93490860084602210268002004F070
:1011F00070FD8F4802210268084604F06AFD8C48A1
:101200008CA102688C4807F083FC884889A1026899
:101210008A4807F07DFC0025002408E02846691C68
:10122000CDB28549085C01A90855601CC4B20A2CDE
:10123000F4DB2C208DF80E00002500240AE028465F
:10124000691CCDB27D49095C04F10B0001AA11545F
:10125000601CC4B20A2CF2DB79480078012804D162
:1012600001AAFE211B2002F051F90A221421724822
:1012700000F045FF63E07348007800285FD07248B3
:10128000007800285BD07148006871490968401AED
:10129000012854DB00206B4908706B4908706B49CA
:1012A00008606B49086061480068401C5F4908603D
:1012B000084603210268002004F00BFD5B4803216F
:1012C0000268022004F005FD59485AA102685A48F4
:1012D00007F01EFC554857A10268584807F018FC53
:1012E0000025002408E02846691CCDB25249085C5C
:1012F00001A90855601CC4B20A2CF4DB2C208DF81F
:101300000E00002500240AE02846691CCDB24B4996
:10131000095C04F10B0001AA1154601CC4B20A2C30
:10132000F2DB47480078012804D101AAFE211B20E6
:1013300002F0ECF80A221E21404800F0E0FE012EE7
:101340001DD10120444908700020444908604448E8
:10135000007848B9012042490870FFF75EFC01207F
:101360003F4908703F49087000203F49087006E077
:101370003E480078022802D101203A4908700EB098
:1013800070BDFEB50446002600250EE005EB4502C3
:10139000374800EB82010C22204607F0A9FD10B966
:1013A0000126FF20FEBD681CC5B23148001F006841
:1013B000A842EBDCFEB92E48001F01680068401C03
:1013C0002B4A121F01EB41011060101D00EB810040
:1013D0002168016061684160A168816020680090B7
:1013E00060680190A06802906A46F121122002F024
:1013F0008DF80120D6E700BFD4E7F0B502460024FF
:1014000000200023CDB200BF43E074B1165C86F02B
:10141000FF06165412F800C01E465B1C154F07F855
:1014200006C06E1EF5B2002432E025E0E402002082
:10143000E0020020256C6400285500203255002071
:10144000F002002057000020560000203800002045
:10145000340000205800002024000020200000203C
:1014600055000020540000204B0000208100002087
:10147000BC1A002034200020165C992E01D10124D2
:1014800006E012F800C01E465B1CFE4F07F806C0BF
:10149000401C8842B9D3F0BD2DE9F04180460F468B
:1014A00000240020F8490870B8F1010F78D1F748FE
:1014B00000780128FAD1F649F6480068801C085CDB
:1014C0006A286ED1F3480068C01C085C6928F8D10E
:1014D000F0480168EE48FFF790FFEA4800790D28D0
:1014E0007ED1E84840790528FAD1E648807900287D
:1014F000F6D1E448C07BE349097C00EB0120E649D2
:101500000860002506E005F11100DE49085CE349AA
:1015100048556D1C0C2DF6DBE048007800F080008B
:10152000DF490870DD484078DE490870072F7DD21A
:10153000DFE807F0040E1D28388FDC00D84800785B
:1015400028B9D8480078042801DAFFF73CFCDBE032
:10155000D2480078C22809D1D048C07A052803D0E3
:10156000CE48C07A092801D1FFF72DFCCCE0CB484A
:101570000078C22805D1C948C07A042801D1FFF7F4
:1015800022FCC1E0C648007848B9C6480078042863
:1015900005DA0120C4490870C048FFF7F2FEB3E045
:1015A0000DE1FFE0BD480078C22851D1BB48C07AA8
:1015B000052803D0B948C07A092849D10120BA4981
:1015C000087005222046611CCCB2B8490A54B248C2
:1015D0000078401DC2B22046611CCCB2B34900E085
:1015E00093E00A54F1222046611CCCB2AF490A5460
:1015F000002507E0A948425D2046611CCCB2AB49FA
:101600000A546D1CA44800688542F3D3A2480088A0
:10161000C01C81B2A54801F06BFC06463212204680
:10162000611CCCB2A1490A54204600E06BE0611C69
:10163000CCB29E490E5406222046611CCCB29B4976
:101640000A5495480078801DC1B2984801F066F8A8
:101650005AE08C48007E00F00400042845D10120A7
:101660009149087005222046611CCCB28F490A546A
:1016700089480078401DC2B22046611CCCB28B491B
:101680000A54F1222046611CCCB288490A54002534
:1016900007E08248425D2046611CCCB283490A546F
:1016A0006D1C7D4800688542F3D37B480088C01CD0
:1016B00081B27E4801F01CFC064632122146601CB5
:1016C000C4B27A4842542046611CCCB277490E54C9
:1016D00006222046611CCCB274490A546E48007838
:1016E000801DC1B2714801F019F80DE06B48007817
:1016F000012807D16E490870FFF765FB4FF4FA60C7
:1017000005F033FA00E000BF00BF5E4800780D2806
:1017100048D15C484078062844D1634800780128C5
:1017200040D100206049087005222046611CCCB2DF
:101730005E490A5411222146601CC4B25B484254DF
:10174000F2222046611CCCB258490A54002509E017
:101750004C4905F10E000A5C2046611CCCB253498D
:101760000A546D1C0C2DF3DB0F21504801F0C0FB17
:10177000064632122046611CCCB24C490A5420461F
:10178000611CCCB249490E5406222046611CCCB2E1
:1017900046490A541221454800F0E0FF4FF4FA7020
:1017A00005F0E3F9002043490870384908706421C6
:1017B000374807F030FC6421324807F02CFCBDE8C4
:1017C000F08110B500246421314807F024FC0C217D
:1017D00039A004F01AFA00203B4908602B48007831
:1017E000012803D100202949087020E017E036487D
:1017F0000068022813D30C2134A004F006FA00205C
:1018000031490860641C032C09DB6421204807F07F
:1018100002FC324A0B21072003F0AFFB03E01B4818
:1018200000780028E3D000BF00201849087010BDE0
:1018300010B500246421164807F0EDFB0C2128A008
:1018400004F0E3F9002020490860104800780128DE
:1018500003D100200D4908705FE056E01A48006887
:10186000022852D30C2122A004F0CFF900201649FF
:101870000860641C032C48DB6421054807F0CBFB9F
:10188000164A3DE034200020860000206802002037
:101890006C1F0020C4020020500000202403002000
:1018A0004800002049000020830000203003002071
:1018B0004C000020BC0200205A5508000D1A0002FE
:1018C00000E06A6900000000300000205C783541CB
:1018D0005508000D1A000200E06A69005900002056
:1018E0005A5508000D1A000100DF6A690000000067
:1018F0005C7835415508000D1A000100DF6A690067
:101900000B21072003F039FB03E0F748007800289B
:10191000A4D000BF0020F449087010BD10B5002409
:101920006421F24807F077FB0C21F1A004F06DF977
:101930000020F3490860EC480078012803D100201A
:10194000E949087020E017E0ED480068022813D349
:101950000C21ECA004F059F90020E9490860641C4E
:10196000032C09DB6421E14807F055FBE94A0B2110
:10197000072003F002FB03E0DB4800780028E3D0F7
:1019800000BF0020D849087010BD10B500246421A4
:10199000D64807F040FB0C21AFF6002004F035F9E3
:1019A0000020D7490860D0480078012803D10020E2
:1019B000CD49087020E017E0D1480068022813D311
:1019C0000C21D5A004F021F90020CD490860641C49
:1019D000032C09DB6421C54807F01DFBCD4A0B2110
:1019E000072003F0CAFA03E0BF4800780028E3D0DC
:1019F00000BF0020BC49087010BD10B50024642150
:101A0000BA4807F008FB0C21C7A004F0FEF800203C
:101A1000BB490860B4480078012803D10020B249CE
:101A2000087020E017E0B6480068022813D30C21A4
:101A3000C1A004F0EAF80020B1490860641C032C3E
:101A400009DB6421A94807F0E6FAB24A0B21072016
:101A500003F093FA03E0A44800780028E3D000BF25
:101A60000020A149087010BD10B5002464219F48D2
:101A700007F0D1FA0C21AFF6EC2004F0C6F80020F4
:101A80009F49086098480078012803D100209649B2
:101A9000087020E017E09A480068022813D30C2150
:101AA000A9A004F0B2F8002095490860641C032C3A
:101AB00009DB64218D4807F0AEFA964A0B21072016
:101AC00003F05BFA03E0884800780028E3D000BF09
:101AD00000208549087010BD10B50024642183489A
:101AE00007F099FA0C21AFF66C3004F08EF8002064
:101AF000834908607C480078012803D100207A4996
:101B0000087020E017E07E480068022813D30C21FB
:101B100091A004F07AF8002079490860641C032C35
:101B200009DB6421714807F076FA7A4A0B21072015
:101B300003F023FA03E06C4800780028E3D000BFEC
:101B400000206949087010BD10B500246421674861
:101B500007F061FA0C21AFF6EC3004F056F80020E3
:101B60006749086060480078012803D100205E4979
:101B7000087021E018E062480068022814D30C21A4
:101B8000AFF6184004F041F800205D490860641C7D
:101B9000032C09DB6421554807F03DFA5D4A0B210F
:101BA000072003F0EAF903E04F4800780028E2D06C
:101BB00000BF00204C49087010BD10B50446012C30
:101BC00006D0022C4BD0032C7ED0042C7DD117E103
:101BD000FFF7BAFFFFF72CFEFFF7F3FDFFF70DFF4E
:101BE000FFF71BF8642004F0C0FF00205E49086086
:101BF00032E03D480078012823D13C4800780D2888
:101C00001CD13A4840780E280AD100203649087085
:101C1000564A0221072003F0B0F904F047F81CE00F
:101C200032484078012809D100202F490870504AD5
:101C30000221072003F0A1F904F038F800202A4916
:101C40000870494800680A2806DD324A0B2107203F
:101C500003F093F904F02AF8CBE700BF15E1FFF792
:101C60003BFFFFF75BFEFFF7ACFDFFF7C6FEFEF79D
:101C7000D4FF00203C49086035E01B48007801286B
:101C800026D11A4800780D281CD1184840780E2813
:101C90000AD1002014490870344A0321072003F0B8
:101CA0006CF904F003F865E010484078012809D188
:101CB00000200D4908702E4A0321072003F05DF92A
:101CC00003F0F4FF002001E056E0DDE00649087073
:101CD000254800680A2806DD0E4A0B21072003F07C
:101CE0004CF903F0E3FFC8E7680200206C1F0020F6
:101CF0005A5508000D1A000000DE6A690000000055
:101D0000300000205C7835415508000D1A000000B5
:101D1000DE6A6900590000205C7835415508000DE5
:101D20001A000301E26A69005A5508000D1A0003FF
:101D300000E16A69000000005C7835415508000D3B
:101D40001A000300E16A69005C7835415508000D0E
:101D50001A000201E16A69005C7835415508000DFE
:101D60001A000101E06A69004400002064000020BC
:101D70006900002000BF88E0FFF776FEFFF7CEFD88
:101D8000FFF756FDFFF739FEFEF747FF00204849F1
:101D9000086032E047480078012823D1464800789F
:101DA0000D281CD1444840780E280AD10020414912
:101DB0000870424A0421072003F0DFF803F076FFA1
:101DC0001CE03D484078012809D1002039490870BD
:101DD0003B4A0421072003F0D0F803F067FF0020FE
:101DE00034490870324800680A2806DD354A0B215C
:101DF000072003F0C2F803F059FFCBE700BF44E02F
:101E0000FFF7C3FDFFF78AFDFFF712FDFFF7D9FCCF
:101E1000FEF703FF00202649086032E025480078DD
:101E2000012823D1244800780D281CD1224840786D
:101E30000E280AD100201F490870204A05210720DA
:101E400003F09BF803F032FF1CE01B4840780128A8
:101E500009D1002017490870194A0521072003F00D
:101E60008CF803F023FF0020124908701048006826
:101E70000A2806DD134A0B21072003F07EF803F041
:101E800015FFCBE700BF00E000BF00BF10BDF0B5FD
:101E900002460D4600201446002305E014F8017B9D
:101EA0003E18F0B25E1CF3B2AB42F7DBF0BD0000AF
:101EB00044000020680200206C1F00206400002005
:101EC000690000205900002010B500240020D149ED
:101ED00008609020FEF7A4FB0020FEF7A1FB002085
:101EE000FEF79EFB0020FEF79BFBFF20FEF798FB12
:101EF00044EA0024FF20FEF793FB04430120C64977
:101F0000C1F8B001204610BD08B50121082005F038
:101F100003FA4FF48050ADF8000010208DF8030054
:101F200003208DF802006946BC4804F039FF4FF4E5
:101F30008051BA4804F0E1FF0120B6490860FEF77D
:101F400096FB0020FEF7D9FBFFF7BEFFB4490880DF
:101F500008BD10B500240020AE4908600520FEF73A
:101F60005FFBFF20FEF75CFB04460120AA49C1F895
:101F7000B001204610BD10B504460020A5490860F8
:101F80000120FEF74DFB2046FEF74AFB0120A24947
:101F9000C1F8B00110BD10B500209E4908600620B0
:101FA000FEF73EFB01209C49C1F8B00110BD10B501
:101FB0000020984908600420FEF732FB0120964972
:101FC000C1F8B00110BD2DE9F04106460C46174698
:101FD0000020904908600320FEF722FBC4F307406D
:101FE000FEF71EFBC4F30720FEF71AFBE0B2FEF774
:101FF00017FB002505E0FF20FEF712FB7055681C5B
:1020000085B2BD42F7DB012082490860BDE8F0815E
:1020100010B500BFFFF79DFF00F001000028F9D1C7
:1020200010BD2DE9F04106460C461746FFF7B3FFF9
:102030000020784908600220FEF7F2FAC4F3074056
:10204000FEF7EEFAC4F30720FEF7EAFAE0B2FEF775
:10205000E7FA002504E0705DFEF7E2FA681C85B23D
:10206000BD42F8DB01206B490860FFF7D1FFBDE8F6
:10207000F0812DE9F04107460E461446F0B2C0F556
:102080008075AC4200DC254612E02A4631463846CF
:10209000FFF7C7FFAC4200D10BE02F442E44601B7A
:1020A00084B2B4F5807F02DD4FF4807500E02546F0
:1020B000EBE700BFBDE8F08110B50446214659A00A
:1020C00006F01AFD2403FFF766FFFFF7A1FF0020CB
:1020D000504908602020FEF7A3FAC4F30740FEF73A
:1020E0009FFAC4F30720FEF79BFAE0B2FEF798FAD6
:1020F00001204949C1F8B001FFF78AFF10BD2DE961
:10210000F05F81460F461646DFF820B14FEA1738D8
:10211000C7F30B0ACAF58054A64200DC344644E0FB
:102120004FEA08314FF480525846FFF74CFF002524
:1021300008E00AEB05001BF80000FF2800D003E0D0
:10214000681C85B2A542F4DB00BFA54216DA404602
:10215000FFF7B2FF002507E019F8050005EB0A01BB
:102160000BF80100681C85B2A542F5DB4FEA083187
:102170004FF480525846FFF77CFF04E02246394670
:102180004846FFF776FFA64200D10FE008F10108AC
:102190004FF0000AA1442744301B86B2B6F5805F99
:1021A00002DD4FF4805400E03446B9E700BFBDE8DB
:1021B000F09F10B5FFF7EFFEFFF72AFF002015494B
:1021C0000860C720FEF72CFA01201349C1F8B001BE
:1021D000FFF71EFF10BD10B500200E490860B920A2
:1021E000FEF71EFA01200C49C1F8B001032004F0EB
:1021F00098FC10BD10B5002006490860AB20FEF722
:102200000FFA01200449C1F8B001032004F089FC51
:1022100010BD0000B081214200802142000C01402D
:102220007402002066653A25780D0A009820002087
:1022300010B504462146FE4805F0D2FB00BF02213E
:10224000FB4805F020FC0028F9D010BD70B504460D
:102250002546E11704EB1161C1F30720FFF7E8FF02
:10226000E0B2FFF7E5FF70BD70B504460D461646B7
:102270001021F04804F043FE2846FFF7E7FF08214D
:1022800001EB4411C9B241F00500FFF7D1FF304620
:10229000FFF7CEFF1021E74804F02FFE70BD70B5A8
:1022A00004460D461021E34804F029FE2846FFF7B6
:1022B000CDFF082101EB4411C9B241F00100FFF745
:1022C000B7FFDB4805F08EFBC6B20020FFF7B0FF7A
:1022D000D74805F087FBC6B21021D64804F00DFEA2
:1022E000304670BD10B50446022200212046FFF79B
:1022F000BBFF012211462046FFF7B6FF052004F080
:1023000034FC03212046FFF7CAFF222806D0102202
:1023100001212046FFF7A8FF002010BDFF20FCE7A9
:1023200010B50446012200212046FFF79DFF01223F
:1023300011462046FFF798FF052004F016FC032104
:102340002046FFF7ACFF132806D0102201212046BB
:10235000FFF78AFF002010BD042201212046FFF76D
:1023600083FFFF20F7E710B5044601220021204635
:10237000FFF77AFF012211462046FFF775FF05207F
:1023800004F0F3FB03212046FFF789FF132806D052
:10239000102201212046FFF767FF002010BD022216
:1023A00001212046FFF760FF052004F0DEFB03213A
:1023B0002046FFF774FF142806D010220121204682
:1023C000FFF752FF0020E9E7FF20E7E710B59A4842
:1023D000007810BB9948007860B90020FFF7C3FF70
:1023E000FF2803D101209449087023E0002092497E
:1023F00008701FE09148007801280FD10020FFF7F6
:102400008FFFFF2806D100208D49086001208A49EE
:1024100008700FE00020884908700BE00020FFF7EB
:1024200061FFFF2803D103208349087002E00020E8
:10243000814908708348007838BB8348007860B9C8
:102440000120FFF790FFFF2803D101207D4908708C
:102450001FE000207B4908701BE07B4800780128C2
:102460000BD1FFF75DFFFF2803D1012075490870EC
:102470000FE00020734908700BE00120FFF732FFE6
:10248000FF2803D103206F49087002E000206D4946
:10249000087010BD70B505460E46144610216548FB
:1024A00004F02DFD3046FFF7D1FE082101EB451168
:1024B000C9B241F00700FFF7BBFE14F8010BFFF7AC
:1024C000B7FE14F8010BFFF7B3FE14F8010BFFF78A
:1024D000AFFE14F8010BFFF7ABFE1021554804F0D6
:1024E0000CFD70BD70B504460D46164610215148CE
:1024F00004F005FD2846FFF7A9FE082101EB441171
:10250000C9B241F00600FFF793FE3046FFF79EFE8A
:102510001021484804F0F1FC70BD10B5044640F2AB
:10252000B45212212046FFF7DDFF082C2FD2DFE83E
:1025300004F0041628292A2B2C2D44480288042153
:102540002046FFF7CFFF4248028810212046FFF7C0
:10255000C9FF404A0C212046FFF79CFF18E03B488A
:10256000028804212046FFF7BDFF3B480288102166
:102570002046FFF7B7FF374A0C212046FFF78AFFB6
:1025800006E005E004E003E002E001E000E000BF57
:1025900000BF10BD70B505460E461021254804F059
:1025A000AEFC3046FFF752FE082101EB4511C9B2DF
:1025B00041F00200FFF73CFE1D4805F013FA044607
:1025C0000020FFF735FE1A4805F00CFA04460020FB
:1025D000FFF72EFE4FF6FF7000EA0424144805F0C2
:1025E00001FA204484B21021124804F086FC2046EF
:1025F00070BD2DE9F04707460D469046002138464C
:10260000FFF74DFE00F00F0022280AD0134A0C21DC
:102610003846FFF73FFF0E48028810213846FFF783
:1026200061FF24213846FFF7B5FF0646B14617E0A3
:1026300000300140000801409A020020980200206A
:10264000A40200209B020020990200208A020020A0
:10265000960200208C0200209002002092020020AE
:10266000C6F30A061021FE4804F049FC3046FFF785
:10267000EDFD102101EB4711C9B241F00400FFF755
:10268000D7FD06EB0800B0F5006F0ADA002405E07C
:1026900015F8010BFFF7CCFD601C84B24445F7DB55
:1026A00028E0C6F5006086B2002405E015F8010BAD
:1026B000FFF7BEFD601C84B2B442F7DB1021E8488E
:1026C00004F01BFC1021E64804F019FC0020FFF781
:1026D000BDFD102101EB4711C9B241F00400FFF725
:1026E000A7FD05E015F8010BFFF7A2FD601C84B201
:1026F0004445F7DB1021DA4804F0FFFB09EB080042
:102700001FFA80F94A4624213846FFF7EBFE2022C3
:1027100001213846FFF7A8FDBDE8F08770B50446F3
:102720000D46D0480078032811D1CF48007820F01A
:102730000200CD4908702A462146CC4806F004FC28
:102740002A46CA490020FFF754FF012070BD00202F
:10275000FFF7E3FEFFF73AFE0020F7E770B5044607
:102760000D46C3480078032811D1C248007820F0F4
:102770000200C04908702A462146BF4806F0E4FB23
:102780002A46BD490120FFF734FF012070BD01201A
:10279000FFF7C3FEFFF71AFE0020F7E770B5054606
:1027A0000C461021AE4804F0AAFB2846FFF74EFD68
:1027B0000520FFF73DFD2046FFF73AFD1021A84810
:1027C00004F09BFB70BD70B505460C461021A44873
:1027D00004F095FB2846FFF739FD0620FFF728FD9A
:1027E0002046FFF733FD10219D4804F086FB70BDA5
:1027F0002DE9F04107460C4615461021984804F093
:102800007EFB3846FFF722FD0420FFF711FD00266E
:1028100005E014F8010BFFF70BFD701C86B2AE4209
:10282000F7DB10218E4804F068FBBDE8F08110B59D
:10283000002480210020FFF7B1FF0A2004F095F961
:1028400004228E490120FFF7D3FF04228C49052082
:10285000FFF7CEFF06228B490920FFF7C9FF0422AC
:1028600089490F20FFF7C4FF00BF0BE002221E21A1
:102870002046FFF7F9FC02221F212046FFF7F4FC57
:10288000601CC4B2082CF1DB4FF4FA611920FFF789
:102890009AFF08211B20FFF781FFC0211620FFF7B8
:1028A0007DFF01211820FFF779FF1F222C21002036
:1028B000FFF7DAFC01222F210020FFF7D5FC10BD25
:1028C00008B517208DF8000001208DF801000220C6
:1028D0008DF8020001208DF80300684604F097F996
:1028E00008BD10B54FF40071684804F008FB3220B1
:1028F00004F03BF94FF40071644804F0FEFAC8207C
:1029000004F033F910BD10B500248021604804F0B4
:10291000DAFA08B9012000E000202044C4B24FF4E4
:1029200080615A4804F0CFFA08B1002000E002208C
:102930002044C4B24FF40071554804F0C4FA08B101
:10294000002000E004202044C4B24FF400614F484E
:1029500004F0B9FA08B1002000E008202044C4B215
:10296000204610BD10B5FFF7CEFF10B94648C0781D
:1029700001E0FFF7C8FF4449C870FFF7C4FF10B972
:102980004048407901E0FFF7BEFF3E4948710A2206
:1029900032214048FFF717FB3E480078FF2828D136
:1029A000394800783B4908703748407848703648C5
:1029B000807888703448C078324948713549C87089
:1029C000084602780121082003F083F93148427853
:1029D0000221082003F07DF92E4882780321082087
:1029E00003F077F92B48C2780421082003F071F92D
:1029F00026E0284800782449087026484078487026
:102A00002448807888702348C078C8701D49487170
:102A1000204802780121082003F05BF91D48427824
:102A20000221082003F055F91A4882780321082072
:102A300003F04FF91748C2780421082003F049F940
:102A40000A2250211448FFF7BEFA13480078FF28E5
:102A500053D112480078124908700F49087021E0DC
:102A6000000801409A0200209C02002098380020B3
:102A70009B0200209D020020984800208602002032
:102A800082020020780200207E020020000C01401B
:102A900000100140505500206E5500209202002089
:102AA0008C020020FC484078FC494870FC49487082
:102AB000F9488078F9498870F9498870F648C078F3
:102AC000F649C870F649C870084602780D210820FA
:102AD00003F0FFF8F24842780E21082003F0F9F8DD
:102AE000EF4882780F21082003F0F3F8EC48C27811
:102AF0001021082003F0EDF82FE0E9480078E649BE
:102B00000870E6490870E6484078E3494870E349B0
:102B10004870E3488078E0498870E0498870E04870
:102B2000C078DD49C870DD49C870DD4802780D21E4
:102B3000082003F0CEF8DA4842780E21082003F08E
:102B4000C8F8D74882780F21082003F0C2F8D4488B
:102B5000C2781021082003F0BCF80A223C21D14899
:102B6000FFF731FACF48C078FF2825D1CE4800784A
:102B7000CC490870CC4840784870CB488078887041
:102B8000C948C078C870084602780521082003F0BB
:102B9000A0F8C44842780621082003F09AF8C148FA
:102BA00082780721082003F094F8BE48C2780821F3
:102BB000084603F08EF824E0BA480078BA49087055
:102BC000B84840784870B74880788870B548C07871
:102BD000C870B44802780521082003F07AF8B1489B
:102BE00042780621082003F074F8AE488278072165
:102BF000082003F06EF8AB48C2780821084603F0BD
:102C000068F80A224621A948FFF7DDF9A7480078AD
:102C1000FF2825D1A6480078A4490870A448407828
:102C20004870A34880788870A148C078C87008466A
:102C300002780921082003F04CF89C4842780A21C8
:102C4000082003F046F8994882780B21082003F009
:102C500040F89648C2780C21082003F03AF824E0A6
:102C600092480078924908709048407848708F48A0
:102C7000807888708D48C078C8708C4802780921A7
:102C8000082003F026F8894842780A21082003F03A
:102C900020F8864882780B21082003F01AF8834830
:102CA000C2780C21082003F014F80A225A21814826
:102CB000FFF789F9804A81A17E4806F055F87E48E1
:102CC000008880B27E4908807E4908807A481121B8
:102CD0000268082002F0FDFF0A2282217A48FFF7ED
:102CE00072F97A4A75A1784806F03EF8774800886C
:102CF000774908800A2264217648FFF764F975480D
:102D00004078FF2813D174480079724908707248DE
:102D100040794870084602781721082002F0D9FF50
:102D20006C4842781821082002F0D3FF12E069486D
:102D300000786949087167484078487165480278A9
:102D40001721082002F0C5FF6248427818210820A8
:102D500002F0BFFF0120614908700220604908703D
:102D600010BD00B587B0012141F20D0004F0D4FA86
:102D7000E020ADF8180003208DF81A0018208DF817
:102D80001B0006A9574804F00BF8E021554804F051
:102D9000B4F81020ADF8180003208DF81A001020A8
:102DA0008DF81B0006A94F4803F0FAFF10214D488B
:102DB00004F0A3F80020ADF804004FF48270ADF8E1
:102DC00006000020ADF80800ADF80A00ADF80C00D0
:102DD0004FF40070ADF80E000020ADF81000ADF813
:102DE00012000720ADF8140001A93F4804F022FDAD
:102DF00001213D4804F0C3FD07B000BD0EB501211F
:102E00001C2004F089FA4FF40070ADF8080001208E
:102E10008DF80A0010208DF80B0002A9334803F04A
:102E2000BFFF4FF40071314804F069F84FF480702F
:102E3000ADF8080003208DF80A0048208DF80B003B
:102E400002A92A4803F0ACFF0821012004F0BEF8D3
:102E50004FF48070009000208DF804000C208DF855
:102E6000050001208DF80600684605F05FFD0EBDE7
:102E700010B5FFF7C3FFFFF774FFFFF773FDFFF710
:102E800030FDFFF71DFDFFF7D2FC0020FFF745FBEB
:102E9000FFF79CFA10BD0000920200208C02002077
:102EA0006E5500205A5500208202002064550020F3
:102EB0008602002078550020FC020020256C64006A
:102EC00096020020900200208C5500200003002074
:102ED0008A020020825500207802002098020020FB
:102EE000990200200008014000300140000C014020
:102EF00030B502460B464FF6FF70002112E0555CDC
:102F0000684000240AE000F0010525B148F20845B8
:102F100085EA600000E04010651CACB2082CF2DBD2
:102F20004D1CA9B29942EADB30BD2DE9F043ADF565
:102F3000497D0546884691460024F02D00DDF025A8
:102F400005222046611CCCB20DF80020681EC2B2DA
:102F50002046611CCCB20DF800202046611CCCB28A
:102F60000DF80080002607E019F806202046611CB5
:102F7000CCB20DF80020761CA81FB042F4DC281F4C
:102F800081B20DF10100FFF7B3FF07463A12204668
:102F9000611CCCB20DF80020FAB22046611CCCB204
:102FA0000DF8002006222046611CCCB20DF800204E
:102FB00029466846FFF7D2FB0DF5497DBDE8F08351
:102FC0002DE9F04F8FB006460F46002529466D1CAF
:102FD000705C05287ED12846691CCDB2305CF8496A
:102FE00008702846691CCDB2305CF6490870002490
:102FF00007E02846691CCDB2305C02A90855601C68
:10300000C4B2B81FA042F4DC2846691CCDB2305CC3
:10301000000201902846691CCDB2315C0198084439
:1030200080B201904FF0060AE6480078F62871D089
:1030300010DCF22862D006DCE1286CD0E2286BD0EC
:10304000F1286AD10FE0F3286AD0F42877D0F52868
:10305000F7D182E0F73808285FD2DFE800F0A5BE9C
:10306000D0E2FCFB5EFAD8480078A0B34FF0000B2A
:10307000D84617E04FF000090FE008EBC80000EB5E
:103080000810D24901EB400010F8092058460BF116
:10309000010BCF490A5409F10109B9F10D0FECDB1D
:1030A00008F10108C84800788045E3DBC649097883
:1030B00001EB810202EBC101891DC8B2C44AC149BA
:1030C0000978FFF732FF0020BF49087041F28831CC
:1030D000BE4801E064E107E005F07BFF40F2853186
:1030E000BB4805F076FF08E00220BA4908700A469E
:1030F000B44801783846FFF718FF50E1FDF763FE4A
:103100000220B44908700A46AE4801783846FFF7F5
:103110000CFF44E12FE00BE125E13FE100E00EE090
:103120000220AC49087002AA0421002001F025FF0A
:10313000A84AA44801783846FFF7F7FE2FE1A648D1
:10314000AFF288210268A54805F0E2FCA34A9D4839
:1031500001781020FFF7E9FE21E1A148AFF2A42198
:103160000268A04805F0D4FC9E4A964801781020D9
:10317000FFF7DBFE13E19DF808009B4908709DF8FE
:10318000090048709DF80A0088709DF80B00C8700F
:103190000A2232219448FEF7B2FF8E4A894801780C
:1031A0000720FFF7C2FEFAE09DF808008F4908707B
:1031B0009DF8090048709DF80A0088709DF80B0082
:1031C000C8700A2250218948FEF799FF814A7D483C
:1031D00001780720FFF7A9FEE1E09DF80800844987
:1031E000087084490870022228218148FEF787FF71
:1031F000784A744801783846FFF797FECFE09DF88B
:1032000008007D4908700A2200217B48FEF777FFFD
:1032100002AA6C4801783846FFF787FE02F046FDA7
:10322000BDE09DF8080075490870084600786428DC
:1032300001DD32200870714802780221042001F07B
:10324000F9FE6E490878FDF774F90A2211466B48B9
:1032500002E037E033E008E0FEF751FF02AA5948E8
:1032600001783846FFF761FE99E05F4800788DF8F5
:1032700008005D4840788DF809005B4880788DF83B
:103280000A005948C0788DF80B0000208DF80C001A
:10329000564800788DF80D00544840788DF80E009F
:1032A000524880788DF80F005048C0788DF8100093
:1032B00002AA444801780F20FFF737FE6FE0FDF7C0
:1032C0007DFC6CE04448AFF20C410268434805F0D5
:1032D0001FFC4348AFF21C410268424805F018FC4D
:1032E0000025002408E02846691CCDB23B49085C53
:1032F00002A90855601CC4B20A2CF4DB2C208DF8FE
:103300001200002500240AE02846691CCDB2354988
:10331000095C04F10B0002AA1154601CC4B20A2C0F
:10332000F2DB02AA274801781B20FFF7FEFD36E0FA
:1033300000202549087041F28831244805F049FEF3
:1033400002212F4803F0DBFD4FF4FA7003F00DFC6F
:1033500002212B4803F0D1FD1E4A1A480178384655
:10336000FFF7E3FD1BE000201749087041F28831A8
:10337000164805F02EFE0421214803F0C0FD4FF44D
:10338000FA7003F0F2FB04211D4803F0B6FD114A68
:103390000C4801783846FFF7C8FD00E000BF00BFC9
:1033A0000FB0BDE8F08F2DE9F04780460D4626218D
:1033B0004046FFF7EFF8064626BB0020BDE8F08741
:1033C000A0020020A1020020840000202D07002080
:1033D000A8030020AA020020E002002028550020B7
:1033E000E402002032550020505500206E55002088
:1033F000F102002009030020145500201E55002072
:103400000010014040F2B450864200DD06462821FB
:103410004046FFF7BFF80746B946C7F30A07102131
:10342000F54803F06CFD3846FEF710FF182101EB5C
:103430004811C8B2FEF7FCFEF04804F0D3FA00F0E1
:10344000FF0AB819B0F5006F11DA00240CE0002073
:10345000FEF7EEFEE94804F0C5FA00F0FF0A85F831
:1034600000A06D1C601C84B2B442F0DB39E0C7F5EB
:10347000006087B200240CE00020FEF7D9FEDF4890
:1034800004F0B0FA00F0FF0A85F800A06D1C601C83
:1034900084B2BC42F0DB1021D74803F02EFD10218E
:1034A000D54803F02CFD0020FEF7D0FE182101EBDB
:1034B0004811C8B2FEF7BCFED04804F093FA00F001
:1034C000FF0A0CE00020FEF7B3FECC4804F08AFAB5
:1034D00000F0FF0A85F800A06D1C601C84B2B442A5
:1034E000F0DB1021C44803F008FD09EB06001FFAC9
:1034F00080F94A4628214046FEF7F4FF4022012188
:103500004046FEF7B1FE3046BDE8F0872DE9F043B6
:10351000ADF2044D05468846914600240522214619
:10352000641C01A84254681EC2B22146641C01A852
:1035300042542146641C00F80180002707E019F876
:1035400007202046611CCCB201A90A547F1CA81F89
:10355000B842F4DC281F81B20DF10500FFF7C8FC6A
:10356000064632122046611CCCB201A90A542046FC
:10357000611CCCB201A90E5406222046611CCCB2BB
:1035800001A90A54294601A8FFF7C8F80DF2044D15
:10359000BDE8F0832DE9F0438DB006460F460025C7
:1035A0003421684605F037FD29466D1C705C0528FE
:1035B0007AD12846691CCDB2305C91490870284602
:1035C000691CCDB2305C8F490870002407E02846A2
:1035D000691CCDB2305C0DF80400601CC4B2B81F89
:1035E000A042F4DC2846691CCDB2305C4FEA0029C9
:1035F0002846691CCDB2305C48441FFA80F94FF070
:10360000060880480078E1381E2872D2DFE800F012
:10361000F3F2F1F0EFEEEDEC7171717171717171A6
:103620000F101C303E4D6072889AC0EB71EA2CE29C
:10363000FDF7C9FB0220744908700A4671480178F9
:103640003846FFF763FF20E202206F49087001202F
:103650006E49087000206E4908606A46042101F036
:103660008CFC694A674801783846FFF74FFF0CE247
:103670006848AFF2B8710268674805F049FA664ACF
:10368000604801781020FFF741FFFEE16348AFF288
:10369000D4710268624805F03BFA614A59480178E2
:1036A0001020FFF733FFF0E1F0E1322269465D4878
:1036B00005F04AFC0A2232215A48FEF720FD524A00
:1036C000504801780720FFF721FF02F0EFFADCE114
:1036D00032226946544805F037FC0A2250215248EC
:1036E000FEF70DFD484A474801780720FFF70EFF17
:1036F000CBE1C9E19DF800004C4908704C490870C5
:103700000846007803F080F8022228214748FEF797
:10371000F6FC3D4A3B4801783846FFF7F7FEB4E136
:103720009DF80000434908700A2200214148FEF735
:10373000E6FC354A334801783846FFF7E7FE02F0E9
:10374000B5FAA2E19DF800003B49087008460078F0
:10375000642801DD322008703748027802210420F5
:1037600001F068FC344802780321042001F096FC43
:1037700031490878FCF7DDFE0A2211462E48FEF793
:10378000BEFC214A1F4801783846FFF7BFFE7CE1A6
:10379000244800788DF80000224840788DF8010018
:1037A000204880788DF802001E48C0788DF803000C
:1037B00000208DF804001C4800788DF805001A4898
:1037C00040788DF80600184880788DF80700164874
:1037D000C0788DF808006A460A4801780F20FFF784
:1037E00095FE52E12DE029E04AE128E10CE1F2E00A
:1037F000C9E092E076E05AE0000801400030014064
:10380000A0020020A1020020AA020020B002002095
:10381000AC020020E002002028550020E402002035
:1038200032550020505500206E550020F102002036
:1038300009030020145500201E550020FDF7BEF995
:1038400023E1FE48AFF68C110268FD4805F060F9EF
:10385000FC48AFF698110268FB4805F059F90025BD
:10386000002408E02846691CCDB2F549085C0DF833
:103870000400601CC4B20A2CF4DB2C208DF80A0072
:10388000002500240AE02846691CCDB2EE49095CF7
:1038900004F10B000DF80010601CC4B20A2CF2DB1E
:1038A0006A46EA4801781B20FFF730FEEDE0002071
:1038B000E749087041F28831E64805F08AFB0221A9
:1038C000E54803F01CFB4FF4FA7003F04EF90221B7
:1038D000E14803F012FBE14ADC4801783846FFF783
:1038E00015FED2E00020DA49087041F28831D9484B
:1038F00005F06FFB0421D84803F001FB4FF4FA7088
:1039000003F033F90421D44803F0F7FAD34ACF483F
:1039100001783846FFF7FAFDB7E00020C949086092
:10392000C649086000220221084602F0D2F90022AE
:103930000321022002F0CDF900220221104602F0FC
:10394000C8F900220321104602F0C3F90022AFF6A5
:103950009421BB4805F0DCF80A221421B848FEF790
:10396000CEFB0022AFF6AC21B74805F0D1F80A2211
:103970001E21B548FEF7C3FBB84AB44801780720BA
:10398000FFF7C4FD81E0B64AAFF6D021B54805F097
:10399000EBF9B3480078012803D10220B049087040
:1039A00006E0AF480078022802D10120AC49087037
:1039B000AB480278AFF6FC21AA4805F0A9F802222C
:1039C0006E21A848FEF79BFBA44AA0480178072077
:1039D000FFF79CFD59E032226946A34805F0B4FA8E
:1039E000B81FA24908700A228C219F48FEF787FB66
:1039F000012296219D48FEF782FB984A9348017860
:103A00000720FFF783FD40E0994AAFF65031684642
:103A100005F0AAF99648AFF65C310268954805F0C2
:103A200077F80A2282219348FEF769FB8B4A874880
:103A300001780720FFF76AFD02F038F925E08E4A89
:103A4000AFF68831684605F08FF98B48112102687E
:103A5000082002F03EF98848AFF6A0310268874896
:103A600005F056F80A225A218448FEF748FB7B4AA3
:103A7000764801780720FFF749FD02F017F904E0C6
:103A800000207F49086000E000BF00BF0DB0BDE826
:103A9000F0832DE9F0410646002746B979493046C2
:103AA000FFF781FC0546E9B27648FFF773FD012E6A
:103AB00029D175493046FFF776FC0546002407E01A
:103AC0003846791CCFB27049085C70490855641CAF
:103AD000042CF5DB3846791CCFB26B49085C000238
:103AE0006B4908803846791CCFB26749085C684941
:103AF0000988084466490880A5F10800C1B26248F7
:103B00000830FFF75DFA2846BDE8F08108B51720B8
:103B10008DF8000001208DF8010002208DF80200D0
:103B200000208DF80300684603F071F808BD70B5F9
:103B300004461021574803F0E2F92046FEF786FBC1
:103B40000120FEF775FB544803F04CFFC5B200207E
:103B5000FEF76EFB504803F045FFC5B210214D48FB
:103B600003F0CBF9284670BD70B500BF00204B496B
:103B700008701520FFF7DBFF054605F0F001152062
:103B8000FEF70CFE1720FFF7D2FF054605F00100F7
:103B9000002851D002210020FEF781FB0446224676
:103BA00002210020FEF760FB04F0010048B13C4810
:103BB000007840F002003A4908704FF4FA7002F0C1
:103BC000D4FF04F0020080B1102201210020FEF792
:103BD0004BFB0020FEF7A1FC002031490870FEF7E6
:103BE000F5FB4FF4FA7002F0C0FF04F0100028B1AA
:103BF0002C48007840F002002A49087004F00400C4
:103C000070B12848007840F0010026490870002073
:103C1000FFF73FFF2348007820F00100214908709A
:103C200004F0080040B1102201210020FEF71CFB27
:103C30000020FEF772FC37E042E00000E0020020C6
:103C400028550020E402002032550020A102002067
:103C5000840000202D07002000100140AA0200204F
:103C600058000020F3020020965500200803002091
:103C7000000300208C550020FC0200207855002015
:103C8000A4020020983000209840002092020020DA
:103C90009602002000080140003001409E020020F2
:103CA0009A0200209C0200204FF4FA7002F05DFF9F
:103CB0002E20FFF73CFF00204A490870FEF786FBE4
:103CC0001720FFF734FF00B150E770BD10B54FF477
:103CD000807004F091FE40B14FF4807004F09DFEBE
:103CE000012041490870FFF73FFF10BD38B53F483C
:103CF0000078401CC0B28DF800003C484078401C61
:103D0000C0B28DF8010039488078401CC0B28DF8EF
:103D100002003648C078401CC0B28DF803006A46E5
:103D20000C210020FEF7B6FB022200210846FEF718
:103D30009BFA012211460020FEF796FA052002F0B8
:103D400014FF03210020FEF7AAFA132806D0102240
:103D500001210020FEF788FA002038BD042201214D
:103D60000020FEF781FA00BF002402210020FEF7A8
:103D700096FA044624B1224602210020FEF774FA86
:103D8000052002F0F2FE04F00800082801D100200E
:103D9000E3E706210020FEF782FAFF2806D0102272
:103DA00001210020FEF760FAFF20D6E7DCE71CB512
:103DB00000200F4908700F4800788DF800000D486A
:103DC00040788DF801000B4880788DF80200094892
:103DD000C0788DF803006A46E8210A20FFF796FBB9
:103DE0001CBD00009A0200209E0200207E020020DE
:103DF000A80200205055002070B505460C4645F23B
:103E0000555004F057FE284604F057FE204604F0B3
:103E100057FE04F058FE04F05BFE70BD10B504F0D0
:103E200052FE10BD08B500208DF8000002208DF86C
:103E3000010003208DF80200684602F0E8FE08BD8C
:103E400070B506460C4615460121C80203F071FA0A
:103E5000284604F0F6FD204604F0FCFD304604F050
:103E600014FE04F01DFEFFF7DDFF04F004FE70BD3C
:103E700010B50446204604F008FE10BD10B57F20A2
:103E800004F0FDFD04F00CFE10BD000000203E49D2
:103E9000488008803D4908603D490880704710B55A
:103EA000394A1288521C502392FBF3F403FB14226C
:103EB00091B2354A52888A4205D0334A1388121D7E
:103EC000D054121F118010BD2F4949882E4A1288E4
:103ED00091420ED02C494A88091D895C01702A49FB
:103EE0004988491C502291FBF2F302FB1311264A28
:103EF0005180704724480088503023494988401A2F
:103F0000502190FBF1F201FB120080B27047F8B52E
:103F100004460D460026002000902FE06846FFF77B
:103F2000D3FF1B48008820B99DF80000EE2800D080
:103F300024E017480088A84208DA9DF800101448C9
:103F400002880088401C124B1880A1549DF8000084
:103F50000E49096840EA01200C49086008460068DB
:103F60006FF44031884208D109480688002007498B
:103F70000860074908803046F8BD00BFFFF7BAFF68
:103F80000028CBDC0020F7E798500020B402002086
:103F9000B8020020014606E04FF47A7200E0521E9B
:103FA000002AFCDC491E0029F6DC704710B50446E7
:103FB00003E0207801F04FFE641C20780028F8D13F
:103FC00010BD70B505460E46002404E0285D01F0E2
:103FD00042FE601C84B2B442F8DB70BD70B5054689
:103FE0000E4600240AE035F81410080A01F033FEEA
:103FF00015F8140001F02FFE601C84B2B442F2DB0D
:1040000070BD10B5EE2001F026FE002001F023FE69
:10401000FF2001F020FEFC2001F01DFEFF2001F03A
:104020001AFEFF2001F017FE10BD10B50446EE2069
:1040300001F011FE412001F00EFE200A01F00BFEFE
:10404000E0B201F008FEFF2001F005FEFC2001F0C7
:1040500002FEFF2001F0FFFDFF2001F0FCFD10BD7E
:1040600010B50446EE2001F0F6FD422001F0F3FD0C
:10407000200A01F0F0FDE0B201F0EDFDFF2001F0BB
:10408000EAFDFC2001F0E7FDFF2001F0E4FDFF2048
:1040900001F0E1FD10BD70B506460C461546EE2058
:1040A00001F0D9FDA32001F0D6FDF0B201F0D3FD5F
:1040B000200A01F0D0FDE0B201F0CDFD280A01F0A8
:1040C000CAFDE8B201F0C7FDFF2001F0C4FDFC20ED
:1040D00001F0C1FDFF2001F0BEFDFF2001F0BBFD9E
:1040E00070BD10B5EE2001F0B6FD012001F0B3FD6A
:1040F000FF2001F0B0FDFC2001F0ADFDFF2001F03C
:10410000AAFDFF2001F0A7FD10BD70B504460D46C5
:10411000EE2001F0A0FD432001F09DFDE0B201F092
:104120009AFDE8B201F097FDFF2001F094FDFC201C
:1041300001F091FDFF2001F08EFDFF2001F08BFDCD
:1041400070BD70B506460C461546EE2001F083FDA5
:10415000452001F080FDF0B201F07DFD200A01F064
:104160007AFDE0B201F077FD280A01F074FDE8B2B3
:1041700001F071FDFF2001F06EFDFC2001F06BFDF0
:10418000FF2001F068FDFF2001F065FD70BD70B5F6
:1041900004460D46EE2001F05EFD442001F05BFD7B
:1041A000200A01F058FDE0B201F055FD280A01F0A7
:1041B00052FDE8B201F04FFDFF2001F04CFDFC2064
:1041C00001F049FDFF2001F046FDFF2001F043FD15
:1041D00070BD2DE9F04104460D4616461F46DDF838
:1041E0001880EE2001F037FD202001F034FD200A78
:1041F00001F031FDE0B201F02EFD280A01F02BFDA7
:10420000E8B201F028FDF0B201F025FDF8B201F0AE
:1042100022FD4046FFF7CAFEFF2001F01CFDFC20F6
:1042200001F019FDFF2001F016FDFF2001F013FD44
:10423000BDE8F0812DE9F04106460C4615461F46C3
:10424000DDF81880EE2001F006FD212001F003FDCD
:10425000F0B201F000FD200A01F0FDFCE0B201F037
:10426000FAFC280A01F0F7FCE8B201F0F4FCF8B21D
:1042700001F0F1FC08F0FF0001F0EDFCFF2001F07F
:10428000EAFCFC2001F0E7FCFF2001F0E4FCFF2049
:1042900001F0E1FCBDE8F08170B504460D46EE206A
:1042A00001F0D9FC312001F0D6FC200A01F0D3FC4A
:1042B000E0B201F0D0FCE8B201F0CDFCFF2001F04B
:1042C000CAFCFC2001F0C7FCFF2001F0C4FCFF2069
:1042D00001F0C1FC70BD2DE9F04104460D461646C3
:1042E0001F46EE2001F0B7FC322001F0B4FC200A9A
:1042F00001F0B1FCE0B201F0AEFC280A01F0ABFC29
:10430000E8B201F0A8FC300A01F0A5FCF0B201F01F
:10431000A2FCF8B201F09FFCFF2001F09CFCFC2005
:1043200001F099FCFF2001F096FCFF2001F093FCC6
:10433000BDE8F0812DE9F05F04460D4616461F46A4
:10434000DDE90CABDDE90A89EE2001F084FC3320C5
:1043500001F081FC200A01F07EFCE0B201F07BFC60
:10436000280A01F078FCE8B201F075FC300A01F08F
:1043700072FCF0B201F06FFC380A01F06CFCF8B28C
:1043800001F069FC4FEA182001F065FC08F0FF001D
:1043900001F061FC4FEA192001F05DFC09F0FF001B
:1043A00001F059FC4FEA1A2001F055FC0AF0FF0019
:1043B00001F051FC0BF0FF0001F04DFCFF2001F07B
:1043C0004AFCFC2001F047FCFF2001F044FCFF20E8
:1043D00001F041FCBDE8F09F2DE9F04104460D4697
:1043E00016461F46DDF81880EE2001F034FC8020D0
:1043F00001F031FC200A01F02EFCE0B201F02BFCB0
:10440000280A01F028FCE8B201F025FC300A01F08E
:1044100022FCF0B201F01FFCF8B201F01CFC08F025
:10442000FF0001F018FCFF2001F015FCFC2001F05A
:1044300012FCFF2001F00FFCFF2001F00CFCBDE896
:10444000F08170B504460D46EE2001F004FC5020CA
:1044500001F001FC200A01F0FEFBE0B201F0FBFBE1
:10446000280A01F0F8FBE8B201F0F5FBFF2001F0AB
:10447000F2FBFC2001F0EFFBFF2001F0ECFBFF2042
:1044800001F0E9FB70BD2DE9F04104460D461646EA
:104490001F46EE2001F0DFFB512001F0DCFB200A7B
:1044A00001F0D9FBE0B201F0D6FB280A01F0D3FB02
:1044B000E8B201F0D0FB300A01F0CDFBF0B201F020
:1044C000CAFB380A01F0C7FBF8B201F0C4FBFF20B9
:1044D00001F0C1FBFC2001F0BEFBFF2001F0BBFBA3
:1044E000FF2001F0B8FBBDE8F08170B505460E462F
:1044F0001446EE2001F0AFFB632001F0ACFBE8B204
:1045000001F0A9FB4FF6FF7000EA44013046FFF7C7
:1045100065FDFF2001F09FFBFC2001F09CFBFF20CC
:1045200001F099FBFF2001F096FB70BD2DE9F041F1
:1045300004460D4616461F46EE2001F08CFB59201E
:1045400001F089FB200A01F086FBE0B201F083FB59
:10455000280A01F080FBE8B201F07DFB39463046C5
:10456000FFF73CFDFF2001F076FBFC2001F073FB20
:10457000FF2001F070FBFF2001F06DFBBDE8F08132
:104580002DE9F04104460D4616461F46EE2001F087
:1045900062FB752001F05FFB200A01F05CFBE0B2DA
:1045A00001F059FB280A01F056FBE8B201F053FB79
:1045B00039463046FFF712FDFF2001F04CFBFC208E
:1045C00001F049FBFF2001F046FBFF2001F043FB17
:1045D000BDE8F0812DE9F04104460D4616461F4620
:1045E000EE2001F038FB762001F035FB200A01F0C7
:1045F00032FBE0B201F02FFB280A01F02CFBE8B2FD
:1046000001F029FB39463046FFF7E8FCFF2001F0B6
:1046100022FBFC2001F01FFBFF2001F01CFBFF2010
:1046200001F019FBBDE8F0812DE9F04104460D468B
:1046300016461F46EE2001F00EFB772001F00BFB23
:10464000E0B201F008FBE8B201F005FBF0B201F0C6
:1046500002FBF8B201F0FFFAFF2001F0FCFAFC20A7
:1046600001F0F9FAFF2001F0F6FAFF2001F0F3FA69
:10467000BDE8F08170B505460C46EE2001F0EBFA7E
:10468000682001F0E8FA4FF6FF7000EA440128467E
:10469000FFF7A4FCFF2001F0DEFAFC2001F0DBFABA
:1046A000FF2001F0D8FAFF2001F0D5FA70BD70B5F7
:1046B00005460C46EE2001F0CEFA692001F0CBFA57
:1046C0004FF6FF7000EA44012846FFF787FCFF2001
:1046D00001F0C1FAFC2001F0BEFAFF2001F0BBFAA4
:1046E000FF2001F0B8FA70BD70B504460D461646BD
:1046F000EE2001F0B0FA522001F0ADFA200A01F0EC
:10470000AAFAE0B201F0A7FA280A01F0A4FAE8B286
:1047100001F0A1FA300A01F09EFAF0B201F09BFA22
:10472000FF2001F098FAFC2001F095FAFF2001F03B
:1047300092FAFF2001F08FFA70BD70B504460D4665
:104740001646EE2001F087FA532001F084FA200A81
:1047500001F081FAE0B201F07EFA280A01F07BFA5A
:10476000E8B201F078FA300A01F075FAF0B201F01F
:1047700072FAFF2001F06FFAFC2001F06CFAFF20C2
:1047800001F069FAFF2001F066FA70BD2DE9F041F1
:1047900004460D4616461F46DDF81880EE2001F04F
:1047A0005AFA672001F057FA200A01F054FAE0B2F1
:1047B00001F051FA280A01F04EFAE8B201F04BFA82
:1047C000300A01F048FAF0B201F045FA380A01F077
:1047D00042FAF8B201F03FFA4FEA182001F03BFA32
:1047E00008F0FF0001F037FAFF2001F034FAFC2056
:1047F00001F031FAFF2001F02EFAFF2001F02BFA30
:10480000BDE8F0812DE9F04104460D4616461F46ED
:10481000EE2001F020FA542001F01DFA200A01F0E8
:104820001AFAE0B201F017FA280A01F014FAE8B215
:1048300001F011FA300A01F00EFAF0B201F00BFAB1
:10484000380A01F008FAF8B201F005FAFF2001F089
:1048500002FAFC2001F0FFF9FF2001F0FCF9FF2033
:1048600001F0F9F9BDE8F0812DE9F04104460D466B
:1048700016461F46EE2001F0EEF9552001F0EBF947
:10488000200A01F0E8F9E0B201F0E5F9280A01F0A8
:10489000E2F9E8B201F0DFF9300A01F0DCF9F0B238
:1048A00001F0D9F9380A01F0D6F9F8B201F0D3F9DC
:1048B000FF2001F0D0F9FC2001F0CDF9FF2001F03C
:1048C000CAF9FF2001F0C7F9BDE8F0812DE9F041F8
:1048D00004460D4616461F46EE2001F0BCF9562050
:1048E00001F0B9F9200A01F0B6F9E0B201F0B3F92C
:1048F000280A01F0B0F9E8B201F0ADF9300A01F090
:10490000AAF9F0B201F0A7F9380A01F0A4F9F8B257
:1049100001F0A1F9FF2001F09EF9FC2001F09BF9C4
:10492000FF2001F098F9FF2001F095F9BDE8F08132
:104930002DE9F04104460D4616461F46EE2001F0D3
:104940008AF9572001F087F9200A01F084F9E0B2D2
:1049500001F081F9280A01F07EF9E8B201F07BF953
:10496000300A01F078F9F0B201F075F9380A01F077
:1049700072F9F8B201F06FF9FF2001F06CF9FC2038
:1049800001F069F9FF2001F066F9FF2001F063F9F9
:10499000BDE8F08110B50446EE2001F05CF960201E
:1049A00001F059F9E0B201F056F9FF2001F053F996
:1049B000FC2001F050F9FF2001F04DF9FF2001F03B
:1049C0004AF910BD10B50446EE2001F044F961200B
:1049D00001F041F9E0B201F03EF9FF2001F03BF9AE
:1049E000FC2001F038F9FF2001F035F9FF2001F03B
:1049F00032F910BD2DE9F04104460D4616461F461A
:104A0000EE2001F028F9652001F025F9200A01F0D7
:104A100022F9E0B201F01FF9280A01F01CF9E8B20E
:104A200001F019F9300A01F016F9F0B201F013F9AA
:104A3000380A01F010F9F8B201F00DF9FF2001F089
:104A40000AF9FC2001F007F9FF2001F004F9FF202A
:104A500001F001F9BDE8F0812DE9F04107468846F3
:104A600015461E4600240FB144F00104B8F1000FB2
:104A700001D044F0020415B144EA8500C4B216B175
:104A800044EA4610C4B2EE2001F0E5F8702001F0CF
:104A9000E2F8E0B201F0DFF8FF2001F0DCF8FC20E2
:104AA00001F0D9F8FF2001F0D6F8FF2001F0D3F88B
:104AB000BDE8F08110B5EE2001F0CDF8722001F0D4
:104AC000CAF8FF2001F0C7F8FC2001F0C4F8FF206D
:104AD00001F0C1F8FF2001F0BEF810BD10B5EE20C6
:104AE00001F0B9F8732001F0B6F8FF2001F0B3F837
:104AF000FC2001F0B0F8FF2001F0ADF8FF2001F03C
:104B0000AAF810BD10B5EE2001F0A5F8092001F0BB
:104B1000A2F8DE2001F09FF8ED2001F09CF81320B0
:104B200001F099F8312001F096F8FF2001F093F898
:104B3000FC2001F090F8FF2001F08DF8FF2001F03B
:104B40008AF810BD10B5EE2001F085F8082001F0BC
:104B500082F8A52001F07FF85A2001F07CF85F2050
:104B600001F079F8F52001F076F8FF2001F073F8F4
:104B7000FC2001F070F8FF2001F06DF8FF2001F03B
:104B80006AF810BD10B50446EE2001F064F8A020CC
:104B900001F061F8E0B201F05EF8FF2001F05BF88F
:104BA000FC2001F058F8FF2001F055F8FF2001F03B
:104BB00052F810BD10B50446EE2001F04CF8A120CB
:104BC00001F049F8E0B201F046F8FF2001F043F8A7
:104BD000FC2001F040F8FF2001F03DF8FF2001F03B
:104BE0003AF810BD10B50446EE2001F034F8A220CA
:104BF00001F031F8E0B201F02EF8FF2001F02BF8BF
:104C0000FC2001F028F8FF2001F025F8FF2001F03A
:104C100022F810BD70B504460D46EE2001F01BF8D9
:104C2000A42001F018F8E0B201F015F8E8B201F0A4
:104C300012F8FF2001F00FF8FC2001F00CF8FF2023
:104C400001F009F8FF2001F006F870BD10B5044628
:104C5000EE2001F000F8052000F0FDFFE0B200F0CA
:104C6000FAFFFF2000F0F7FFFC2000F0F4FFFF2028
:104C700000F0F1FFFF2000F0EEFF10BD2DE9F0473E
:104C800005460E4617461C46DDE90889EE2000F071
:104C9000E2FF852000F0DFFFE8B200F0DCFFF0B2B9
:104CA00000F0D9FFF8B200F0D6FF200A00F0D3FFE1
:104CB000E0B200F0D0FF4FEA182000F0CCFF08F07F
:104CC000FF0000F0C8FF4FEA192000F0C4FF09F010
:104CD000FF0000F0C0FFFF2000F0BDFFFC2000F04F
:104CE000BAFFFF2000F0B7FFFF2000F0B4FFBDE8DF
:104CF000F08770B504460E461546EE2000F0ABFF77
:104D0000872000F0A8FF200E00F0A5FFC4F30740A5
:104D100000F0A1FFC4F3072000F09DFFE0B200F017
:104D20009AFF31462846FFF74CF9FF2000F093FF29
:104D3000FC2000F090FFFF2000F08DFFFF2000F02E
:104D40008AFF70BD70B504460D46EE2000F083FF6B
:104D5000882000F080FF200E00F07DFFC4F30740A4
:104D600000F079FFC4F3072000F075FFE0B200F017
:104D700072FF280A00F06FFFE8B200F06CFFFF201E
:104D800000F069FFFC2000F066FFFF2000F063FFE9
:104D9000FF2000F060FF70BD10B5EE2000F05BFF5B
:104DA000B12000F058FF012000F055FFFF2000F077
:104DB00052FFFC2000F04FFFFF2000F04CFFFF20CF
:104DC00000F049FF10BD10B50446EE2000F043FF8F
:104DD000B12000F040FF002000F03DFF200A00F06D
:104DE0003AFFE0B200F037FFFF2000F034FFFC2074
:104DF00000F031FFFF2000F02EFFFF2000F02BFF1E
:104E000010BD10B50446EE2000F025FFB32000F0E1
:104E100022FFE0B200F01FFFFF2000F01CFFFC208B
:104E200000F019FFFF2000F016FFFF2000F013FF35
:104E300010BD70B504460D461646EE2000F00BFF7F
:104E4000B12000F008FF022000F005FF200A00F06A
:104E500002FFE0B200F0FFFE280A00F0FCFEE8B21C
:104E600000F0F9FEF0B200F0F6FEFF2000F0F3FED5
:104E7000FC2000F0F0FEFF2000F0EDFEFF2000F02F
:104E8000EAFE70BD70B504460D461646EE2000F0F1
:104E9000E2FEB12000F0DFFE032000F0DCFE200A7D
:104EA00000F0D9FEE0B200F0D6FE280A00F0D3FEF2
:104EB000E8B200F0D0FEF0B200F0CDFEFF2000F02E
:104EC000CAFEFC2000F0C7FEFF2000F0C4FEFF2059
:104ED00000F0C1FE70BD70B504460D461646EE20CA
:104EE00000F0B9FEB12000F0B6FE042000F0B3FEE1
:104EF000200A00F0B0FEE0B200F0ADFE280A00F09B
:104F0000AAFEE8B200F0A7FEF0B200F0A4FEFF2077
:104F100000F0A1FEFC2000F09EFEFF2000F09BFEB2
:104F2000FF2000F098FE70BD70B504460D46164691
:104F3000EE2000F090FEB12000F08DFE102000F079
:104F40008AFE200A00F087FEE0B200F084FE280A04
:104F500000F081FEE8B200F07EFEF0B200F07BFED1
:104F6000FF2000F078FEFC2000F075FEFF2000F02E
:104F700072FEFF2000F06FFE70BD70B504460D4656
:104F80001646EE2000F067FEB12000F064FE10200F
:104F900000F061FE200A00F05EFEE0B200F05BFE71
:104FA000280A00F058FEE8B200F055FE3046FEF741
:104FB000FDFFFF2000F04FFEFC2000F04CFEFF2024
:104FC00000F049FEFF2000F046FE70BD70B50546BA
:104FD0000E461446EE2000F03EFEB12000F03BFEEF
:104FE000102000F038FE280A00F035FEE8B200F08C
:104FF00032FE300A00F02FFEF0B200F02CFE200E40
:1050000000F029FEC4F3074000F025FEC4F307209A
:1050100000F021FEE0B200F01EFEFF2000F01BFEBB
:10502000FC2000F018FEFF2000F015FEFF2000F02D
:1050300012FE70BD70B505460E461446EE2000F017
:105040000AFEB12000F007FE102000F004FE280A3E
:1050500000F001FEE8B200F0FEFD300A00F0FBFDBA
:10506000F0B200F0F8FD200E00F0F5FDC4F30740AB
:1050700000F0F1FDC4F3072000F0EDFDE0B200F018
:10508000EAFDFF2000F0E7FDFC2000F0E4FDFF203A
:1050900000F0E1FDFF2000F0DEFD70BD70B50546BB
:1050A0000E461446EE2000F0D6FDB12000F0D3FDF0
:1050B000102000F0D0FD280A00F0CDFDE8B200F08D
:1050C000CAFD300A00F0C7FDF0B200F0C4FD200EAA
:1050D00000F0C1FDC4F3074000F0BDFDC4F307209C
:1050E00000F0B9FDE0B200F0B6FDFF2000F0B3FD26
:1050F000FC2000F0B0FDFF2000F0ADFDFF2000F02F
:10510000AAFD70BD70B504460D461646EE2000F0AF
:10511000A2FDB12000F09FFD102000F09CFD200AB0
:1051200000F099FDE0B200F096FD280A00F093FD32
:10513000E8B200F090FDF0B200F08DFDFF2000F02D
:105140008AFDFC2000F087FDFF2000F084FDFF2099
:1051500000F081FD70BD70B504460D46EE2000F0F4
:105160007AFDB12000F077FD112000F074FD200AD7
:1051700000F071FDE0B200F06EFD280A00F06BFD5A
:10518000E8B200F068FDFF2000F065FDFC2000F0B3
:1051900062FDFF2000F05FFDFF2000F05CFD70BDB0
:1051A00070B504460D46EE2000F055FDB12000F02C
:1051B00052FD202000F04FFD200A00F04CFDE0B22F
:1051C00000F049FD280A00F046FDE8B200F043FD7A
:1051D000FF2000F040FDFC2000F03DFDFF2000F02E
:1051E0003AFDFF2000F037FD70BD70B504460D4656
:1051F000EE2000F030FDB12000F02DFD212000F068
:105200002AFD200A00F027FDE0B200F024FD280A64
:1052100000F021FDE8B200F01EFDFF2000F01BFDB4
:10522000FC2000F018FDFF2000F015FDFF2000F02D
:1052300012FD70BD70B504460D46EE2000F00BFD6A
:10524000B12000F008FD222000F005FD200A00F04A
:1052500002FDE0B200F0FFFC280A00F0FCFCE8B21E
:1052600000F0F9FCFF2000F0F6FCFC2000F0F3FC5D
:10527000FF2000F0F0FCFF2000F0EDFC70BD70B5E9
:1052800004460D461646EE2000F0E5FCB12000F085
:10529000E2FC232000F0DFFC200A00F0DCFCE0B29E
:1052A00000F0D9FC280A00F0D6FCE8B200F0D3FCEC
:1052B000F0B200F0D0FCFF2000F0CDFCFC2000F0AC
:1052C000CAFCFF2000F0C7FCFF2000F0C4FC70BD4A
:1052D00070B504460D46EE2000F0BDFCB12000F094
:1052E000BAFC242000F0B7FC200A00F0B4FCE0B2C5
:1052F00000F0B1FC280A00F0AEFCE8B200F0ABFC14
:10530000FF2000F0A8FCFC2000F0A5FCFF2000F02E
:10531000A2FCFF2000F09FFC70BD70B504460D4656
:10532000EE2000F098FCB12000F095FC252000F064
:1053300092FC200A00F08FFCE0B200F08CFC280AFE
:1053400000F089FCE8B200F086FCFF2000F083FC4E
:10535000FC2000F080FCFF2000F07DFCFF2000F02E
:105360007AFC70BD2DE9F04104460D4617461E46F5
:10537000EE2000F070FCB12000F06DFC302000F059
:105380006AFC200A00F067FCE0B200F064FC280A26
:1053900000F061FCE8B200F05EFCF8B200F05BFCEB
:1053A000300A00F058FCF0B200F055FCFF2000F08D
:1053B00052FCFC2000F04FFCFF2000F04CFCFF20D2
:1053C00000F049FCBDE8F08170B504460D46164674
:1053D000EE2000F040FCB12000F03DFC312000F058
:1053E0003AFC200A00F037FCE0B200F034FC280A56
:1053F00000F031FCE8B200F02EFCF0B200F02BFC23
:10540000FF2000F028FCFC2000F025FCFF2000F02D
:1054100022FCFF2000F01FFC70BD2DE9F041044686
:105420000D4617469846069EEE2000F014FCB1206B
:1054300000F011FC322000F00EFC200A00F00BFC02
:10544000E0B200F008FC280A00F005FCE8B200F029
:1054500002FCF8B200F0FFFB300A00F0FCFBF0B2F7
:1054600000F0F9FB31464046FEF7ABFDFF2000F0AF
:10547000F2FBFC2000F0EFFBFF2000F0ECFBFF2034
:1054800000F0E9FBBDE8F08170B504460D46164614
:10549000EE2000F0E0FBB12000F0DDFB332000F057
:1054A000DAFB200A00F0D7FBE0B200F0D4FB280AB8
:1054B00000F0D1FBE8B200F0CEFBF0B200F0CBFB85
:1054C000FF2000F0C8FBFC2000F0C5FBFF2000F02F
:1054D000C2FBFF2000F0BFFB70BD2DE9F047044682
:1054E0000D4616461F46DDE90889EE2000F0B3FBA5
:1054F000B12000F0B0FB342000F0ADFB200A00F03A
:10550000AAFBE0B200F0A7FB280A00F0A4FBE8B277
:1055100000F0A1FBC6F3072000F09DFBF0B200F005
:105520009AFB380A00F097FBF8B200F094FBC8F33E
:10553000072000F090FB08F0FF0000F08CFB4FEA22
:10554000192000F088FB09F0FF0000F084FBFF2029
:1055500000F081FBFC2000F07EFBFF2000F07BFBD5
:10556000FF2000F078FBBDE8F08710B50446EE2080
:1055700000F071FBB12000F06EFB122000F06BFB1D
:10558000200A00F068FBE0B200F065FB10BD70B5CA
:1055900004460D46200A00F05EFBE0B200F05BFB23
:1055A000002000F058FB012000F055FBE8B200F0AD
:1055B00052FB70BD70B505460C46280A00F04BFB47
:1055C000E8B200F048FB002000F045FB042000F0AA
:1055D00042FB200E00F03FFBC4F3074000F03BFB12
:1055E000C4F3072000F037FBE0B200F034FB70BDDD
:1055F00070B505460C46280A00F02DFBE8B200F015
:105600002AFB002000F027FB042000F024FB200EE2
:1056100000F021FBC4F3074000F01DFBC4F307209A
:1056200000F019FBE0B200F016FB70BD70B5054646
:105630000C46280A00F00FFBE8B200F00CFB00203B
:1056400000F009FB042000F006FB200E00F003FB35
:10565000C4F3074000F0FFFAC4F3072000F0FBFAA0
:10566000E0B200F0F8FA70BD01460A4600E0491CBD
:1056700008780028FBD1881A704770B504460D469B
:10568000200A00F0E8FAE0B200F0E5FA2846FFF759
:10569000EBFFC0F30726304600F0DDFA2846FFF79F
:1056A000E3FFC6B2304600F0D6FA2846FEF77EFC8D
:1056B00070BD70B504460D46200A00F0CCFAE0B289
:1056C00000F0C9FA002000F0C6FA022000F0C3FA88
:1056D000280A00F0C0FAE8B200F0BDFA70BD10B5BB
:1056E000FF2000F0B8FAFC2000F0B5FAFF2000F02F
:1056F000B2FAFF2000F0AFFA10BD70B505460E46B5
:105700001446EE2000F0A7FAB12000F0A4FA4020E1
:1057100000F0A1FA280A00F09EFAE8B200F09BFA25
:10572000300A00F098FAF0B200F095FA200E00F07E
:1057300092FAC4F3074000F08EFAC4F3072000F099
:105740008AFAE0B200F087FAFF2000F084FAFC2029
:1057500000F081FAFF2000F07EFAFF2000F07BFAD3
:1057600070BD70B504460D46EE2000F074FAB1200D
:1057700000F071FA412000F06EFA200A00F06BFA96
:10578000E0B200F068FA280A00F065FAE8B200F02A
:1057900062FAFF2000F05FFAFC2000F05CFAFF20C4
:1057A00000F059FAFF2000F056FA70BD70B50446BB
:1057B0000D46EE2000F04FFAB12000F04CFA4220E6
:1057C00000F049FA200A00F046FAE0B200F043FA8D
:1057D000280A00F040FAE8B200F03DFAFF2000F09D
:1057E0003AFAFC2000F037FAFF2000F034FAFF20EC
:1057F00000F031FA70BD70B504460D46EE2000F0A1
:105800002AFAB12000F027FA442000F024FA200AF6
:1058100000F021FAE0B200F01EFA280A00F01BFAAC
:10582000E8B200F018FAFF2000F015FAFC2000F0B2
:1058300012FAFF2000F00FFAFF2000F00CFA70BD02
:1058400070B504460D461646EE2000F004FAB1206D
:1058500000F001FA182000F0FEF9200A00F0FBF930
:10586000E0B200F0F8F9280A00F0F5F9E8B200F02B
:10587000F2F9300A00F0EFF9F0B200F0ECF9FF2095
:1058800000F0E9F9FC2000F0E6F9FF2000F0E3F970
:10589000FF2000F0E0F970BD70B504460D461646D5
:1058A000EE2000F0D8F9B12000F0D5F9192000F071
:1058B000D2F9200A00F0CFF9E0B200F0CCF9280AC2
:1058C00000F0C9F9E8B200F0C6F9300A00F0C3F9F7
:1058D000F0B200F0C0F9FF2000F0BDF9FC2000F0AC
:1058E000BAF9FF2000F0B7F9FF2000F0B4F970BD5D
:1058F0002DE9F04104460D4617461E46EE2000F005
:10590000AAF9B12000F0A7F9132000F0A4F9200AA9
:1059100000F0A1F9E0B200F09EF9280A00F09BF92E
:10592000E8B200F098F9F8B200F095F9300A00F00A
:1059300092F9F0B200F08FF9FF2000F08CF9FC2012
:1059400000F089F9FF2000F086F9FF2000F083F9CC
:10595000BDE8F0812DE9F04706460C4615461F4686
:10596000DDE90889EE2000F076F9862000F073F971
:10597000F0B200F070F9200A00F06DF9E0B200F02A
:105980006AF9280A00F067F9E8B200F064F9F8B2A1
:1059900000F061F908F0FF0000F05DF909F0FF0088
:1059A00000F059F9FF2000F056F9FC2000F053F9FF
:1059B000FF2000F050F9FF2000F04DF9BDE8F0871E
:1059C000014600BF704700BFAD4A128802F0400296
:1059D000002AF9D0C2B2AA4B1B1D1A80704710B51D
:1059E00086B004460121052001F096FC01218803C0
:1059F00001F092FC0121480401F09BFC4FF400707F
:105A0000ADF8140018208DF8170003208DF816004B
:105A100005A99C4801F0C4F94FF48060ADF814006A
:105A200004208DF8170005A9964801F0B9F9042063
:105A3000ADF8140003208DF8160018208DF817001B
:105A400005A9904801F0ACF90820ADF81400042035
:105A50008DF8170005A98B4801F0A2F925208DF8D3
:105A6000000000208DF801008DF8020001208DF863
:105A70000300684601F0CBF826208DF800000020D6
:105A80008DF801008DF8020001208DF803006846B2
:105A900001F0BDF801940020ADF80800ADF80A004F
:105AA000ADF80C00ADF810000C20ADF80E0001A907
:105AB000754801F0D8FC012240F22551724801F0EE
:105AC0006AFD0121704801F05AFD01A96C4801F0FE
:105AD000CAFC012240F22551694801F05CFD012118
