:020000040800F2
:10000000005C002041680008310300083303000849
:10001000370300083B0300083F030008000000000E
:100020000000000000000000000000004303000882
:1000300045030008000000004703000849030008CA
:10004000013B00085B6800085B6800085B6800080B
:100050005B6800085B6800085B6800085B68000874
:100060005B6800085B6800085B6800085B68000864
:100070005B6800085B6800085B6800085B68000854
:100080005B6800085B6800085B6800085B68000844
:100090005B6800085B6800085B6800084539000879
:1000A0005B6800085B6800085B6800085B68000824
:1000B000ED07000873090008E70900085B680008FD
:1000C0005B6800085B6800085B6800085B68000804
:1000D0005B6800086F570008BB5800085B680008A1
:1000E0005B6800085B6800085B6800085B680008E4
:1000F0005B6800085B6800085B6800085B680008D4
:100100005B6800085B6800085B6800085B680008C3
:100110005B6800085B6800085B6800085B680008B3
:100120005B6800085B6800085B6800085B680008A3
:1001300000F002F800F073F80AA090E8000C824486
:100140008344AAF10107DA4501D100F068F8AFF263
:10015000090EBAE80F0013F0010F18BFFB1A43F0A5
:1001600001031847C4A10000E4A100000A444FF0B5
:10017000000C10F8013B13F0070408BF10F8014B06
:100180001D1108BF10F8015B641E05D010F8016B4B
:10019000641E01F8016BF9D113F0080F1EBF10F8AF
:1001A000014BAD1C0C1B09D16D1E58BF01F801CBD2
:1001B000FAD505E014F8016B01F8016B6D1EF9D555
:1001C0009142D6D37047000000230024002500266A
:1001D000103A28BF78C1FBD8520728BF30C148BFAA
:1001E0000B60704766290AF03E80642908F0E282BD
:1001F000782908F01B83002070471FB509F080F8AC
:1002000004000020002109F0A1FF401C60600020D4
:10021000002109F085FFE0601FBD10B510BD09F099
:1002200031FB1146FFF7E9FF00F008F809F058FB31
:1002300003B4FFF7F2FF03BC05F004FA00BF00F0BF
:10024000F4F806F093FA4FF4C06006F019FB4FF48F
:10025000E13005F006FA00F069F900F0D3F900F09A
:1002600095FA002140F2833000F039FB00F08CFB5E
:1002700002F054FC00EB80004000642190FBF1F29E
:1002800001FB1204204600F068F900F087F901F044
:1002900087FE03F03DFC4FF47A7006F0A4FA40F2BA
:1002A0005371042003F0EAFB02F007FC06F04EF95C
:1002B0004FF40061174806F044FC08B9012000E043
:1002C000002008B103F05EFA00201349086000F036
:1002D00048FD00F068FD00F0D2FC1AE00F480078FD
:1002E00001280ED100200D4908700D4908700D49F4
:1002F00008700D4908604FF496610B48001D08F026
:10030000C8FC0A480178012001F0FAF80A2006F03A
:100310006AFAE3E7000C0140400000201C000020C6
:100320005400002055000020B81A002009030020C6
:10033000704700BFFEE700BFFEE700BFFEE700BF5B
:10034000FEE7704770477047704700000CB500200B
:10035000019000906C48006840F480306A49086061
:1003600000BF6948006800F4003000900198401C0C
:100370000190009818B90198B0F5A06FF1D16248CA
:10038000006800F4003010B10120009001E000206E
:1003900000900098012843D15C48006840F01000AC
:1003A0005A4908600846006820F0030008600846C3
:1003B000006840F0020008605348406852494860B5
:1003C0000846406848600846406840F480604860DD
:1003D0000846406820F47C1048600846406840F4B5
:1003E000E81048600846006840F08070086000BF70
:1003F0004548006800F000700028F9D04248406885
:1004000020F00300404948600846406840F0020080
:10041000486000BF3C48406800F00C000828F9D153
:100420000CBD10B5FFF792FF10BD10B5364800683F
:1004300040F00100344908600846406834490840EB
:100440003149486008460068324908402E49086032
:100450000846006820F4802008600846406820F4C0
:10046000FE0048604FF41F008860FFF7DAFF4FF08E
:1004700000602949086010BD10B50021002000224D
:10048000214B5B6803F00C0121B1042906D0082937
:1004900028D107E0214B224C236027E01F4B204C42
:1004A000236023E0184B5B6803F47010164B5B6805
:1004B00003F48032022303EB904022B9194B4343EB
:1004C000174C23600DE0104B5B6803F4003323B13D
:1004D000144B4343124C236003E0104B4343104C36
:1004E000236003E00D4B0E4C236000BF00BF064BA2
:1004F0005B68C3F303130C4CE15C094B1B68CB40F6
:10050000074C236010BD0000001002400020024094
:100510000000FFF8FFFFF6FE08ED00E000127A0091
:100520000400002000093D000800002008B501215A
:10053000102006F02FFD4020ADF8000010208DF8AF
:10054000030003208DF802006946114806F066FAA0
:1005500040210F4806F011FB08BD10B504460D48B8
:1005600001880D4807F0CCFF04B9641C7CB104EB92
:10057000C400C0F561700749088008460188064834
:1005800007F0BEFF40F28331034807F0B9FF10BD0A
:1005900000100140180000200004004008B50121AF
:1005A000102006F0F7FC0121082006F0F3FC0720DC
:1005B000ADF8000010208DF8030003208DF8020034
:1005C00069460E4806F02AFA0320ADF800008DF8BF
:1005D000020048208DF803006946094806F01EFA1B
:1005E0000121064806F0C7FA0221044806F0C3FAC2
:1005F0000421024806F0BFFA08BD000000100140C7
:10060000000C014008B501211C2006F0C3FC4FF48A
:100610008050ADF8000010208DF8030003208DF805
:1006200002006946144806F0F9F94FF48051124867
:1006300006F0A1FA4FF42070ADF8000004208DF808
:10064000030003208DF8020069460C4806F0E6F925
:100650004FF44060ADF8000004208DF80300032043
:100660008DF802006946064806F0D8F94FF480512B
:10067000034806F080FA08BD000801400010014060
:10068000000C014070B50546002405E0601CC4B2B2
:10069000C82C01DD002070BD02213A4807F031F876
:1006A0000028F3D02946374806F0D8FF002405E09B
:1006B000601CC4B2C82C01DD0020ECE701213148E8
:1006C00007F01FF80028F3D02E4806F0C9FFC0B28B
:1006D000E1E700B587B00121082006F05BFC0121AD
:1006E000880306F064FC4FF46040ADF81800182051
:1006F0008DF81B0003208DF81A0006A9224806F089
:100700008DF94FF46041204806F035FA0020ADF82D
:1007100004004FF48270ADF806000020ADF8080028
:100720000220ADF80A000120ADF80C004002ADF83F
:100730000E003820ADF810000020ADF812000720A0
:10074000ADF8140001A90F4806F0B2FE01210D48D2
:1007500006F053FFFF20FFF795FF07B000BD10B56F
:100760000446084800884FF6C771084005490880CC
:1007700008460088204308800121024806F03DFF1A
:1007800010BD000000380040000C01401FB50121E1
:10079000084606F00CFC41F28830ADF8080041F63E
:1007A0001F40ADF804000020ADF80A00ADF80600C7
:1007B00001A94FF0804007F0AFF8012241218807DE
:1007C00007F021FC1C208DF8000000208DF80100AE
:1007D00002208DF8020001208DF80300684606F023
:1007E00054F80121880707F0F3FB1FBD08B500206E
:1007F00000900121880707F0B4FE00286ED0012187
:10080000880707F0BFFE03F04BF9AD48006808B950
:10081000012000E00020AA490860AA480068401CA6
:10082000A8490860A8480068401CA7490860A74874
:100830000068401CA5490860A5480068401CA44900
:100840000860A4480068401CA2490860A2480068EB
:10085000401CA1490860A1480068401C9F490860ED
:100860009F480078012810D19E480068401C9D498F
:10087000086008460068082807DD01209A490870CA
:100880000020984908609649087098480078012827
:100890000ED18C480068142801D103F0C4F88948AF
:1008A00000681E2804D900209149087005F040F81E
:1008B00090480078012811D18F480068401C8E496B
:1008C0000860084600680A2808DB002008606A46BD
:1008D000042104F094F900208649087008BD30B561
:1008E00089B005460C460121022006F060FB01217B
:1008F000112006F04FFB0121804806F060F94020EE
:10090000ADF8200018208DF8230003208DF8220078
:1009100008A97B4806F082F84021794806F02DF9B5
:10092000ADF81850ADF814400020ADF81A00ADF83D
:10093000160005A9734806F0EFFF7020ADF804001B
:100940000120ADF806000020ADF80C0001A96D48AB
:1009500007F01FF808216B4807F06AFC012169487D
:1009600007F036FB40F28331664807F0C9FD09B055
:1009700030BD10B50121634807F0F3FD18B1012126
:10098000604807F0FFFD10BD1FB50121042006F0EF
:100990000EFB4FF47A70ADF8080041F61F40ADF839
:1009A00004000020ADF80A00ADF8060001A9564881
:1009B00006F0B2FF01224121534807F024FB1E201C
:1009C0008DF8000000208DF8010002208DF8020053
:1009D00001208DF80300684605F057FF01214A48C1
:1009E00007F0F6FA1FBD10B50121474807F0B9FD21
:1009F000002864D00121444807F0C4FD4348007832
:100A0000012815D104213E4806F0B7F84048006897
:100A1000401C3F49086008460068502808DB042154
:100A2000374806F0A8F800203949086037490870AF
:100A300038480078012842D137480068401C3649C0
:100A40000860084600681E2816DB01212C4806F0C5
:100A500092F802212A4806F08EF840F283312948A4
:100A600007F04EFD01202D4908701F490870002035
:100A7000294908602749087027480068062190FB2B
:100A8000F1F201FB120068B901211D4806F073F86C
:100A900002211B4806F06FF840F28331194807F035
:100AA0002FFD0CE00121164806F067F802211448DA
:100AB00006F063F81A480188124807F021FD10BDBE
:100AC000B0012142A40200203000002000000020DC
:100AD00034000020380000203C00002044000020AA
:100AE00024000020200000201C000020F002002034
:100AF000A8020020B0020020AC020020000C1A0066
:100B00000010014000040040000800409000002058
:100B10008C00002087000020880000204C0000206E
:100B20001800002070B50446002676E06421FE48D7
:100B300008F0AFF8FD49FE480068801C095CFB4ADC
:100B4000FB480068C01C105C01EB0020001DF94947
:100B500008601046F64A12688118F6480268F6489E
:100B600008F030F8F4488078132820D1F248C07893
:100B7000E8B9F14800790D2819D1EF4840791828D3
:100B800015D1ED48807990B9EB490C72200A487272
:100B900000200875002508E0E748007DE649495D2A
:100BA0000844E5490875681CC5B2142DF4DBE1481A
:100BB0000178E14804F06BFEDF484079022803D158
:100BC000DD48807950281CD013E0DC4800680228FA
:100BD0000FD3D8480178D84804F059FE0020D749EF
:100BE0000860761C032E04DB6421CF4808F051F81E
:100BF00003E0D34800780028E7D000BF0020D049A8
:100C00000870CB480068CB4909680844C8490860A7
:100C1000C6480968405C00B900E087E700BF70BDC6
:100C200010B500246421C04808F033F80A21C5A09B
:100C300004F02DFE0020C149086017E0BF4800689D
:100C4000042813D30A21BFA004F021FE0020BB49D1
:100C50000860641C032C09DB6421B34808F019F810
:100C6000BB4A0421002003F0CAFF03E0B948007822
:100C70000028E3D000BF0020B149087010BD10B5B6
:100C800000246421A84808F004F80C21B2A004F064
:100C9000FEFD0020A9490860A9480078012803D179
:100CA0000020A749087022E019E0A4480068022843
:100CB00015D30C21A8A004F0EAFD00209F4908608C
:100CC000641C032C0BDB6421974807F0E2FFFFF75D
:100CD000A7FF9F4A0421002003F091FF03E09848FA
:100CE00000780028E1D000BF00209549087010BDB1
:100CF00010B5002464218C4807F0CBFF15219AA081
:100D000004F0C5FD00208D4908608D480078012859
:100D100003D100208A49087022E019E08748006862
:100D2000022815D3152190A004F0B1FD00208349BD
:100D30000860641C032C0BDB64217B4807F0A9FFCF
:100D4000FFF76EFF824A0421002003F058FF03E002
:100D50007B4800780028E1D000BF00207849087067
:100D600010BD10B5102186A004F091FD4FF4FA706B
:100D700005F039FD102187A004F089FD4FF4FA70C9
:100D800005F031FD102188A004F081FD4FF4FA70C8
:100D900005F029FD102189A004F079FD4FF4FA70C7
:100DA00005F021FD10BD10B50C2189A004F06FFDE8
:100DB0004FF4FA6005F017FD0C2189A004F067FDDF
:100DC0004FF4FA6005F00FFD0C2189A004F05FFDDF
:100DD0004FF4FA6005F007FD0C2189A004F057FDDF
:100DE0004FF4FA6005F0FFFC172189A004F04FFDD5
:100DF0004FF4FA6005F0F7FC17218BA004F047FDD3
:100E00004FF4FA6005F0EFFC17218DA004F03FFDD0
:100E10004FF4FA6005F0E7FC17218FA004F037FDCE
:100E20004FF4FA6005F0DFFC4FF4FA6005F0DBFCEC
:100E300010BD8F48007801280DD100208C49087022
:100E400001208C49087000208B4908608B4908609C
:100E500001208B490870704738B504460020009087
:100E60000121884805F06DFEA04205D00221854889
:100E700005F067FEA04222D10A2005F0B4FC012152
:100E8000804805F05EFEA04208D100207E4908603F
:100E90007E49086001207E49087038BD02217948EA
:100EA00005F04FFEA04208D100207A49086077493A
:100EB0000860012078490870EFE70020EDE7002086
:100EC000EBE770B58EB075480078FFF7C5FF0646B2
:100ED00072480078022823DA6C480068042804DB92
:100EE00000206D4908706A4908706D480078012833
:100EF00017D167480078002814D067480078002888
:100F000010D06148006863490968401A012809DB6C
:100F10000020614908705E4908705E490860C1E0C0
:100F20005AE273E10DE100006C1F002091000020E7
:100F30006C02002070020020D01F00203000002032
:100F4000680200205A5506000D0300C56A690000BA
:100F500059000020CC0200205A5508000D11000055
:100F600001D66A69000000005A5511000D120002F6
:100F700000000600000000000101E96A69000000AD
:100F80005A550C000D0250000701000000226A694A
:100F9000000000005A550C000D025000050005002D
:100FA00000246A69000000005A550C000D0250012F
:100FB00005C8000000E86A69000000005A550C00EE
:100FC0000D025000F0020000000C6A6900000000F1
:100FD0005A5508000D1A000001DF6A690000000080
:100FE0005A5508000D1A000101E06A69000000006E
:100FF0005A5508000D1A000202E16A69000000005B
:101000005A5508000D1A000303E26A690000000047
:101010005A5513000D180000FA000000AA00000045
:10102000D0070000626A69005A5513000D180001CC
:10103000FA000000AA000000D0070000636A6900FF
:101040005A5513000D180002FA000000AA00000013
:10105000D0070000646A69005A5513000D18000398
:10106000FA000000AA000000D0070000656A6900CD
:101070004C00002087000020880000208C00002009
:1010800090000020000C0140340000203C000020B3
:10109000560000203800002057000020810000206A
:1010A00058000020FB490860FB480068401CFA49D2
:1010B0000860084603210268002004F04CFCF64852
:1010C00003210268022004F046FCF448F4A10268FF
:1010D000F44807F05BFBF048F1A10268F24807F022
:1010E00055FB0025002408E02846691CCDB2ED49D7
:1010F000085C01A90855601CC4B20A2CF4DB2C2042
:101100008DF80E00002500240AE02846691CCDB2A7
:10111000E549095C04F10B0001AA1154601CC4B23A
:101120000A2CF2DBE1480078012804D101AAFE2153
:101130001B2002F027F80A221E21DB4801F02BF8C1
:1011400031E1DB4800780028FAD0DA48007800283E
:10115000F6D0D9480068CF490968401A0128EFDB6A
:101160000020D3490870D3490870D3490860C949A1
:101170000860CA480068401CC84908600846022147
:101180000268002004F0E7FBC44802210268084618
:1011900004F0E1FBC148C2A10268C24807F0F6FAB8
:1011A000BD48BFA10268C04807F0F0FA002500243E
:1011B00008E02846691CCDB2BA49085C01A9085567
:1011C000601CC4B20A2CF4DB2C208DF80E00002524
:1011D00000240AE02846691CCDB2B349095C04F139
:1011E0000B0001AA1154601CC4B20A2CF2DBAF48F8
:1011F0000078012804D101AAFE211B2001F0C2FFC2
:101200000A221421A74800F0C6FFCCE0AB480078C2
:10121000022895D1A7480078002860D0A44800781B
:1012200000285CD09B480068A3490968401A01283F
:1012300055DB00209E4908709E4908709E49086051
:101240009449086095480068401C94490860084625
:1012500002210268002004F07EFB9048022102680F
:10126000084604F078FB8D488DA102688D4807F090
:101270008DFA89488AA102688B4807F087FA002511
:10128000002408E02846691CCDB28649085C01A903
:101290000855601CC4B20A2CF4DB2C208DF80E001B
:1012A000002500240AE02846691CCDB27E49095C6D
:1012B00004F10B0001AA1154601CC4B20A2CF2DB29
:1012C0007A480078012804D101AAFE211B2001F0F0
:1012D00059FF0A221421734800F05DFF63E074484F
:1012E000007800285FD07348007800285BD07248EF
:1012F000006868490968401A012854DB00206C49DD
:1013000008706C4908706C4908606249086062485E
:101310000068401C604908600846032102680020FC
:1013200004F019FB5C4803210268022004F013FB5F
:101330005A485BA102685B4807F028FA564858A152
:101340000268594807F022FA0025002408E02846E0
:10135000691CCDB25349085C01A90855601CC4B290
:101360000A2CF4DB2C208DF80E00002500240AE066
:101370002846691CCDB24C49095C04F10B0001AA56
:101380001154601CC4B20A2CF2DB484800780128D2
:1013900004D101AAFE211B2001F0F4FE0A221E2125
:1013A000414800F0F8FE012E1DD10120444908708B
:1013B0000020444908604448007848B90120424967
:1013C0000870FFF75CFC01203F4908703F49087036
:1013D00000203F49087006E03E480078022802D10C
:1013E00001203A4908700EB070BDFEB504460026D3
:1013F00000250EE005EB4502374800EB82010C2288
:10140000204607F0B3FB10B90126FF20FEBD681C83
:10141000C5B23148001F0068A842EBDCFEB92E4877
:10142000001F01680068401C2B4A121F01EB41019C
:101430001060101D00EB810021680160616841604F
:10144000A16881602068009060680190A0680290A7
:101450006A46F121122001F095FE0120D6E700BF77
:10146000D4E7F0B50246002400200023CDB200BF2F
:1014700043E074B1165C86F0FF06165412F800C003
:101480001E465B1C154F07F806C06E1EF5B2002401
:1014900032E025E034000020E4020020E0020020D9
:1014A000256C64002855002032550020F0020020F1
:1014B000570000205600002038000020580000206F
:1014C00024000020200000205500002054000020AF
:1014D0004B00002081000020BC1A00203420002096
:1014E000165C992E01D1012406E012F800C01E46B8
:1014F0005B1CF84F07F806C0401C8842B9D3F0BD0A
:101500002DE9F04180460F4600240020F249087082
:10151000B8F1010F72D1F14800780128FAD1F049F1
:10152000F0480068801C085C6A2805D1ED48006816
:10153000C01C085C692807D0E94800790D287DD1D6
:10154000E74840790528FAD1E6480168E448FFF702
:1015500088FFE04800790D2871D1DE4840790528E0
:10156000FAD1DC4880790028F6D1DA48C07BD94925
:10157000097C00EB0120DC490860002506E005F14C
:101580001100D449085CD94948556D1C0C2DF6DB77
:10159000D648007800F08000D5490870D3484078DC
:1015A000D4490870072F7DD2DFE807F0040E1D290B
:1015B000378FDC00CE48007828B9CE480078042860
:1015C00001DAFFF736FCDBE0C8480078C22809D111
:1015D000C648C07A052803D0C448C07A092801D17A
:1015E000FFF727FCCCE0C1480078C22805D1BF48EE
:1015F000C07A042801D1FFF71CFCC1E01BE1BC4804
:10160000007848B9BB480078042805DA0120BA49B7
:101610000870B648FFF7E9FEB2E0B4480078C22887
:1016200052D1B248C07A052803D0B048C07A092800
:101630004AD10120B0490870052201E0EEE0A0E0A7
:101640002046611CCCB2AD490A54A7480078401D21
:10165000C2B22046611CCCB2A8490A54F1222046ED
:10166000611CCCB2A5490A54002507E09F48425DA1
:101670002046611CCCB2A1490A546D1C9A480068EE
:101680008542F3D398480088C01C81B29B4801F082
:1016900069FA064632122046611CCCB297490A54B8
:1016A000204600E06BE0611CCCB294490E54062247
:1016B0002046611CCCB291490A548B480078801DA9
:1016C000C1B28E4801F076F85AE08248007E00F000
:1016D0000400042845D101208749087005222046CE
:1016E000611CCCB285490A547F480078401DC2B2C3
:1016F0002046611CCCB281490A54F1222046611C6B
:10170000CCB27E490A54002507E07848425D204665
:10171000611CCCB279490A546D1C7348006885423B
:10172000F3D371480088C01C81B2744801F01AFAE2
:10173000064632122046611CCCB270490A5420463B
:10174000611CCCB26D490E5406222046611CCCB2FD
:101750006A490A5464480078801DC1B2674801F0A4
:1017600029F80DE061480078012807D16449087024
:10177000FFF75FFB4FF4FA6005F035F800E000BFBB
:1017800000BF544800780D2848D1524840780628B8
:1017900044D159480078012840D1002056490870AA
:1017A00005222046611CCCB254490A54112221461C
:1017B000601CC4B251484254F2222046611CCCB293
:1017C0004E490A54002509E0424905F10E000A5C21
:1017D0002046611CCCB249490A546D1C0C2DF3DB28
:1017E0000F21464801F0BEF9064632122046611C20
:1017F000CCB242490A542046611CCCB23F490E5437
:1018000006222046611CCCB23C490A5412213B48B6
:1018100000F0F0FF4FF4FA7004F0E5FF00203949C2
:1018200008702E49087064212D4807F032FA6421AF
:10183000284807F02EFABDE8F08110B50024642195
:10184000274807F026FA0C212FA004F020F80020EA
:101850003149086021480078012803D100201F4940
:10186000087020E017E02C480068022813D30C21F0
:101870002AA004F00CF8002027490860641C032CFF
:1018800009DB6421164807F004FA284A0B210720D7
:1018900003F0B5F903E0114800780028E3D000BF59
:1018A00000200E49087010BD10B5002464210C48BA
:1018B00007F0EFF90C211EA003F0E9FF0020164904
:1018C00008600648007801283AD1002003490870D2
:1018D00057E000003420002086000020680200202D
:1018E0006C1F0020C40200205000002024030020B0
:1018F0004800002049000020830000203003002021
:101900004C000020BC0200205A5508000D1A0002AD
:1019100000E06A6900000000300000205C7835417A
:101920005508000D1A000200E06A69005900002005
:101930005A5508000D1A000100DF6A690000000016
:1019400017E0FC480068022813D30C21FAA003F02A
:101950009EFF0020F7490860641C032C09DB64210A
:10196000F94807F096F9F94A0B21072003F047F9E7
:1019700003E0F74800780028E3D000BF0020F449D6
:10198000087010BD10B500246421EF4807F081F9FC
:101990000C21F0A003F07BFF0020E6490860EC4832
:1019A0000078012803D10020E949087020E017E001
:1019B000E0480068022813D30C21EAA003F067FF77
:1019C0000020DC490860641C032C09DB6421DE482C
:1019D00007F05FF9DD4A0B21072003F010F903E05F
:1019E000DB4800780028E3D000BF0020D849087009
:1019F00010BD10B500246421D34807F04AF90C212A
:101A0000DCA003F044FF0020CA490860D0480078F9
:101A1000012803D10020CE49087020E017E0C54816
:101A20000068022813D30C21D6A003F030FF002059
:101A3000C0490860641C032C09DB6421C24807F01C
:101A400028F9C24A0B21072003F0D9F803E0C04867
:101A500000780028E3D000BF0020BD49087010BD09
:101A600010B500246421B84807F013F90C21C9A06F
:101A700003F00DFF0020AF490860B5480078012849
:101A800003D10020B249087020E017E0A94800689F
:101A9000022813D30C21C3A003F0F9FE0020A549AE
:101AA0000860641C032C09DB6421A74807F0F1F8E7
:101AB000A64A0B21072003F0A2F803E0A44800780F
:101AC0000028E3D000BF0020A149087010BD10B568
:101AD000002464219C4807F0DCF80C21B5A003F039
:101AE000D6FE00209349086099480078012803D168
:101AF00000209749087020E017E08E48006802280F
:101B000013D30C21AFA003F0C2FE00208949086066
:101B1000641C032C09DB64218B4807F0BAF88B4A5C
:101B20000B21072003F06BF803E0894800780028B8
:101B3000E3D000BF00208649087010BD10B5002416
:101B40006421814807F0A5F80C21AFF66C3003F052
:101B50009EFE0020774908607D480078012803D167
:101B600000207B49087020E017E0724800680228D6
:101B700013D30C2197A003F08AFE00206D49086062
:101B8000641C032C09DB64216F4807F082F86F4A5C
:101B90000B21072003F033F803E06D48007800289C
:101BA000E3D000BF00206A49087010BD10B50024C2
:101BB0006421654807F06DF80C21AFF6EC3003F0B6
:101BC00066FE00205B49086061480078012803D167
:101BD00000205F49087021E018E05648006802289C
:101BE00014D30C21AFF6184003F051FE00205149E8
:101BF0000860641C032C09DB6421534807F049F892
:101C0000524A0B21072002F0FAFF03E05048007807
:101C10000028E2D000BF00204D49087010BD10B56B
:101C20000446012C06D0022C4BD0032C7ED0042C71
:101C30007DD131E1FFF7BAFFFFF736FEFFF7FDFD7B
:101C4000FFF70EFFFFF71BF8642004F0CCFD002027
:101C50006449086032E03E480078012823D13A48C0
:101C600000780D281CD1384840780E280AD1002071
:101C7000374908705C4A0221072002F0C0FF03F0D8
:101C800057FE1CE030484078012809D10020304937
:101C90000870564A0221072002F0B1FF03F048FE07
:101CA00000202B4908704F4800680A2806DD274AA3
:101CB0000B21072002F0A3FF03F03AFECBE700BFA1
:101CC0002FE1FFF73BFFFFF75DFEFFF7B6FDFFF7E4
:101CD000C7FEFEF7D4FF00204249086095E01C488B
:101CE0000078012824D1184800780D281CD1164806
:101CF00040780E280AD10020154908703A4A03217D
:101D0000072002F07CFF03F013FE7FE00E484078CE
:101D1000012809D100200E490870344A0321072008
:101D200002F06DFF03F004FE002061E070E0F7E0D8
:101D300060E00000300000205C7835415508000D5F
:101D40001A000100DF6A69006C1F002059000020A2
:101D5000680200205A5508000D1A000000DE6A696A
:101D6000000000005C7835415508000D1A000000A5
:101D7000DE6A69005A5508000D1A000301E26A691B
:101D8000000000005C7835415508000D1A00030181
:101D9000E26A69005A5508000D1A000300E16A69F9
:101DA000000000005C7835415508000D1A00030062
:101DB000E16A69005A5508000D1A000201E16A69DA
:101DC000000000005C7835415508000D1A00020142
:101DD000E16A69005C7835415508000D1A0001017F
:101DE000E06A6900440000206400002069000020CF
:101DF00055490870554800680A2806DD544A0B21E9
:101E0000072002F0FCFE03F093FD68E700BF88E0C6
:101E1000FFF75DFEFFF7B6FDFFF746FDFFF720FE7B
:101E2000FEF72DFF00204949086032E0464800785F
:101E3000012823D1474800780D281CD14548407817
:101E40000E280AD1002040490870434A0421072087
:101E500002F0D5FE03F06CFD1CE03E4840780128FE
:101E600009D10020384908703C4A0421072002F0BB
:101E7000C6FE03F05DFD002033490870334800685A
:101E80000A2806DD324A0B21072002F0B8FE03F0D3
:101E90004FFDCBE700BF44E0FFF7ABFDFFF772FD5E
:101EA000FFF702FDFFF7C9FCFEF7E9FE0020274916
:101EB000086032E024480078012823D125480078C2
:101EC0000D281CD1234840780E280AD100201E4935
:101ED0000870214A0521072002F091FE03F028FD39
:101EE0001CE01C484078012809D1002016490870E0
:101EF0001A4A0521072002F082FE03F019FD002096
:101F000011490870114800680A2806DD104A0B21A3
:101F1000072002F074FE03F00BFDCBE700BF00E0EA
:101F200000BF00BF10BDF0B502460D4600201446AC
:101F3000002305E014F8017B3E18F0B25E1CF3B2FA
:101F4000AB42F7DBF0BD0000680200204400002037
:101F5000590000206C1F0020640000206900002050
:101F600010B500240020D14908609020FEF78AFBBC
:101F70000020FEF787FB0020FEF784FB0020FEF721
:101F800081FBFF20FEF77EFB44EA0024FF20FEF7E2
:101F900079FB04430120C649C1F8B001204610BDB9
:101FA00008B50121082004F0F5FF4FF48050ADF88A
:101FB000000010208DF8030003208DF80200694610
:101FC000BC4804F02BFD4FF48051BA4804F0D3FD17
:101FD0000120B6490860FEF77CFB0020FEF7BFFB3E
:101FE000FFF7BEFFB449088008BD10B500240020EB
:101FF000AE4908600520FEF745FBFF20FEF742FBD7
:1020000004460120AA49C1F8B001204610BD10B510
:1020100004460020A54908600120FEF733FB204656
:10202000FEF730FB0120A249C1F8B00110BD10B588
:1020300000209E4908600620FEF724FB01209C49F1
:10204000C1F8B00110BD10B5002098490860042007
:10205000FEF718FB01209649C1F8B00110BD2DE92B
:10206000F04106460C4617460020904908600320C0
:10207000FEF708FBC4F30740FEF704FBC4F3072098
:10208000FEF700FBE0B2FEF7FDFA002505E0FF20B9
:10209000FEF7F8FA7055681C85B2BD42F7DB0120E7
:1020A00082490860BDE8F08110B500BFFFF79DFFD1
:1020B00000F001000028F9D110BD2DE9F0410646DD
:1020C0000C461746FFF7B3FF00207849086002204E
:1020D000FEF7D8FAC4F30740FEF7D4FAC4F307209A
:1020E000FEF7D0FAE0B2FEF7CDFA002504E0705D0D
:1020F000FEF7C8FA681C85B2BD42F8DB01206B49C7
:102100000860FFF7D1FFBDE8F0812DE9F0410746F7
:102110000E461446F0B2C0F58075AC4200DC254690
:1021200012E02A4631463846FFF7C7FFAC4200D1DD
:102130000BE02F442E44601B84B2B4F5807F02DD97
:102140004FF4807500E02546EBE700BFBDE8F08165
:1021500010B50446214659A006F00CFB2403FFF7F6
:1021600066FFFFF7A1FF0020504908602020FEF71E
:1021700089FAC4F30740FEF785FAC4F30720FEF797
:1021800081FAE0B2FEF77EFA01204949C1F8B001B8
:10219000FFF78AFF10BD2DE9F05F81460F46164616
:1021A000DFF820B14FEA1738C7F30B0ACAF580549D
:1021B000A64200DC344644E04FEA08314FF4805236
:1021C0005846FFF74CFF002508E00AEB05001BF816
:1021D0000000FF2800D003E0681C85B2A542F4DBB4
:1021E00000BFA54216DA4046FFF7B2FF002507E020
:1021F00019F8050005EB0A010BF80100681C85B20F
:10220000A542F5DB4FEA08314FF480525846FFF7FC
:102210007CFF04E0224639464846FFF776FFA64297
:1022200000D10FE008F101084FF0000AA144274453
:10223000301B86B2B6F5805F02DD4FF4805400E0BB
:102240003446B9E700BFBDE8F09F10B5FFF7EFFED9
:10225000FFF72AFF002015490860C720FEF712FA91
:1022600001201349C1F8B001FFF71EFF10BD10B5E2
:1022700000200E490860B920FEF704FA01200C493D
:10228000C1F8B001032004F08AFA10BD10B5002097
:1022900006490860AB20FEF7F5F901200449C1F8B2
:1022A000B001032004F07BFA10BD0000B081214290
:1022B00000802142000C01407402002066653A252E
:1022C000780D0A009820002010B504462146FE48EB
:1022D00005F0C4F900BF0221FB4805F012FA0028FE
:1022E000F9D010BD70B504462546E11704EB116125
:1022F000C1F30720FFF7E8FFE0B2FFF7E5FF70BD8D
:1023000070B504460D4616461021F04804F035FC21
:102310002846FFF7E7FF082101EB4411C9B241F05D
:102320000500FFF7D1FF3046FFF7CEFF1021E74849
:1023300004F021FC70BD70B504460D461021E34841
:1023400004F01BFC2846FFF7CDFF082101EB4411E8
:10235000C9B241F00100FFF7B7FFDB4805F080F993
:10236000C6B20020FFF7B0FFD74805F079F9C6B232
:102370001021D64804F0FFFB304670BD10B504466E
:10238000022200212046FFF7BBFF01221146204612
:10239000FFF7B6FF052004F026FA03212046FFF7D9
:1023A000CAFF222806D0102201212046FFF7A8FFED
:1023B000002010BDFF20FCE710B5044601220021DB
:1023C0002046FFF79DFF012211462046FFF798FFA8
:1023D000052004F008FA03212046FFF7ACFF13287C
:1023E00006D0102201212046FFF78AFF002010BDF1
:1023F000042201212046FFF783FFFF20F7E710B5F5
:102400000446012200212046FFF77AFF01221146EF
:102410002046FFF775FF052004F0E5F9032120466B
:10242000FFF789FF132806D0102201212046FFF76D
:1024300067FF002010BD022201212046FFF760FF48
:10244000052004F0D0F903212046FFF774FF14287B
:1024500006D0102201212046FFF752FF0020E9E7B5
:10246000FF20E7E710B59A48007810BB994800783C
:1024700060B90020FFF7C3FFFF2803D10120944972
:10248000087023E00020924908701FE0914800780E
:1024900001280FD10020FFF78FFFFF2806D1002071
:1024A0008D49086001208A4908700FE000208849A2
:1024B00008700BE00020FFF761FFFF2803D1032025
:1024C0008349087002E00020814908708348007841
:1024D00038BB8348007860B90120FFF790FFFF28E0
:1024E00003D101207D4908701FE000207B4908705E
:1024F0001BE07B48007801280BD1FFF75DFFFF2828
:1025000003D10120754908700FE00020734908705D
:102510000BE00120FFF732FFFF2803D103206F49B2
:10252000087002E000206D49087010BD70B50546C6
:102530000E4614461021654804F01FFB3046FFF795
:10254000D1FE082101EB4511C9B241F00700FFF7A8
:10255000BBFE14F8010BFFF7B7FE14F8010BFFF7F1
:10256000B3FE14F8010BFFF7AFFE14F8010BFFF7F1
:10257000ABFE1021554804F0FEFA70BD70B504465C
:102580000D4616461021514804F0F7FA2846FFF789
:10259000A9FE082101EB4411C9B241F00600FFF782
:1025A00093FE3046FFF79EFE1021484804F0E3FA00
:1025B00070BD10B5044640F2B45212212046FFF718
:1025C000DDFF082C2FD2DFE804F0041628292A2B7F
:1025D0002C2D4448028804212046FFF7CFFF4248B3
:1025E000028810212046FFF7C9FF404A0C212046EF
:1025F000FFF79CFF18E03B48028804212046FFF7C4
:10260000BDFF3B48028810212046FFF7B7FF374A3D
:102610000C212046FFF78AFF06E005E004E003E016
:1026200002E001E000E000BF00BF10BD70B505464C
:102630000E461021254804F0A0FA3046FFF752FE5E
:10264000082101EB4511C9B241F00200FFF73CFE41
:102650001D4805F005F804460020FFF735FE1A482E
:1026600004F0FEFF04460020FFF72EFE4FF6FF7039
:1026700000EA0424144804F0F3FF204484B210213B
:10268000124804F078FA204670BD2DE9F04707465D
:102690000D46904600213846FFF74DFE00F00F0032
:1026A00022280AD0134A0C213846FFF73FFF0E4874
:1026B000028810213846FFF761FF24213846FFF7D2
:1026C000B5FF0646B14617E0003001400008014062
:1026D0009A02002098020020A40200209B02002001
:1026E000990200208A020020960200208C0200201D
:1026F0009002002092020020C6F30A061021F8483A
:1027000004F03BFA3046FFF7EDFD102101EB4711D5
:10271000C9B241F00400FFF7D7FD06EB0800B0F5A1
:10272000006F0ADA002405E015F8010BFFF7CCFD75
:10273000601C84B24445F7DB28E0C6F5006086B231
:10274000002405E015F8010BFFF7BEFD601C84B204
:10275000B442F7DB1021E24804F00DFA1021E04802
:1027600004F00BFA0020FFF7BDFD102101EB47112B
:10277000C9B241F00400FFF7A7FD05E015F8010B11
:10278000FFF7A2FD601C84B24445F7DB1021D4485A
:1027900004F0F1F909EB08001FFA80F94A462421F8
:1027A0003846FFF7EBFE202201213846FFF7A8FD4F
:1027B000BDE8F08770B504460D46CA480078032886
:1027C00011D1C948007820F00200C74908702A4694
:1027D0002146C64806F0F6F92A46C4490020FFF70C
:1027E00054FF012070BD0020FFF7E3FEFFF73AFE23
:1027F0000020F7E770B504460D46BD480078032871
:1028000011D1BC48007820F00200BA4908702A466D
:102810002146B94806F0D6F92A46B7490120FFF704
:1028200034FF012070BD0120FFF7C3FEFFF71AFE41
:102830000020F7E770B505460C461021A84804F0C3
:102840009CF92846FFF74EFD0520FFF73DFD204689
:10285000FFF73AFD1021A24804F08DF970BD70B564
:1028600005460C4610219E4804F087F92846FFF7DC
:1028700039FD0620FFF728FD2046FFF733FD102124
:10288000974804F078F970BD2DE9F04107460C46F1
:1028900015461021924804F070F93846FFF722FDE2
:1028A0000420FFF711FD002605E014F8010BFFF7E7
:1028B0000BFD701C86B2AE42F7DB1021884804F095
:1028C0005AF9BDE8F08110B5002480210020FFF7FF
:1028D000B1FF0A2003F087FF042288490120FFF797
:1028E000D3FF042286490520FFF7CEFF0622854943
:1028F0000920FFF7C9FF042283490F20FFF7C4FF17
:1029000000BF0BE002221E212046FFF7F9FC022245
:102910001F212046FFF7F4FC601CC4B2082CF1DB39
:102920004FF4FA611920FFF79AFF08211B20FFF7E7
:1029300081FFC0211620FFF77DFF01211820FFF73E
:1029400079FF1F222C210020FFF7DAFC01222F2122
:102950000020FFF7D5FC10BD08B517208DF800004A
:1029600001208DF8010002208DF8020001208DF871
:102970000300684603F089FF08BD10B54FF40071ED
:10298000624804F0FAF8322003F02DFF4FF4007192
:102990005E4804F0F0F8C82003F025FF10BD0120C8
:1029A0005B49087002205B490870704700B587B02A
:1029B000012141F20D0004F0EDFAE020ADF818001D
:1029C00003208DF81A0018208DF81B0006A9444832
:1029D00004F024F8E021424804F0CDF81020ADF8CE
:1029E000180003208DF81A0010208DF81B0006A98E
:1029F0003B4804F013F81021394804F0BCF80020DB
:102A0000ADF804004FF48270ADF806000020ADF878
:102A10000800ADF80A00ADF80C004FF40070ADF8F6
:102A20000E000020ADF81000ADF812000720ADF840
:102A3000140001A9384804F03BFD0121364804F098
:102A4000DCFD07B000BD0EB501211C2004F0A2FA88
:102A50004FF40070ADF8080001208DF80A00102036
:102A60008DF80B0002A9294803F0D8FF4FF400713C
:102A7000264804F082F84FF48070ADF80800032077
:102A80008DF80A0048208DF80B0002A91F4803F0BA
:102A9000C5FF0821012004F0D7F84FF480700090A2
:102AA00000208DF804000C208DF8050001208DF821
:102AB0000600684605F078FD0EBD10B5FFF7C3FFB0
:102AC000FFF774FFFFF76BFFFFF757FFFFF744FFB8
:102AD000FFF7F9FE0020FFF76CFDFFF7C3FC10BD08
:102AE000000801409A0200209C0200209838002033
:102AF0009B0200209D0200209848002086020020B2
:102B000082020020780200207E020020000C01409A
:102B100098020020990200200030014010B50024E6
:102B20008021FE4804F00DF808B9012000E00020E3
:102B30002044C4B24FF48061F94804F002F808B1AF
:102B4000002000E002202044C4B24FF40071F3489A
:102B500003F0F7FF08B1002000E004202044C4B2D5
:102B6000204610BD30B502460B464FF6FF700021DF
:102B700012E0555C684000240AE000F0010525B130
:102B800048F2084585EA600000E04010651CACB2E0
:102B9000082CF2DB4D1CA9B29942EADB30BD2DE9CD
:102BA000F043ADF5497D0546884691460024F02D59
:102BB00000DDF02505222046611CCCB20DF8002076
:102BC000681EC2B22046611CCCB20DF8002020461F
:102BD000611CCCB20DF80080002607E019F8062031
:102BE0002046611CCCB20DF80020761CA81FB04214
:102BF000F4DC281F81B20DF10100FFF7B3FF074697
:102C00003A122046611CCCB20DF80020FAB22046E0
:102C1000611CCCB20DF8002006222046611CCCB20B
:102C20000DF8002029466846FFF7E4FD0DF5497DC3
:102C3000BDE8F0832DE9F04F8FB006460F46002522
:102C400029466D1C705C05287ED12846691CCDB2D2
:102C5000305CB44908702846691CCDB2305CB2497A
:102C60000870002407E02846691CCDB2305C02A938
:102C70000855601CC4B2B81FA042F4DC2846691C89
:102C8000CDB2305C000201902846691CCDB2315CA7
:102C90000198084480B201904FF0060AA2480078DB
:102CA000F62871D010DCF22862D006DCE1286CD066
:102CB000E2286BD0F1286AD10FE0F3286AD0F4281B
:102CC00077D0F528F7D181E0F73808285FD2DFE820
:102CD00000F0A3BCCEE0FDFC5EFB94480078A0B3FE
:102CE0004FF0000BD84617E04FF000090FE008EB5B
:102CF000C80000EB08108E4901EB400010F80920D5
:102D000058460BF1010B8B490A5409F10109B9F13D
:102D10000D0FECDB08F10108844800788045E3DB07
:102D20008249097801EB810202EBC101891DC8B219
:102D3000804A7D490978FFF732FF00207B490870FF
:102D400041F288317A4801E089E107E005F07FFF30
:102D500040F28531774805F07AFF08E00220764995
:102D600008700A46704801783846FFF718FF75E189
:102D7000FEF75FF80220704908700A466A48017839
:102D80003846FFF70CFF69E12DE030E14AE164E1EC
:102D900000E00EE002206849087002AA0421002029
:102DA00001F02DFF644A604801783846FFF7F7FECE
:102DB00054E1624862A10268624805F0E7FC614A9A
:102DC000594801781020FFF7EAFE47E15E485CA110
:102DD00002685E4805F0DAFC5C4A5348017810202E
:102DE000FFF7DDFE3AE19DF80800594908709DF8AB
:102DF000090048709DF80A0088709DF80B00C870A3
:102E00000A2232215248FFF7C6F94B4A4648017858
:102E10000720FFF7C4FE21E19DF808004D49087026
:102E20009DF8090048709DF80A0088709DF80B0015
:102E3000C8700A2250214748FFF7ADF93E4A3A4888
:102E400001780720FFF7ABFE08E19DF80800424932
:102E5000087042490870022228213F48FFF79BF979
:102E6000354A314801783846FFF799FEF6E09DF87B
:102E700008003B4908700A2200213948FFF78BF906
:102E800002AA294801783846FFF789FE02F050FD72
:102E9000E4E09DF80800334908700846007864288B
:102EA00001DD322008702F4802780221042001F051
:102EB00003FF2C490878FDF750FB0A2211462948E8
:102EC000FFF769F902AA02E05BE057E005E0164867
:102ED00001783846FFF763FEC0E01D4800788DF8A2
:102EE00008001B4840788DF80900194880788DF853
:102EF0000A001748C0788DF80B0000208DF80C00F0
:102F0000144800788DF80D00124840788DF80E00B6
:102F1000104880788DF80F000E4825E00010014021
:102F2000000C0140A0020020A1020020840000202B
:102F30002D070020A8030020AA020020E0020020A4
:102F4000256C640028550020E40200203255002042
:102F5000505500206E550020F1020020090300208A
:102F6000145500201E550020C0788DF8100002AACC
:102F7000FD4801780F20FFF712FE6FE0FDF750FECD
:102F80006CE0FA48AFF248010268F94805F0FEFB30
:102F9000F848AFF254010268F74805F0F7FB002546
:102FA000002408E02846691CCDB2F149085C02A95A
:102FB0000855601CC4B20A2CF4DB2C208DF81200DA
:102FC000002500240AE02846691CCDB2EA49095CC4
:102FD00004F10B0002AA1154601CC4B20A2CF2DBEB
:102FE00002AAE14801781B20FFF7D9FD36E0002056
:102FF000E249087041F28831E14805F028FE0221DB
:10300000E04803F0BAFD4FF4FA7003F0ECFB022144
:10301000DC4803F0B0FDDC4AD34801783846FFF7BE
:10302000BEFD1BE00020D549087041F28831D4482C
:1030300005F00DFE0421D34803F09FFD4FF4FA7014
:1030400003F0D1FB0421CF4803F095FDCE4AC648DA
:1030500001783846FFF7A3FD00E000BF00BF0FB0C6
:10306000BDE8F08F2DE9F04780460D462621404609
:10307000FFF7DCFA064616B90020BDE8F08740F2FB
:10308000B450864200DD064628214046FFF7CEFABE
:103090000746B946C7F30A071021BC4803F06DFD87
:1030A0003846FFF71FF9182101EB4811C8B2FFF7A6
:1030B0000BF9B74804F0D4FA00F0FF0AB819B0F5DC
:1030C000006F11DA00240CE00020FFF7FDF8B04893
:1030D00004F0C6FA00F0FF0A85F800A06D1C601C21
:1030E00084B2B442F0DB39E0C7F5006087B2002457
:1030F0000CE00020FFF7E8F8A54804F0B1FA00F072
:10310000FF0A85F800A06D1C601C84B2BC42F0DB95
:1031100010219E4803F02FFD10219C4803F02DFD47
:103120000020FFF7DFF8182101EB4811C8B2FFF7C4
:10313000CBF8974804F094FA00F0FF0A0CE0002066
:10314000FFF7C2F8924804F08BFA00F0FF0A85F806
:1031500000A06D1C601C84B2B442F0DB10218B48CF
:1031600003F009FD09EB06001FFA80F94A46282101
:103170004046FFF703FA402201214046FFF7C0F81E
:1031800030467AE72DE9F043ADF2044D0546884616
:103190009146002405222146641C01A84254681E61
:1031A000C2B22146641C01A842542146641C00F8A6
:1031B0000180002707E019F807202046611CCCB2E7
:1031C00001A90A547F1CA81FB842F4DC281F81B251
:1031D0000DF10500FFF7C6FC064632122046611CC1
:1031E000CCB201A90A542046611CCCB201A90E54EC
:1031F00006222046611CCCB201A90A54294601A826
:10320000FFF7D8FA0DF2044DBDE8F0832DE9F04345
:103210008DB006460F4600253421684605F039FD7D
:1032200029466D1C705C05287AD12846691CCDB2F0
:10323000305C584908702846691CCDB2305C4A4958
:103240000870002407E02846691CCDB2305C0DF8F8
:103250000400601CC4B2B81FA042F4DC2846691CFC
:10326000CDB2305C4FEA00292846691CCDB2305CF3
:1032700048441FFA80F94FF006083B480078E138CF
:103280001E2870D2DFE800F0FCFBFAF9F8F7F6F53B
:103290006F6F6F6F6F6F6F6F0F101C303E4D6093CD
:1032A000A9BBE1F46FF32CE2FDF7C3FD0220364920
:1032B00008700A462C4801783846FFF763FF20E281
:1032C0000220314908700120334908700020334939
:1032D00008606A46042101F092FC2B4A22480178DA
:1032E0003846FFF74FFF0CE22048AFF2AC310268DE
:1032F0001F4805F04BFA1E4A1B4801781020FFF7C3
:1033000041FFFEE11B48AFF2C83102681A4805F0E0
:103310003DFA194A144801781020FFF733FFF0E115
:10332000F0E1322269461E4805F04CFC0A223221A7
:103330001B48FEF730FF144A0B4801780720FFF7BF
:1033400021FF02F0F5FADCE132226946154805F06A
:1033500039FC0A2250211348FEF71DFF0A4A024891
:103360000178072020E0CBE1A1020020E00200204C
:1033700028550020E402002032550020840000205F
:103380002D07002000100140AA0200200008014083
:1033900000300140A0020020B0020020AC0200205A
:1033A000505500206E550020FFF7ECFEA9E19DF876
:1033B0000000FD490870FD4908700846007803F0D8
:1033C00065F802222821F848FEF7E5FEF84AF94898
:1033D00001783846FFF7D6FE93E19DF80000F649E4
:1033E00008700A220021F448FEF7D5FEF04AF148A1
:1033F00001783846FFF7C6FE02F09AFA81E19DF89F
:103400000000EE49087008460078642801DD32208B
:103410000870EA4802780221042001F04DFCE748D8
:1034200002780321042001F07BFCE4490878FDF7D1
:1034300094F80A221146E148FEF7ADFEDC4ADD4869
:1034400001783846FFF79EFE5BE1DD4800788DF895
:103450000000DB4840788DF80100D94880788DF86D
:103460000200D748C0788DF80300002009E024E06E
:1034700020E041E11FE103E1E9E0C0E089E06DE027
:1034800051E08DF80400CF4800788DF80500CD4854
:1034900040788DF80600CB4880788DF80700C94841
:1034A000C0788DF808006A46C24801780F20FFF7FF
:1034B00069FE26E1FDF7B4FB23E1C348AFF280517A
:1034C0000268C24805F062F9C148AFF28C51026847
:1034D000C04805F05BF90025002408E02846691C77
:1034E000CDB2BA49085C0DF80400601CC4B20A2CC5
:1034F000F4DB2C208DF80A00002500240AE0284681
:10350000691CCDB2B349095C04F10B000DF8001041
:10351000601CC4B20A2CF2DB6A46A64801781B2064
:10352000FFF730FEEDE00020AB49087041F2883132
:10353000AA4805F08CFB0221A94803F01EFB4FF4BA
:10354000FA7003F050F90221A54803F014FB984AE1
:10355000984801783846FFF715FED2E000209E49D2
:10356000087041F288319D4805F071FB04219C48A8
:1035700003F003FB4FF4FA7003F035F90421984887
:1035800003F0F9FA8A4A8B4801783846FFF7FAFDCA
:10359000B7E000208E4908608B49086000220221B4
:1035A000084602F0D8F900220321022002F0D3F9E4
:1035B00000220221104602F0CEF90022032110461B
:1035C00002F0C9F90022AFF28861804805F0DEF808
:1035D0000A2214217D48FEF7DEFD0022AFF2A06131
:1035E0007C4805F0D3F80A221E217A48FEF7D3FD65
:1035F0006F4A704801780720FFF7C4FD81E0794ADF
:10360000AFF2C461784805F0EDF9764800780128FA
:1036100003D102207349087006E07248007802283E
:1036200002D101206F4908706E480278AFF2F06154
:103630006D4805F0ABF802226E216B48FEF7ABFD3A
:103640005B4A5C4801780720FFF79CFD59E0322275
:103650006946664805F0B6FAB81F654908700A223F
:103660008C216248FEF797FD012296216048FEF703
:1036700092FD4F4A4F4801780720FFF783FD40E055
:103680005C4AAFF24471684605F0ACF95948AFF2B4
:1036900050710268584805F079F80A22822156488C
:1036A000FEF779FD424A434801780720FFF76AFD9B
:1036B00002F03EF925E0514AAFF27C71684605F010
:1036C00091F94E4811210268082002F044F94B4854
:1036D000AFF2947102684A4805F058F80A225A215C
:1036E0004748FEF758FD324A324801780720FFF775
:1036F00049FD02F01DF904E000204249086000E0A5
:1037000000BF00BF0DB0BDE8F0832DE9F0410646D3
:10371000002746B93C493046FFF7A4FC0546E9B20C
:103720003948FFF773FD012E29D138493046FFF79C
:1037300099FC0546002407E03846791CCFB233498E
:10374000085C33490855641C042CF5DB3846791CA9
:10375000CFB22E49085C00022E4908803846791CF9
:10376000CFB22A49085C2B490988084429490880B6
:10377000A5F10800C1B225480830FFF75BFA2846DA
:10378000BDE8F08108B517208DF8000001208DF804
:10379000010002208DF8020000208DF80300684629
:1037A00003F073F808BD0000F102002009030020B7
:1037B000AA020020A1020020145500201E5500205E
:1037C000505500206E550020E002002028550020B2
:1037D000E402002032550020840000202D07002044
:1037E0000010014058000020F302002096550020F0
:1037F00008030020000300208C550020FC0200205C
:1038000078550020A4020020983000209840002025
:10381000920200209602002070B5044610218F48C5
:1038200003F0ABF92046FEF75DFD0120FEF74CFDED
:103830008B4803F015FFC5B20020FEF745FD884810
:1038400003F00EFFC5B21021844803F094F9284616
:1038500070BD70B500BF0020824908701520FFF7C9
:10386000DBFF054605F0F0011520FEF7E3FF17200A
:10387000FFF7D2FF054605F0010000285CD00221C9
:103880000020FEF758FD0446224602210020FEF7E4
:1038900037FD04F0010048B17348007840F00200A1
:1038A000714908704FF4FA7002F09DFF04F00200B5
:1038B00080B1102201210020FEF722FD0020FEF73A
:1038C00078FE002068490870FEF7CCFD4FF4FA70CE
:1038D00002F089FF04F0100028B16448007840F03D
:1038E00002006249087004F0040070B15F4800787B
:1038F00040F001005D4908700020FFF706FF5B48BB
:10390000007820F001005949087004F0080098B1CF
:10391000102201210020FEF7F3FC0020FEF749FEF3
:103920004FF4FA7002F05FFF2E20FFF775FF0020C2
:103930004D490870FEF796FD1720FFF76DFF00B1A7
:1039400089E770BD10B54FF4807004F093FE40B16C
:103950004FF4807004F09FFE012042490870FFF789
:1039600078FF10BD38B542480078401CC0B28DF8D1
:1039700000003F484078401CC0B28DF801003C4830
:103980008078401CC0B28DF802003948C078401CD5
:10399000C0B28DF803006A460C210020FEF7C6FD78
:1039A000022200210846FEF7ABFC0122114600204E
:1039B000FEF7A6FC052002F016FF03210020FEF70B
:1039C000BAFC132806D0102201210020FEF798FC33
:1039D000002038BD042201210020FEF791FC00BF29
:1039E000002402210020FEF7A6FC044624B1224652
:1039F00002210020FEF784FC052002F0F4FE04F012
:103A00000800082801D10020E3E706210020FEF786
:103A100092FCFF2806D0102201210020FEF770FC46
:103A2000FF20D6E7DCE71CB50020124908701248D9
:103A300000788DF80000104840788DF801000E489D
:103A400080788DF802000C48C0788DF803006A4633
:103A5000E8210A20FFF796FB1CBD0000000801408A
:103A6000003001409E0200209A0200209C020020AB
:103A70007E020020A80200205055002070B50546A7
:103A80000C4645F2555004F053FE284604F053FE10
:103A9000204604F053FE04F054FE04F057FE70BDBF
:103AA00010B504F04EFE10BD08B500208DF80000E2
:103AB00002208DF8010003208DF80200684602F014
:103AC000E4FE08BD70B506460C4615460121C80245
:103AD00003F06DFA284604F0F2FD204604F0F8FDEC
:103AE000304604F010FE04F019FEFFF7DDFF04F08D
:103AF00000FE70BD10B50446204604F004FE10BD63
:103B000010B57F2004F0F9FD04F008FE10BD0000A0
:103B100000203E49488008803D4908603D490880B2
:103B2000704710B5394A1288521C502392FBF3F4A7
:103B300003FB142291B2354A52888A4205D0334A97
:103B40001388121DD054121F118010BD2F494988AF
:103B50002E4A128891420ED02C494A88091D895C50
:103B600001702A494988491C502291FBF2F302FB5B
:103B70001311264A51807047244800885030234949
:103B80004988401A502190FBF1F201FB120080B2EB
:103B90007047F8B504460D460026002000902FE03F
:103BA0006846FFF7D3FF1B48008820B99DF8000046
:103BB000EE2800D024E017480088A84208DA9DF8D3
:103BC0000010144802880088401C124B1880A15431
:103BD0009DF800000E49096840EA01200C49086080
:103BE000084600686FF44031884208D109480688C9
:103BF000002007490860074908803046F8BD00BF2B
:103C0000FFF7BAFF0028CBDC0020F7E79850002030
:103C1000B4020020B8020020014606E04FF47A7298
:103C200000E0521E002AFCDC491E0029F6DC704729
:103C300010B5044603E0207801F04FFE641C2078A4
:103C40000028F8D110BD70B505460E46002404E0EA
:103C5000285D01F042FE601C84B2B442F8DB70BD06
:103C600070B505460E4600240AE035F81410080A1F
:103C700001F033FE15F8140001F02FFE601C84B231
:103C8000B442F2DB70BD10B5EE2001F026FE00203C
:103C900001F023FEFF2001F020FEFC2001F01DFEBC
:103CA000FF2001F01AFEFF2001F017FE10BD10B535
:103CB0000446EE2001F011FE412001F00EFE200A24
:103CC00001F00BFEE0B201F008FEFF2001F005FE5E
:103CD000FC2001F002FEFF2001F0FFFDFF2001F0BB
:103CE000FCFD10BD10B50446EE2001F0F6FD4220AB
:103CF00001F0F3FD200A01F0F0FDE0B201F0EDFD6E
:103D0000FF2001F0EAFDFC2001F0E7FDFF2001F0BB
:103D1000E4FDFF2001F0E1FD10BD70B506460C4644
:103D20001546EE2001F0D9FDA32001F0D6FDF0B23A
:103D300001F0D3FD200A01F0D0FDE0B201F0CDFD8D
:103D4000280A01F0CAFDE8B201F0C7FDFF2001F02A
:103D5000C4FDFC2001F0C1FDFF2001F0BEFDFF20ED
:103D600001F0BBFD70BD10B5EE2001F0B6FD0120E5
:103D700001F0B3FDFF2001F0B0FDFC2001F0ADFD2E
:103D8000FF2001F0AAFDFF2001F0A7FD10BD70B5D6
:103D900004460D46EE2001F0A0FD432001F09DFDFC
:103DA000E0B201F09AFDE8B201F097FDFF2001F0CA
:103DB00094FDFC2001F091FDFF2001F08EFDFF201D
:103DC00001F08BFD70BD70B506460C461546EE2021
:103DD00001F083FD452001F080FDF0B201F07DFD92
:103DE000200A01F07AFDE0B201F077FD280A01F027
:103DF00074FDE8B201F071FDFF2001F06EFDFC20C2
:103E000001F06BFDFF2001F068FDFF2001F065FD72
:103E100070BD70B504460D46EE2001F05EFD4420F5
:103E200001F05BFD200A01F058FDE0B201F055FD04
:103E3000280A01F052FDE8B201F04FFDFF2001F029
:103E40004CFDFC2001F049FDFF2001F046FDFF2064
:103E500001F043FD70BD2DE9F04104460D461646C4
:103E60001F46DDF81880EE2001F037FD202001F01C
:103E700034FD200A01F031FDE0B201F02EFD280AE8
:103E800001F02BFDE8B201F028FDF0B201F025FDB4
:103E9000F8B201F022FD4046FFF7CAFEFF2001F014
:103EA0001CFDFC2001F019FDFF2001F016FDFF2094
:103EB00001F013FDBDE8F0812DE9F04106460C4606
:103EC00015461F46DDF81880EE2001F006FD212082
:103ED00001F003FDF0B201F000FD200A01F0FDFC4D
:103EE000E0B201F0FAFC280A01F0F7FCE8B201F0B8
:103EF000F4FCF8B201F0F1FC08F0FF0001F0EDFC79
:103F0000FF2001F0EAFCFC2001F0E7FCFF2001F0BB
:103F1000E4FCFF2001F0E1FCBDE8F08170B504464F
:103F20000D46EE2001F0D9FC312001F0D6FC200A2C
:103F300001F0D3FCE0B201F0D0FCE8B201F0CDFC1E
:103F4000FF2001F0CAFCFC2001F0C7FCFF2001F0BB
:103F5000C4FCFF2001F0C1FC70BD2DE9F041044616
:103F60000D4616461F46EE2001F0B7FC322001F048
:103F7000B4FC200A01F0B1FCE0B201F0AEFC280A6A
:103F800001F0ABFCE8B201F0A8FC300A01F0A5FC9E
:103F9000F0B201F0A2FCF8B201F09FFCFF2001F0AA
:103FA0009CFCFC2001F099FCFF2001F096FCFF2016
:103FB00001F093FCBDE8F0812DE9F05F04460D4669
:103FC00016461F46DDE90CABDDE90A89EE2001F05B
:103FD00084FC332001F081FC200A01F07EFCE0B279
:103FE00001F07BFC280A01F078FCE8B201F075FCD6
:103FF000300A01F072FCF0B201F06FFC380A01F0F7
:104000006CFCF8B201F069FC4FEA182001F065FC85
:1040100008F0FF0001F061FC4FEA192001F05DFC9F
:1040200009F0FF0001F059FC4FEA1A2001F055FC9D
:104030000AF0FF0001F051FC0BF0FF0001F04DFC15
:10404000FF2001F04AFCFC2001F047FCFF2001F0BA
:1040500044FCFF2001F041FCBDE8F09F2DE9F04158
:1040600004460D4616461F46DDF81880EE2001F086
:1040700034FC802001F031FC200A01F02EFCE0B27B
:1040800001F02BFC280A01F028FCE8B201F025FC25
:10409000300A01F022FCF0B201F01FFCF8B201F08E
:1040A0001CFC08F0FF0001F018FCFF2001F015FCDB
:1040B000FC2001F012FCFF2001F00FFCFF2001F0BA
:1040C0000CFCBDE8F08170B504460D46EE2001F011
:1040D00004FC502001F001FC200A01F0FEFBE0B2DC
:1040E00001F0FBFB280A01F0F8FBE8B201F0F5FB58
:1040F000FF2001F0F2FBFC2001F0EFFBFF2001F0BC
:10410000ECFBFF2001F0E9FB70BD2DE9F041044616
:104110000D4616461F46EE2001F0DFFB512001F050
:10412000DCFB200A01F0D9FBE0B201F0D6FB280A43
:1041300001F0D3FBE8B201F0D0FB300A01F0CDFB77
:10414000F0B201F0CAFB380A01F0C7FBF8B201F087
:10415000C4FBFF2001F0C1FBFC2001F0BEFBFF20EF
:1041600001F0BBFBFF2001F0B8FBBDE8F08170B5AA
:1041700005460E461446EE2001F0AFFB632001F029
:10418000ACFBE8B201F0A9FB4FF6FF7000EA440176
:104190003046FFF765FDFF2001F09FFBFC2001F09A
:1041A0009CFBFF2001F099FBFF2001F096FB70BD06
:1041B0002DE9F04104460D4616461F46EE2001F05B
:1041C0008CFB592001F089FB200A01F086FBE0B24C
:1041D00001F083FB280A01F080FBE8B201F07DFBCF
:1041E00039463046FFF73CFDFF2001F076FBFC200E
:1041F00001F073FBFF2001F070FBFF2001F06DFB6D
:10420000BDE8F0812DE9F04104460D4616461F46F3
:10421000EE2001F062FB752001F05FFB200A01F047
:104220005CFBE0B201F059FB280A01F056FBE8B252
:1042300001F053FB39463046FFF712FDFF2001F035
:104240004CFBFC2001F049FBFF2001F046FBFF2066
:1042500001F043FBBDE8F0812DE9F04104460D4635
:1042600016461F46EE2001F038FB762001F035FBA4
:10427000200A01F032FBE0B201F02FFB280A01F026
:104280002CFBE8B201F029FB39463046FFF7E8FC89
:10429000FF2001F022FBFC2001F01FFBFF2001F0BA
:1042A0001CFBFF2001F019FBBDE8F0812DE9F04176
:1042B00004460D4616461F46EE2001F00EFB772001
:1042C00001F00BFBE0B201F008FBE8B201F005FBE6
:1042D000F0B201F002FBF8B201F0FFFAFF2001F0AA
:1042E000FCFAFC2001F0F9FAFF2001F0F6FAFF20B9
:1042F00001F0F3FABDE8F08170B505460C46EE20FA
:1043000001F0EBFA682001F0E8FA4FF6FF7000EADE
:1043100044012846FFF7A4FCFF2001F0DEFAFC2050
:1043200001F0DBFAFF2001F0D8FAFF2001F0D5FA06
:1043300070BD70B505460C46EE2001F0CEFA69203E
:1043400001F0CBFA4FF6FF7000EA44012846FFF770
:1043500087FCFF2001F0C1FAFC2001F0BEFAFF202B
:1043600001F0BBFAFF2001F0B8FA70BD70B5044649
:104370000D461646EE2001F0B0FA522001F0ADFADB
:10438000200A01F0AAFAE0B201F0A7FA280A01F027
:10439000A4FAE8B201F0A1FA300A01F09EFAF0B2F4
:1043A00001F09BFAFF2001F098FAFC2001F095FA49
:1043B000FF2001F092FAFF2001F08FFA70BD70B576
:1043C00004460D461646EE2001F087FA532001F010
:1043D00084FA200A01F081FAE0B201F07EFA280A9C
:1043E00001F07BFAE8B201F078FA300A01F075FAD0
:1043F000F0B201F072FAFF2001F06FFAFC2001F038
:104400006CFAFF2001F069FAFF2001F066FA70BD36
:104410002DE9F04104460D4616461F46DDF818808A
:10442000EE2001F05AFA672001F057FA200A01F055
:1044300054FAE0B201F051FA280A01F04EFAE8B25B
:1044400001F04BFA300A01F048FAF0B201F045FAF7
:10445000380A01F042FAF8B201F03FFA4FEA1820A8
:1044600001F03BFA08F0FF0001F037FAFF2001F0FD
:1044700034FAFC2001F031FAFF2001F02EFAFF207F
:1044800001F02BFABDE8F0812DE9F04104460D461C
:1044900016461F46EE2001F020FA542001F01DFAC6
:1044A000200A01F01AFAE0B201F017FA280A01F026
:1044B00014FAE8B201F011FA300A01F00EFAF0B283
:1044C00001F00BFA380A01F008FAF8B201F005FA27
:1044D000FF2001F002FAFC2001F0FFF9FF2001F0BB
:1044E000FCF9FF2001F0F9F9BDE8F0812DE9F04178
:1044F00004460D4616461F46EE2001F0EEF9552003
:1045000001F0EBF9200A01F0E8F9E0B201F0E5F979
:10451000280A01F0E2F9E8B201F0DFF9300A01F00F
:10452000DCF9F0B201F0D9F9380A01F0D6F9F8B2A5
:1045300001F0D3F9FF2001F0D0F9FC2001F0CDF912
:10454000FF2001F0CAF9FF2001F0C7F9BDE8F081B2
:104550002DE9F04104460D4616461F46EE2001F0B7
:10456000BCF9562001F0B9F9200A01F0B6F9E0B221
:1045700001F0B3F9280A01F0B0F9E8B201F0ADF9A1
:10458000300A01F0AAF9F0B201F0A7F9380A01F0F7
:10459000A4F9F8B201F0A1F9FF2001F09EF9FC2086
:1045A00001F09BF9FF2001F098F9FF2001F095F947
:1045B000BDE8F0812DE9F04104460D4616461F4640
:1045C000EE2001F08AF9572001F087F9200A01F066
:1045D00084F9E0B201F081F9280A01F07EF9E8B22D
:1045E00001F07BF9300A01F078F9F0B201F075F9C9
:1045F000380A01F072F9F8B201F06FF9FF2001F00A
:104600006CF9FC2001F069F9FF2001F066F9FF2048
:1046100001F063F9BDE8F08110B50446EE2001F029
:104620005CF9602001F059F9E0B201F056F9FF2081
:1046300001F053F9FC2001F050F9FF2001F04DF991
:10464000FF2001F04AF910BD10B50446EE2001F03C
:1046500044F9612001F041F9E0B201F03EF9FF2098
:1046600001F03BF9FC2001F038F9FF2001F035F9A9
:10467000FF2001F032F910BD2DE9F04104460D464E
:1046800016461F46EE2001F028F9652001F025F9B5
:10469000200A01F022F9E0B201F01FF9280A01F026
:1046A0001CF9E8B201F019F9300A01F016F9F0B27C
:1046B00001F013F9380A01F010F9F8B201F00DF920
:1046C000FF2001F00AF9FC2001F007F9FF2001F0BA
:1046D00004F9FF2001F001F9BDE8F0812DE9F04176
:1046E0000746884615461E4600240FB144F00104D3
:1046F000B8F1000F01D044F0020415B144EA85007E
:10470000C4B216B144EA4610C4B2EE2001F0E5F896
:10471000702001F0E2F8E0B201F0DFF8FF2001F0D4
:10472000DCF8FC2001F0D9F8FF2001F0D6F8FF20DA
:1047300001F0D3F8BDE8F08110B5EE2001F0CDF81E
:10474000722001F0CAF8FF2001F0C7F8FC2001F048
:10475000C4F8FF2001F0C1F8FF2001F0BEF810BD41
:1047600010B5EE2001F0B9F8732001F0B6F8FF2083
:1047700001F0B3F8FC2001F0B0F8FF2001F0ADF833
:10478000FF2001F0AAF810BD10B5EE2001F0A5F849
:10479000092001F0A2F8DE2001F09FF8ED2001F0E1
:1047A0009CF8132001F099F8312001F096F8FF20D1
:1047B00001F093F8FC2001F090F8FF2001F08DF853
:1047C000FF2001F08AF810BD10B5EE2001F085F849
:1047D000082001F082F8A52001F07FF85A2001F0AE
:1047E0007CF85F2001F079F8F52001F076F8FF20E1
:1047F00001F073F8FC2001F070F8FF2001F06DF873
:10480000FF2001F06AF810BD10B50446EE2001F05B
:1048100064F8A02001F061F8E0B201F05EF8FF203A
:1048200001F05BF8FC2001F058F8FF2001F055F88A
:10483000FF2001F052F810BD10B50446EE2001F043
:104840004CF8A12001F049F8E0B201F046F8FF2051
:1048500001F043F8FC2001F040F8FF2001F03DF8A2
:10486000FF2001F03AF810BD10B50446EE2001F02B
:1048700034F8A22001F031F8E0B201F02EF8FF2068
:1048800001F02BF8FC2001F028F8FF2001F025F8BA
:10489000FF2001F022F810BD70B504460D46EE2051
:1048A00001F01BF8A42001F018F8E0B201F015F8AF
:1048B000E8B201F012F8FF2001F00FF8FC2001F03F
:1048C0000CF8FF2001F009F8FF2001F006F870BD98
:1048D00010B50446EE2001F000F8052000F0FDFFC1
:1048E000E0B200F0FAFFFF2000F0F7FFFC2000F03C
:1048F000F4FFFF2000F0F1FFFF2000F0EEFF10BDFD
:104900002DE9F04705460E4617461C46DDE90889A5
:10491000EE2000F0E2FF852000F0DFFFE8B200F0BB
:10492000DCFFF0B200F0D9FFF8B200F0D6FF200AA9
:1049300000F0D3FFE0B200F0D0FF4FEA182000F003
:10494000CCFF08F0FF0000F0C8FF4FEA192000F08C
:10495000C4FF09F0FF0000F0C0FFFF2000F0BDFF22
:10496000FC2000F0BAFFFF2000F0B7FFFF2000F0AE
:10497000B4FFBDE8F08770B504460E461546EE203C
:1049800000F0ABFF872000F0A8FF200E00F0A5FF8D
:10499000C4F3074000F0A1FFC4F3072000F09DFF1F
:1049A000E0B200F09AFF31462846FFF74CF9FF20AD
:1049B00000F093FFFC2000F090FFFF2000F08DFF3F
:1049C000FF2000F08AFF70BD70B504460D46EE2052
:1049D00000F083FF882000F080FF200E00F07DFFB4
:1049E000C4F3074000F079FFC4F3072000F075FF1F
:1049F000E0B200F072FF280A00F06FFFE8B200F0AA
:104A00006CFFFF2000F069FFFC2000F066FFFF2034
:104A100000F063FFFF2000F060FF70BD10B5EE20D6
:104A200000F05BFFB12000F058FF012000F055FFBF
:104A3000FF2000F052FFFC2000F04FFFFF2000F0AD
:104A40004CFFFF2000F049FF10BD10B50446EE20DA
:104A500000F043FFB12000F040FF002000F03DFFD8
:104A6000200A00F03AFFE0B200F037FFFF2000F02C
:104A700034FFFC2000F031FFFF2000F02EFFFF206C
:104A800000F02BFF10BD10B50446EE2000F025FF0E
:104A9000B32000F022FFE0B200F01FFFFF2000F083
:104AA0001CFFFC2000F019FFFF2000F016FFFF2084
:104AB00000F013FF10BD70B504460D461646EE20FB
:104AC00000F00BFFB12000F008FF022000F005FF0E
:104AD000200A00F002FFE0B200F0FFFE280A00F01A
:104AE000FCFEE8B200F0F9FEF0B200F0F6FEFF20A6
:104AF00000F0F3FEFC2000F0F0FEFF2000F0EDFEE1
:104B0000FF2000F0EAFE70BD70B504460D46164663
:104B1000EE2000F0E2FEB12000F0DFFE032000F006
:104B2000DCFE200A00F0D9FEE0B200F0D6FE280A32
:104B300000F0D3FEE8B200F0D0FEF0B200F0CDFEFF
:104B4000FF2000F0CAFEFC2000F0C7FEFF2000F0AE
:104B5000C4FEFF2000F0C1FE70BD70B504460D46D6
:104B60001646EE2000F0B9FEB12000F0B6FE04209B
:104B700000F0B3FE200A00F0B0FEE0B200F0ADFE9F
:104B8000280A00F0AAFEE8B200F0A7FEF0B200F09A
:104B9000A4FEFF2000F0A1FEFC2000F09EFEFF20FE
:104BA00000F09BFEFF2000F098FE70BD70B504463B
:104BB0000D461646EE2000F090FEB12000F08DFE6E
:104BC000102000F08AFE200A00F087FEE0B200F01C
:104BD00084FE280A00F081FEE8B200F07EFEF0B20A
:104BE00000F07BFEFF2000F078FEFC2000F075FE58
:104BF000FF2000F072FEFF2000F06FFE70BD70B568
:104C000004460D461646EE2000F067FEB12000F087
:104C100064FE102000F061FE200A00F05EFEE0B2AB
:104C200000F05BFE280A00F058FEE8B200F055FEE6
:104C30003046FEF7FDFFFF2000F04FFEFC2000F0A5
:104C40004CFEFF2000F049FEFF2000F046FE70BD44
:104C500070B505460E461446EE2000F03EFEB1202B
:104C600000F03BFE102000F038FE280A00F035FE70
:104C7000E8B200F032FE300A00F02FFEF0B200F091
:104C80002CFE200E00F029FEC4F3074000F025FEA4
:104C9000C4F3072000F021FEE0B200F01EFEFF206A
:104CA00000F01BFEFC2000F018FEFF2000F015FEB7
:104CB000FF2000F012FE70BD70B505460E4614468A
:104CC000EE2000F00AFEB12000F007FE102000F0F8
:104CD00004FE280A00F001FEE8B200F0FEFD300AF2
:104CE00000F0FBFDF0B200F0F8FD200E00F0F5FD45
:104CF000C4F3074000F0F1FDC4F3072000F0EDFD20
:104D0000E0B200F0EAFDFF2000F0E7FDFC2000F03B
:104D1000E4FDFF2000F0E1FDFF2000F0DEFD70BDAE
:104D200070B505460E461446EE2000F0D6FDB120C3
:104D300000F0D3FD102000F0D0FD280A00F0CDFDDA
:104D4000E8B200F0CAFD300A00F0C7FDF0B200F092
:104D5000C4FD200E00F0C1FDC4F3074000F0BDFD0E
:104D6000C4F3072000F0B9FDE0B200F0B6FDFF206B
:104D700000F0B3FDFC2000F0B0FDFF2000F0ADFD21
:104D8000FF2000F0AAFD70BD70B504460D46164622
:104D9000EE2000F0A2FDB12000F09FFD102000F0F9
:104DA0009CFD200A00F099FDE0B200F096FD280A73
:104DB00000F093FDE8B200F090FDF0B200F08DFD40
:104DC000FF2000F08AFDFC2000F087FDFF2000F0AE
:104DD00084FDFF2000F081FD70BD70B504460D46D6
:104DE000EE2000F07AFDB12000F077FD112000F0F8
:104DF00074FD200A00F071FDE0B200F06EFD280A9B
:104E000000F06BFDE8B200F068FDFF2000F065FDEA
:104E1000FC2000F062FDFF2000F05FFDFF2000F0AD
:104E20005CFD70BD70B504460D46EE2000F055FDEA
:104E3000B12000F052FD202000F04FFD200A00F0CC
:104E40004CFDE0B200F049FD280A00F046FDE8B252
:104E500000F043FDFF2000F040FDFC2000F03DFD90
:104E6000FF2000F03AFDFF2000F037FD70BD70B567
:104E700004460D46EE2000F030FDB12000F02DFD7F
:104E8000212000F02AFD200A00F027FDE0B200F00A
:104E900024FD280A00F021FDE8B200F01EFDFF20ED
:104EA00000F01BFDFC2000F018FDFF2000F015FDB8
:104EB000FF2000F012FD70BD70B504460D46EE20D7
:104EC00000F00BFDB12000F008FD222000F005FDF0
:104ED000200A00F002FDE0B200F0FFFC280A00F01A
:104EE000FCFCE8B200F0F9FCFF2000F0F6FCFC202E
:104EF00000F0F3FCFF2000F0F0FCFF2000F0EDFCE0
:104F000070BD70B504460D461646EE2000F0E5FC77
:104F1000B12000F0E2FC232000F0DFFC200A00F0CA
:104F2000DCFCE0B200F0D9FC280A00F0D6FCE8B2C4
:104F300000F0D3FCF0B200F0D0FCFF2000F0CDFC7C
:104F4000FC2000F0CAFCFF2000F0C7FCFF2000F0AE
:104F5000C4FC70BD70B504460D46EE2000F0BDFCEB
:104F6000B12000F0BAFC242000F0B7FC200A00F0C9
:104F7000B4FCE0B200F0B1FC280A00F0AEFCE8B2EC
:104F800000F0ABFCFF2000F0A8FCFC2000F0A5FC2A
:104F9000FF2000F0A2FCFF2000F09FFC70BD70B568
:104FA00004460D46EE2000F098FCB12000F095FC80
:104FB000252000F092FC200A00F08FFCE0B200F007
:104FC0008CFC280A00F089FCE8B200F086FCFF2087
:104FD00000F083FCFC2000F080FCFF2000F07DFC52
:104FE000FF2000F07AFC70BD2DE9F04104460D462B
:104FF00017461E46EE2000F070FCB12000F06DFC5C
:10500000302000F06AFC200A00F067FCE0B200F0FB
:1050100064FC280A00F061FCE8B200F05EFCF8B223
:1050200000F05BFC300A00F058FCF0B200F055FCD8
:10503000FF2000F052FCFC2000F04FFCFF2000F0AD
:105040004CFCFF2000F049FCBDE8F08170B504463F
:105050000D461646EE2000F040FCB12000F03DFC6D
:10506000312000F03AFC200A00F037FCE0B200F0FA
:1050700034FC280A00F031FCE8B200F02EFCF0B25B
:1050800000F02BFCFF2000F028FCFC2000F025FCA9
:10509000FF2000F022FCFF2000F01FFC70BD2DE976
:1050A000F04104460D4617469846069EEE2000F055
:1050B00014FCB12000F011FC322000F00EFC200A9C
:1050C00000F00BFCE0B200F008FC280A00F005FC40
:1050D000E8B200F002FCF8B200F0FFFB300A00F08A
:1050E000FCFBF0B200F0F9FB31464046FEF7ABFDA9
:1050F000FF2000F0F2FBFC2000F0EFFBFF2000F0AF
:10510000ECFBFF2000F0E9FBBDE8F08170B5044640
:105110000D461646EE2000F0E0FBB12000F0DDFB6E
:10512000332000F0DAFB200A00F0D7FBE0B200F0F9
:10513000D4FB280A00F0D1FBE8B200F0CEFBF0B2BD
:1051400000F0CBFBFF2000F0C8FBFC2000F0C5FB0B
:10515000FF2000F0C2FBFF2000F0BFFB70BD2DE977
:10516000F04704460D4616461F46DDE90889EE2045
:1051700000F0B3FBB12000F0B0FB342000F0ADFB39
:10518000200A00F0AAFBE0B200F0A7FB280A00F01A
:10519000A4FBE8B200F0A1FBC6F3072000F09DFBE2
:1051A000F0B200F09AFB380A00F097FBF8B200F07A
:1051B00094FBC8F3072000F090FB08F0FF0000F01C
:1051C0008CFB4FEA192000F088FB09F0FF0000F08B
:1051D00084FBFF2000F081FBFC2000F07EFBFF2021
:1051E00000F07BFBFF2000F078FBBDE8F08710B5F6
:1051F0000446EE2000F071FBB12000F06EFB12209F
:1052000000F06BFB200A00F068FBE0B200F065FBE9
:1052100010BD70B504460D46200A00F05EFBE0B2FA
:1052200000F05BFB002000F058FB012000F055FB74
:10523000E8B200F052FB70BD70B505460C46280A76
:1052400000F04BFBE8B200F048FB002000F045FB0B
:10525000042000F042FB200E00F03FFBC4F30740A7
:1052600000F03BFBC4F3072000F037FBE0B200F096
:1052700034FB70BD70B505460C46280A00F02DFBC6
:10528000E8B200F02AFB002000F027FB042000F029
:1052900024FB200E00F021FBC4F3074000F01DFBAF
:1052A000C4F3072000F019FBE0B200F016FB70BD5C
:1052B00070B505460C46280A00F00FFBE8B200F076
:1052C0000CFB002000F009FB042000F006FB200E80
:1052D00000F003FBC4F3074000F0FFFAC4F307201B
:1052E00000F0FBFAE0B200F0F8FA70BD01460A46A1
:1052F00000E0491C08780028FBD1881A704770B577
:1053000004460D46200A00F0E8FAE0B200F0E5FAA3
:105310002846FFF7EBFFC0F30726304600F0DDFA22
:105320002846FFF7E3FFC6B2304600F0D6FA28461B
:10533000FEF77EFC70BD70B504460D46200A00F0F5
:10534000CCFAE0B200F0C9FA002000F0C6FA022060
:1053500000F0C3FA280A00F0C0FAE8B200F0BDFA83
:1053600070BD10B5FF2000F0B8FAFC2000F0B5FACF
:10537000FF2000F0B2FAFF2000F0AFFA10BD70B5C8
:1053800005460E461446EE2000F0A7FAB12000F0C4
:10539000A4FA402000F0A1FA280A00F09EFAE8B230
:1053A00000F09BFA300A00F098FAF0B200F095FA9B
:1053B000200E00F092FAC4F3074000F08EFAC4F316
:1053C000072000F08AFAE0B200F087FAFF2000F030
:1053D00084FAFC2000F081FAFF2000F07EFAFF2022
:1053E00000F07BFA70BD70B504460D46EE2000F06B
:1053F00074FAB12000F071FA412000F06EFA200A30
:1054000000F06BFAE0B200F068FA280A00F065FAE2
:10541000E8B200F062FAFF2000F05FFAFC2000F032
:105420005CFAFF2000F059FAFF2000F056FA70BD38
:1054300070B504460D46EE2000F04FFAB12000F0A2
:105440004CFA422000F049FA200A00F046FAE0B295
:1054500000F043FA280A00F040FAE8B200F03DFA02
:10546000FF2000F03AFAFC2000F037FAFF2000F0AD
:1054700034FAFF2000F031FA70BD70B504460D46D5
:10548000EE2000F02AFAB12000F027FA442000F0C4
:1054900024FA200A00F021FAE0B200F01EFA280AED
:1054A00000F01BFAE8B200F018FAFF2000F015FA3D
:1054B000FC2000F012FAFF2000F00FFAFF2000F0AD
:1054C0000CFA70BD70B504460D461646EE2000F08D
:1054D00004FAB12000F001FA182000F0FEF9200AC9
:1054E00000F0FBF9E0B200F0F8F9280A00F0F5F955
:1054F000E8B200F0F2F9300A00F0EFF9F0B200F093
:10550000ECF9FF2000F0E9F9FC2000F0E6F9FF20BB
:1055100000F0E3F9FF2000F0E0F970BD70B504463B
:105520000D461646EE2000F0D8F9B12000F0D5F96E
:10553000192000F0D2F9200A00F0CFF9E0B200F013
:10554000CCF9280A00F0C9F9E8B200F0C6F9300A2F
:1055500000F0C3F9F0B200F0C0F9FF2000F0BDF98F
:10556000FC2000F0BAF9FF2000F0B7F9FF2000F0AE
:10557000B4F970BD2DE9F04104460D4617461E46AC
:10558000EE2000F0AAF9B12000F0A7F9132000F0F6
:10559000A4F9200A00F0A1F9E0B200F09EF9280A6F
:1055A00000F09BF9E8B200F098F9F8B200F095F934
:1055B000300A00F092F9F0B200F08FF9FF2000F00D
:1055C0008CF9FC2000F089F9FF2000F086F9FF201B
:1055D00000F083F9BDE8F0812DE9F04706460C465E
:1055E00015461F46DDE90889EE2000F076F9862091
:1055F00000F073F9F0B200F070F9200A00F06DF9D4
:10560000E0B200F06AF9280A00F067F9E8B200F0A9
:1056100064F9F8B200F061F908F0FF0000F05DF9FC
:1056200009F0FF0000F059F9FF2000F056F9FC20C6
:1056300000F053F9FF2000F050F9FF2000F04DF981
:10564000BDE8F087014600BF704700BFAD4A128831
:1056500002F04002002AF9D0C2B2AA4B1B1D1A80E8
:10566000704710B586B004460121052001F092FC78
:105670000121880301F08EFC0121480401F097FC10
:105680004FF40070ADF8140018208DF817000320B7
:105690008DF8160005A99C4801F0C0F94FF4806010
:1056A000ADF8140004208DF8170005A9964801F004
:1056B000B5F90420ADF8140003208DF81600182069
:1056C0008DF8170005A9904801F0A8F90820ADF859
:1056D000140004208DF8170005A98B4801F09EF9ED
:1056E00025208DF8000000208DF801008DF80200C3
:1056F00001208DF80300684601F0C7F826208DF8D8
:10570000000000208DF801008DF8020001208DF8C6
:105710000300684601F0B9F801940020ADF80800D4
:10572000ADF80A00ADF80C00ADF810000C20ADF893
:105730000E0001A9754801F0D4FC012240F2255168
:10574000724801F066FD0121704801F056FD01A983
:105750006C4801F0C6FC012240F22551694801F075
:1057600058FD0121674801F048FD06B010BD10B595
:1057700040F22551654801F031FE002873D040F217
:105780002551624801F054FE604801F0A7FDC1B206
:105790005F4802680068401C5D4B18605D4881549A
:1057A00018460068401E5B49085C69285BD11846B2
:1057B0000068801E085C6A2855D1084600785A287F
:1057C00049D10846407855283CD118460068C11E8A
:1057D0005048FCF7A8FB4E490968C91E4D4A515C68
:1057E000884226D1104680781146C97800EB012006
:1057F00049490860464847490268484803F0E2F9C9
:1058000000204349086001204549087011204149A2
:10581000487128B10120C87110B14249087002E0F6
:105820000020404908704FF480613A4803F00FFAB5
:1058300019E00020364908604FF48061354803F0D4
:1058400006FA10E00020324908604FF480613148C8
:1058500003F0FDF907E000202D4908604FF4806156
:105860002C4803F0F4F910BD10B504460BE000BF5E
:105870008021264801F09CFD0028F9D0217823489A
:1058800001F028FD641C20780028F0D110BD70B50F
:1058900004460D4600260DE000BF80211B4801F0A4
:1058A00087FD0028F9D02178184801F013FD641C09
:1058B000701CC6B2AE42EFDB70BD10B540F2255190
:1058C000104801F08BFD38B10E4801F007FDC4B25D
:1058D0002046FEF726F900BF10BD10B5044621464C
:1058E000084801F0F7FC00BF8021064801F060FD88
:1058F0000028F9D000BF4021024801F059FD0028DE
:10590000F9D010BD004400400008014000380140BB
:10591000C8020020EC500020C40200206C1F0020B0
:1059200068020020CC020020704770477047704723
:10593000012080F3138800BF00BFFE48006800F418
:10594000E060FD490843001DFA490860BFF34F8F2E
:1059500000BF00BFFEE7FEB504460D461646002018
:105960000090019002903246F4A1684602F00EFFCA
:105970006A4629462046FFF742F9FEBD70B5054646
:105980000E461446032D16D1032E14D1EC490C708B
:105990000846027802210320FFF78EF9E8480278D2
:1059A00004210320FFF7D7FF0A220021E448FCF777
:1059B000F2FBFFF7BDFF042D2FD1032E2DD1E149BE
:1059C0000C70224602210420FFF776F92046FAF7F0
:1059D000C4FDDD480188DD4802F092FD4FF4FA7005
:1059E00000F001FF40F28331D84802F089FD6420C5
:1059F00000F0F9FED4480188D44802F081FD4FF44C
:105A0000FA7000F0F0FE40F28331D04802F078FDE9
:105A10000A221146CB48FCF7BEFB70BD704770B53B
:105A200005460C461646022D5ED1C94AC3A1304632
:105A300002F0D8FF022C2AD1C5480068002803DAFA
:105A40000020C349086007E0C1480068C149884296
:105A500002DD0846BE490860BD480068BE490860CE
:105A60000846B6A10268BD4802F090FE0A22142141
:105A7000BA48FCF790FBB848022102680846FFF7D5
:105A80006AFFB548022102680020FFF764FF032C7B
:105A90002AD1AF480068002803DA0020AC4908602A
:105AA00007E0AB480068AB49884202DD0846A849D8
:105AB0000860A7480068AA49086008469FA10268D4
:105AC000A84802F063FE0A221E21A648FCF763FBE9
:105AD000A348032102680220FFF73DFFA0480321ED
