:020000040800F2
:10000000F8200020C13C0008B50B0008B70B000821
:10001000E10B0008E50B0008E90B000800000000F8
:10002000000000000000000000000000ED0B0008D0
:10003000EF0B000800000000F10B0008F30B0008B4
:10004000012A0008DB3C0008DB3C0008DB3C000820
:10005000DB3C0008DB3C0008DB3C0008DB3C000824
:10006000DB3C0008DB3C0008DB3C0008DB3C000814
:10007000DB3C0008DB3C0008DB3C0008DB3C000804
:10008000DB3C0008DB3C0008DB3C0008DB3C0008F4
:10009000DB3C0008DB3C0008DB3C0008C72700080D
:1000A000DB3C0008DB3C0008DB3C0008DB3C0008D4
:1000B000CB1B00085B170008DB3C0008DB3C00089A
:1000C000DB3C0008DB3C0008DB3C0008DB3C0008B4
:1000D000DB3C00086D370008DB3C0008DB3C000817
:1000E00043360008DB3C0008DB3C0008DB3C000832
:1000F000DB3C0008DB3C0008DB3C0008DB3C000884
:10010000DB3C0008DB3C0008DB3C0008DB3C000873
:10011000DB3C0008DB3C0008DB3C0008DB3C000863
:10012000DB3C0008DB3C0008DB3C0008DB3C000853
:10013000DFF80CD005F0D8FD00480047C10A0008E0
:10014000F820002030B502460B464FF6FF70002124
:1001500012E0555C684000240AE000F0010525B17A
:1001600048F2084585EA600000E04010651CACB22A
:10017000082CF2DB4D1CA9B29942EADB30BDFCA091
:1001800005F0F0FD012080F3138800BF00BFFE489A
:10019000006800F4E060FD490843001DFA4908606A
:1001A000BFF34F8F00BF00BFFEE72DE9F0410446CB
:1001B0000E46274635460A2F30D007DC66D2DFE8E8
:1001C00007F01417276565652A652B2C0E2F39D08B
:1001D00006DC0B2F23D00C2F22D00D2F56D120E080
:1001E000E02F40D0FF2F51D101E0FFF7C8FF4EE0D4
:1001F0000120E7490870E74908700020E6490870C7
:100200000120E6490860E648007802F050FC3EE034
:1002100002F021FF3BE03AE039E038E037E036E039
:1002200035E0E04800780006DE49497800EB0140FF
:10023000DC49897800EB0120DA49C9780844DA49B9
:10024000086024E0D74800780006D649497800EBDA
:100250000140D449897800EB0120D249C97808448B
:10026000D249086013E0002D07DDD148405DD14937
:1002700048710F20D049087007E035B9CC480078A4
:10028000CC4948710120CC49087000E000BF00BF94
:10029000BDE8F081F8B50027FF2606E001223146CF
:1002A000684603F0DAF806F580769DF801003328F9
:1002B000F4D1A6F2FF152C46002C62D05EE0042299
:1002C0002146684603F0C9F89DF80000FF2854D184
:1002D0009DF80100FF2850D19DF80200FF284CD165
:1002E0009DF80300FF2848D10127AC420CD9B34840
:1002F00004600068001FB24908600846006800F505
:100300008010B04908600BE0AC4804600068083811
:10031000AB4908600846006800F58010A9490860EC
:100320000422A7480168A84803F097F8A648007877
:100330000006A549497800EB0140A349897800EB04
:100340000120A149C97808449749086004229D48C2
:1003500001689D4803F081F89B48007800069A499F
:10036000497800EB01409849897800EB01209649D3
:10037000C97808448D49086000E0241D002F9ED1F3
:100380005EE0002C5CD159E004222146684603F06F
:1003900064F89DF80000FF284FD19DF80100FF2868
:1003A0004BD19DF80200FF2847D19DF80300FF289C
:1003B00043D10127AC4238D9804804600068001F4F
:1003C0007F4908600846006800F580107D49086094
:1003D00004227B4801687C4803F03FF87A480078A3
:1003E00000067949497800EB01407749897800EBAC
:1003F00001207549C97808446B4908600422714896
:100400000168714803F029F86F48007800066E49CA
:10041000497800EB01406C49897800EB01206A497A
:10042000C97808446149086008E000205E49086016
:100430005E4908606149086000E0241D002FA3D1D7
:10044000F8BD10B5002400BF062160A003F0FFF93D
:100450004FF4967003F06EFA641C0A2C07D1012049
:100460005C4908700F2054490870FF2010BD5A489D
:1004700000780028E8D00024002057490870494837
:1004800000785649087047484078554908704548F3
:100490008078544908704348C07841490870414801
:1004A00000790F2803DD01204F49087003E03D4823
:1004B00000794D4908703B4840794C4908703948EB
:1004C00080794B4908703748C0794A4908703548E7
:1004D000007A48703348407A88703248807AC87011
:1004E0003048C07A444908702E48007B48702D4837
:1004F000407B88702B48807BC8702A48C07B3F496E
:1005000008702848007C3E49087000BF06213DA0C5
:1005100003F09DF9962003F00DFA641C142C07D10A
:1005200001202C4908700F2023490870FF209DE707
:10053000294800780028E9D00024002026490870C6
:100540001848007800061749497800EB0140154922
:10055000897800EB01201349C978084412490860E2
:10056000084600682949884253D901200E494FE0C6
:10057000BDF8C8EBD3B2BCFEB8B4CEBBD6B8C1EEA2
:100580000D0A0D0A000000000CED00E00000FA0565
:10059000300000209D0000209C000020AC81214202
:1005A00084000020B01C00207C000020800000207F
:1005B0009E00002002010020750000200C00002099
:1005C000100000201400002000000020050203009D
:1005D000600600008B0000205101002086000020F2
:1005E000870000208500002088000020890000206E
:1005F0008A0000208E000020920000208C00002045
:100600008D00002005020400600600003F420F003C
:100610000860012002F010FB00BF0621FCA003F0DF
:1006200016F9962003F086F9641C142C07D10120DA
:10063000F94908700F20F9490870FF2016E7F848BB
:1006400000780028E9D000240020F5490870F5481A
:1006500000780006F349497800EB0140F1498978B8
:1006600000EB0120EF49C9780844EF4908600846CB
:100670000068EE49884202D90120EB490860022057
:1006800002F0DAFA0120F1E610B50020E84908701E
:100690000120E24908700020E6490860E24908604C
:1006A000E5490870E5490870FFF7CBFEE44908709A
:1006B000E448E5490978405CE4494871E148E44987
:1006C0000978405CE3494871DE48E3490978405CB9
:1006D000E2494871DB48E2490978405CE1494871E8
:1006E000D848E1490978405CE0494871E048007821
:1006F00000F00F04D348005DDE494871DC48007803
:100700000F2101EA2014CF48005DDA490871CD4875
:10071000D9490978405CD9494871D948007800F036
:100720000F04C848005DD7494871D54800780F21AB
:1007300001EA2014C348005DD2490871B648007828
:1007400000F00F04BF48005DCF494871B2480078FF
:100750000F2101EA2014BB48005DCB490871CB484A
:1007600000780A2190FBF1F0C4B2C948005DC94984
:100770000871C64800780A2190FBF1F201FB1200D3
:10078000C4B2B048005DC3494871C34800780A212B
:1007900090FBF1F0C4B2BE48005DC0490871BE488C
:1007A00000780A2190FBF1F201FB1200C4B2A548C7
:1007B000005DBA494871BA4800780A2190FBF1F20D
:1007C00001FB1200C4B29F48005D8030B5498870BB
:1007D000B34800780A2190FBF1F090FBF1F201FBA5
:1007E0001200C4B29748005DAE494870AC4800782A
:1007F000642190FBF1F0C4B29248005DA9490870F1
:10080000A74840780A2190FBF1F201FB1200C4B224
:100810008C48005D8030A3494871A14840780A2186
:1008200090FBF1F090FBF1F201FB1200C4B285489D
:10083000005D9C4908719A484078642190FBF1F072
:10084000C4B28048005D9749C870954880780A21F5
:1008500090FBF1F201FB1200C4B27A48005D8030D7
:10086000914988708E4880780A2190FBF1F090FBC6
:10087000F1F201FB1200C4B27248005D8A4948706F
:1008800087488078642190FBF1F0C4B26D48005D28
:10089000854908708248C0780A2190FBF1F201FB7B
:1008A0001200C4B26748005D7F4948717C48C07837
:1008B0000A2190FBF1F090FBF1F201FB1200C4B2AF
:1008C0006048005D784908717548C078642190FBE4
:1008D000F1F0C4B25B48005D7349C870734800789A
:1008E0000A2190FBF1F201FB1200C4B25548005DF1
:1008F00080306F4988706D4800780A2190FBF1F0D4
:1009000090FBF1F201FB1200C4B24E48005D684951
:10091000487066480078642190FBF1F0C4B2494801
:10092000005D63490870614840780A2190FBF1F24C
:1009300001FB1200C4B24348005D80305C4948713D
:100940005A4840780A2190FBF1F090FBF1F201FB4C
:100950001200C4B23B48005D5549087153484078C5
:10096000642190FBF1F0C4B23648005D5049C87074
:100970004E4880780A2190FBF1F201FB1200C4B2CC
:100980003048005D80304B498870484880780A21A3
:1009900090FBF1F090FBF1F201FB1200C4B2294888
:1009A000005D4449487041488078642190FBF1F033
:1009B000C4B22448005D3F4908703C48C0780A2111
:1009C00090FBF1F201FB1200C4B21E48005D3949F0
:1009D00048713648C0780A2190FBF1F090FBF1F2A3
:1009E00001FB1200C4B21748005D324908712F485C
:1009F000C078642190FBF1F0C4B21248005D2D492B
:100A0000C87000202C4908702C49087010BD0000E7
:100A100005020500600600008B0000207500002024
:100A200051010020B01C0020800000203F420F0038
:100A3000180000207C000020980000209900002071
:100A40009A0000209E00002084000020D800002092
:100A500086000020EA00002089000020F600002027
:100A60008A000020FC0000208C00002032010020C1
:100A700088000020F000002087000020E400002013
:100A800085000020DE000020020100208D000020F3
:100A9000AF00002038010020740000203E0100203B
:100AA0008E0000201A01002020010020920000206A
:100AB000260100202C0100209C0000209D00002029
:100AC000482002F01BFF4FF4FA7002F033FF4FF49E
:100AD000FA7002F02FFF4FF4FA7002F02BFF02F0D1
:100AE000D1FD02F0F6FD01F093FF00F077F9FFF77A
:100AF000CBFD02F073F800F0D3FD00F0FFFD02F033
:100B00005BFD00BF1E480078FF28FBD01DA005F04C
:100B100029F9032002F01BF831E001F041FF00F059
:100B20006EF904462CB100201C490870204600F0E4
:100B300064FD1B480078012808D10020184908707E
:100B40001848017818480078FFF72FFB17480078FD
:100B500048B1002015490870012002F06DF80B2003
:100B600002F085FA0BE01248007840B100201049ED
:100B70000870022002F060F80C2002F078FACCE74E
:100B80009A000020D6F7BFD8D6C6B0E5C6F4B6AFF7
:100B9000CDEAB3C90D0A0D0A000000009B00002039
:100BA000510100205F0100205E010020980000201C
:100BB00099000020704712E0012080F3138800BFE5
:100BC00000BF0C48006800F4E0600B490843001DBA
:100BD00008490860BFF34F8F00BF00BFFEE7EBE797
:100BE00000BFFEE700BFFEE700BFFEE770477047AB
:100BF000704770470CED00E00000FA050CB50020CE
:100C0000019000906C48006840F480306A490860A8
:100C100000BF6948006800F4003000900198401C53
:100C20000190009818B90198B0F5A06FF1D1624811
:100C3000006800F4003010B10120009001E00020B5
:100C400000900098012843D15C48006840F01000F3
:100C50005A4908600846006820F00300086008460A
:100C6000006840F0020008605348406852494860FC
:100C70000846406848600846406840F48060486024
:100C80000846406820F47C1048600846406840F4FC
:100C9000E81048600846006840F08070086000BFB7
:100CA0004548006800F000700028F9D042484068CC
:100CB00020F00300404948600846406840F00200C8
:100CC000486000BF3C48406800F00C000828F9D19B
:100CD0000CBD10B5FFF792FF10BD10B53648006887
:100CE00040F0010034490860084640683449084033
:100CF0003149486008460068324908402E4908607A
:100D00000846006820F4802008600846406820F407
:100D1000FE0048604FF41F008860FFF7DAFF4FF0D5
:100D200000602949086010BD10B500210020002294
:100D3000214B5B6803F00C0121B1042906D008297E
:100D400028D107E0214B224C236027E01F4B204C89
:100D5000236023E0184B5B6803F47010164B5B684C
:100D600003F48032022303EB904022B9194B434332
:100D7000174C23600DE0104B5B6803F4003323B184
:100D8000144B4343124C236003E0104B4343104C7D
:100D9000236003E00D4B0E4C236000BF00BF064BE9
:100DA0005B68C3F303130C4CE15C094B1B68CB403D
:100DB000074C236010BD00000010024000200240DC
:100DC0000000FFF8FFFFF6FE08ED00E000127A00D9
:100DD0001C00002000093D002000002008B5012172
:100DE000082003F009FB4FF47870ADF800004820AC
:100DF0008DF803006946F94803F042F808BD10B5C4
:100E0000F7480078002835D0F648006878B1F548F2
:100E1000001D006858B1F3480830006838B1F14847
:100E20000C30006818B1EF481030006810BB0A2081
:100E300002F080FD0020EA490870EA48006808B91D
:100E4000012010BDE748001D006808B90220F8E73E
:100E5000E4480830006808B90320F2E7E1480C30A4
:100E6000006808B90420ECE7DE4810300068D8B903
:100E70000520E6E7DB480068012815D1D948001DA8
:100E80000068012810D1D7480830006801280BD12C
:100E9000D4480C300068012806D1D24810300068D0
:100EA000012801D1CE4908700020CAE710B5CE480C
:100EB0000078012810D00621CCA002F0C8FCCD4853
:100EC00000780C2805DACB480078401CC949087026
:100ED00002E00120C749087010BD10B5C548007870
:100EE00001287DD0C34800780A28FAD0C14800788C
:100EF0000B28F6D0BC480078002872D10621BEA08D
:100F000002F0A5FCBB480078022811D1002408E0BB
:100F1000BB48005DBB490855BB48005DBB4908554F
:100F2000641C062CF4DBBA480078BA4908709AE0D1
:100F3000B0480078032811D1002408E0B648005DCD
:100F4000B0490855B048005DB0490855641C062CEE
:100F5000F4DBB2480078B249087084E0A548007814
:100F6000042811D1002408E0AE48005DA5490855C9
:100F7000A548005DA5490855641C062CF4DBAA4869
:100F80000078AA4908706EE09A480078052811D1C7
:100F9000002408E0A648005D9A4908559A48005D7B
:100FA0009A490855641C062CF4DBA2480078A24933
:100FB000087058E08F480078062813D1002408E014
:100FC0009E48005D8F4908558F48005D8F49085540
:100FD000641C062CF4DB9A4800789A49087042E0B9
:100FE000E4E044E083480078072811D1002408E0B9
:100FF0009548005D834908558348005D834908553D
:10100000641C062CF4DB91480078914908702AE0B2
:1010100078480078082811D1002408E08D48005D48
:10102000784908557848005D78490855641C062CB5
:10103000F4DB894800788949087014E06D4800782D
:10104000092810D1002408E08548005D6D49085545
:101050006D48005D6D490855641C062CF4DB814821
:1010600000788149087001205F4908709EE05E4861
:1010700000780128FAD106217CA002F0E8FB5D4847
:10108000007802280DD1002408E05E48005D5C492C
:1010900008555E48005D5C490855641C062CF4DB6D
:1010A0007CE05448007803280DD1002408E055481E
:1010B000005D594908555548005D53490855641C61
:1010C000062CF4DB6AE04B48007804280DD100249C
:1010D00008E04C48005D534908554C48005D4A49BA
:1010E0000855641C062CF4DB58E0424800780528BB
:1010F0000DD1002408E04348005D4D4908554348A0
:10110000005D41490855641C062CF4DB46E0394873
:10111000007806280DD1002408E03A48005D4749D0
:1011200008553A48005D38490855641C062CF4DB24
:1011300034E03048007807280DD1002408E0314819
:10114000005D414908553148005D2F490855641C30
:10115000062CF4DB22E02748007808280DD1002473
:1011600008E02848005D3B4908552848005D2649AD
:101170000855641C062CF4DB10E01E480078092892
:101180000CD1002408E01F48005D354908551F4870
:10119000005D1D490855641C062CF4DB3548007CB5
:1011A0001949487100201049087000BF10BD10B5E2
:1011B0000D480078012810D100200B4908700D4817
:1011C0000078022858D11348007811490870084661
:1011D00001780A2001F078FFAFE0BDE0000C01408B
:1011E0003A0000201481214239000020050212003B
:1011F00060060000750000200502FF016006000087
:10120000D80000200E010020080100201401002059
:101210008400002031000020EA0000208600002029
:1012200032000020E400002087000020330000206E
:10123000F00000208800002035000020DE000020A3
:101240008500002034000020F600002089000020E6
:1012500036000020FC0000208A000020370000201B
:10126000320100208C000020380000200502FF0021
:10127000600600009E000020EE480078032809D197
:10128000ED480078ED49087008460178062001F025
:101290001BFF52E0E7480078042809D1E8480078AD
:1012A000E849087008460178082001F00DFF44E085
:1012B000E0480078052809D1E3480078E349087040
:1012C00008460178072001F0FFFE36E0D948007893
:1012D000062809D1DE480078DE4908700846017802
:1012E000092001F0F1FE28E0D2480078072809D152
:1012F000D9480078D9490870084601780F2001F0D4
:10130000E3FE1AE0CB480078082809D1D4480078D9
:10131000D449087008460178102001F0D5FE0CE091
:10132000C4480078092808D1CF480078CF49087010
:1013300008460178112001F0C7FECD48007CCD4958
:1013400048710020CC490870322002F0F3FA0621DF
:10135000AFF2E80002F07BFA10BDC7480078012820
:1013600011D1B448007802280ED1C448007803286F
:1013700009DAC2480078401CC0490870BC480978A6
:10138000405CBF4948718FE0AA48007803280ED11D
:10139000A94800780328F6DAA7480078401CA64937
:1013A0000870B3480978405CB64948717CE0A148B0
:1013B000007804280ED1A2480078032874DAA048E7
:1013C0000078401C9E490870A9480978405CAE49E5
:1013D000487169E09748007805280ED19A4800784E
:1013E0000A2861DA98480078401C97490870A0489C
:1013F0000978405CA549487156E08E480078062877
:101400001AD193480078FF284EDA91490978491C8F
:101410008F4A11701146097801F00F009449095C58
:101420009B4A51718A4909780F2202EA211090499A
:10143000095C974A117137E07E48007807280ED181
:10144000854800780C282FDA83480078401C8249B0
:10145000087087480978405C8E49487124E07548D7
:10146000007808280ED17E48007803281CDA7C48D2
:101470000078401C7A4908707D480978405C8649AC
:10148000487111E06B48007809280DD17648007842
:10149000022809DA74480078401C734908707448BF
:1014A0000978405C7D49487170477348007801288D
:1014B00011D16048007802280ED1704800780128C8
:1014C00009DD6E480078401E6C490870684809784C
:1014D000405C6B4948718FE05648007803280ED174
:1014E000554800780128F6DD53480078401E5249DF
:1014F00008705F480978405C624948717CE04D485B
:10150000007804280ED14E480078012874DD4C483C
:101510000078401E4A49087055480978405C5A498D
:10152000487169E04348007805280ED146480078A4
:10153000012861DD44480078401E434908704C484A
:101540000978405C5149487156E03A4800780628CD
:101550001AD13F48007800284EDD3D490978491EE0
:101560003B4A11701146097801F00F004049095CAF
:10157000474A5171364909780F2202EA21103C4945
:10158000095C434A117137E02A48007807280ED1D8
:101590003148007801282FDD2F480078401E2E4961
:1015A000087033480978405C3A49487124E0214882
:1015B000007808280ED12A48007801281CDD284828
:1015C0000078401E2649087029480978405C324955
:1015D000487111E01748007809280DD12248007899
:1015E000012809DD20480078401E1F490870204866
:1015F0000978405C29494871704770B50446254612
:10160000062D13D2DFE805F0120306090C0FFFF7D1
:101610004DFC0CE0FFF761FC09E0FFF7C8FD06E0B8
:10162000FFF79BFE03E0FFF740FF00E000BF00BFB5
:1016300070BD0000750000203200002086000020F0
:1016400033000020870000203500002088000020A3
:101650003400002085000020360000208900002092
:10166000370000208A000020380000208C00002075
:101670009E000020080100203900002031000020D9
:10168000D8000020EA000020E4000020F000002044
:10169000DE000020F6000020FC00002032010020C7
:1016A0001FB50121022002F0B4FE0A20ADF80800A7
:1016B00041F61F40ADF804000020ADF80A00ADF877
:1016C000060001A9FE4803F055F901224121FC481A
:1016D00003F0C7FC1D208DF8000000208DF80100EC
:1016E00003208DF8020001208DF80300684602F007
:1016F000FEFA0121F24803F099FC1FBD1FB501213C
:10170000084602F086FE41F28830ADF8080041F646
:101710001F40ADF804000020ADF80A00ADF8060047
:1017200001A94FF0804003F025F9012241218807EB
:1017300003F097FC1C208DF8000000208DF80100BC
:1017400001208DF802008DF80300684602F0CFFA00
:101750000121880703F06AFC1FBD10B50121D8489C
:1017600003F02DFF002875D00121D54803F038FF84
:10177000D448007801280ED1002409E0D248005D49
:10178000D2490855D248005DD2490855601CC4B200
:10179000062CF3DBE3E0CB48007802280ED10024CE
:1017A00009E0CD48005DC9490855CC48005DC949EC
:1017B0000855601CC4B2062CF3DBD0E0C1480078A9
:1017C00003280ED1002409E0C348005DBF49085535
:1017D000C348005DBF490855601CC4B2062CF3DB4A
:1017E000BDE0B848007804280ED1002409E0BA48CA
:1017F000005DB6490855BB48005DB6490855601CF8
:10180000C4B2062CF3DBAAE0AE48007805280ED15E
:10181000002409E0B048005DAC490855B248005DBD
:10182000AC490855601CC4B2062CF3DB97E0A54810
:10183000007806280FD1002409E0A748005DA349DD
:101840000855AA48005DA3490855601CC4B2062C7F
:10185000F3DB84E090E19B48007807280ED1002458
:1018600009E09D48005D99490855A148005D9949E6
:101870000855601CC4B2062CF3DB70E09148007878
:1018800008280ED1002409E09348005D8F490855CF
:101890009848005D8F490855601CC4B2062CF3DBE4
:1018A0005DE08848007809280ED1002409E08A48C4
:1018B000005D864908559048005D86490855601CC2
:1018C000C4B2062CF3DB4AE07E4800780A280ED129
:1018D000002409E08948005D7C4908558848005D7E
:1018E0007C490855601CC4B2062CF3DB37E0754810
:1018F00000780B280ED1002409E08248005D73496E
:1019000008558148005D73490855601CC4B2062C17
:10191000F3DB24E06B4800780C280ED1002409E0AA
:101920007A48005D694908557948005D694908555C
:10193000601CC4B2062CF3DB11E0624800780F286B
:101940000DD1002409E06448005D604908557148E4
:10195000005D60490855601CC4B2062CF3DB6E487C
:10196000007801283ED16D480068401C6B49086032
:1019700008460068B0F5C87F2CDC5248007805287E
:1019800003D050480078062807D16548007C5149AB
:1019900008716348007C487124E04A4800780228B6
:1019A00013D04848007803280FD046480078042810
:1019B0000BD044480078072807D042480078082810
:1019C00003D04048007809280CD15548007C414993
:1019D000487107E051480068B0F5487F02DB0020FD
:1019E0004E4908604F480078401C4E490870084630
:1019F00000780C2804DA0846007801F0E1FA0AE0E1
:101A0000484800780C2806DB002046490870084644
:101A1000007801F0D5FA444800780A2843DA4248B1
:101A20000078401C40490870084600780A283AD1DE
:101A30003E48007860B93E48007848B93D48007893
:101A400088BB03203B4908700120384908702AE010
:101A500036480078012802D13548007818B3334859
:101A6000007800BB3248007801281CD13248007849
:101A7000002818DD314800683149884207D22F48D4
:101A80000068401C2D49086001202E490870012083
:101A9000264908702C480078012804D12B49086099
:101AA00000202B4908702B4800780A2864DA29485E
:101AB0000078401C27490870084600780A284BE047
:101AC0000004004075000020CC000020C60000206B
:101AD000D2000020C000002008010020D800002013
:101AE000EA000020E4000020F0000020DE000020DA
:101AF000F6000020FC000020320100201A01002026
:101B000020010020260100202C0100203E010020A1
:101B10003801002002010020390000207800002058
:101B20009E000020760000204B0000209600002040
:101B3000970000203C0000203D0000208000002095
:101B40003F420F00990000208C000020A881214214
:101B50004A0000204C00002036D16148007860B96E
:101B60006048007848B96048007828B903205E4989
:101B7000087001205B49087026E059480078012868
:101B800021D158480078F0B95848007800281BDD6A
:101B9000574800685749884207D255480068401C9A
:101BA0005349086001205449087001204D490870CC
:101BB00052480078022807D10120514908600020CE
:101BC0005049087000E000BF10BD10B50121880722
:101BD00003F0F5FC00287DD00121880703F000FD0B
:101BE0004948006808B9012000E000204649086023
:101BF00046480088B0F5E16F03DB002043490880C8
:101C000004E042480088401C404908804048007871
:101C1000FF2816D03F480078142812DA3D48007893
:101C2000401C3C49087008460078142809DB3A48F3
:101C3000007830B9012039490870062138A001F038
:101C400006FE39480078012814D138480078401C35
:101C5000364908700846007808280BD008460078F6
:101C6000102807D100202649091D08602E49087058
:101C70002E4908702348007801280BDA21480078A3
:101C8000401C2049087008460078012802DB00202B
:101C90001B4908601548007800280CDD13480078BF
:101CA000401E124908700846007820B900200C49EF
:101CB00008700C4908700C48007800280EDD0A48AE
:101CC0000078401E084908700846007810B90020C6
:101CD000044900E002E008700149087010BD0000EE
:101CE00096000020970000203D0000203C000020CE
:101CF0007C0000203F420F00980000208C00002054
:101D0000A88121424A000020A00121424800002071
:101D10009A0000209B000020390000207500002060
:101D200005021300600600009D0000209C000020BA
:101D300010B504462146FE4802F0BEFC00BF022159
:101D4000FB4802F00CFD0028F9D010BD70B5044628
:101D50002546E11704EB1161C1F30720FFF7E8FF07
:101D6000E0B2FFF7E5FF70BD70B504460D461646BC
:101D70004FF48051EF4802F032F92846FFF7E6FFB2
:101D8000082101EB4411C9B241F00500FFF7D0FF73
:101D90003046FFF7CDFF4FF48051E64802F01DF9C1
:101DA00070BD70B504460D464FF48051E14802F015
:101DB00016F92846FFF7CAFF082101EB4411C9B202
:101DC00041F00100FFF7B4FFD94802F077FCC6B23A
:101DD0000020FFF7ADFFD64802F070FCC6B24FF40A
:101DE0008051D44802F0F9F8304670BD10B5044671
:101DF000022200212046FFF7B7FF012211462046AC
:101E0000FFF7B2FF052001F095FD03212046FFF703
:101E1000C8FF222806D0102201212046FFF7A4FF88
:101E2000002010BDFF20FCE710B504460122002170
:101E30002046FFF799FF012211462046FFF794FF45
:101E4000052001F077FD03212046FFF7AAFF1328A4
:101E500006D0102201212046FFF786FF002010BD8A
:101E6000042201212046FFF77FFFFF20F7E710B58E
:101E70000446012200212046FFF776FF0122114689
:101E80002046FFF771FF052001F054FD0321204695
:101E9000FFF787FF132806D0102201212046FFF705
:101EA00063FF002010BD022201212046FFF75CFFE6
:101EB000052001F03FFD03212046FFF772FF1428A3
:101EC00006D0102201212046FFF74EFF0020E9E74F
:101ED000FF20E7E710B598480078F8B997480078F0
:101EE00060B90020FFF7C3FFFF2803D1012092490A
:101EF000087020E00020904908701CE08F480078AE
:101F000001280CD10020FFF78FFFFF2803D101200B
:101F1000894908700FE00020874908700BE0002015
:101F2000FFF764FFFF2803D103208349087002E014
:101F300000208149087010BD70B505460E46144654
:101F40004FF480517B4802F04AF83046FFF7FEFE1E
:101F5000082101EB4511C9B241F00700FFF7E8FE87
:101F600014F8010BFFF7E4FE14F8010BFFF7E0FE95
:101F700014F8010BFFF7DCFE14F8010BFFF7D8FE95
:101F80004FF480516B4802F028F870BD70B50446DC
:101F90000D4616464FF48051664802F020F8284658
:101FA000FFF7D4FE082101EB4411C9B241F006004D
:101FB000FFF7BEFE3046FFF7C9FE4FF480515D4883
:101FC00002F00BF870BD10B5044640F2B452122175
:101FD0000020FFF7DBFF082C1ED2DFE804F0041618
:101FE0001718191A1B1C5648028804210020FFF7F5
:101FF000CDFF5448028810210020FFF7C7FF524A46
:102000000C210020FFF798FF07E006E005E004E060
:1020100003E002E001E000E000BF00BF10BD70B5CA
:1020200005460E464FF48051424801F0D8FF304635
:10203000FFF78CFE082101EB4511C9B241F0020007
:10204000FFF776FE3A4802F039FB04460020FFF71E
:102050006FFE374802F032FB04460020FFF768FEAF
:102060004FF6FF7000EA0424314802F027FB2044B9
:1020700084B24FF480512F4801F0AFFF204670BD6D
:102080002DE9F04707460D46904600213846FFF7F8
:1020900088FE00F00F0022280AD02C4A0C21384676
:1020A000FFF74AFF2A48028810213846FFF76EFFE3
:1020B00024213846FFF7B3FF0646B146C6F30A06A9
:1020C0004FF480511B4801F08AFF3046FFF73EFE77
:1020D000102101EB4711C9B241F00400FFF728FEBF
:1020E00006EB0800B0F5006F0ADA002405E015F8E9
:1020F000010BFFF71DFE601C84B24445F7DB3DE099
:10210000C6F5006086B2002405E015F8010BFFF764
:102110000FFE601C84B2B442F7DB4FF480510548D7
:1021200001F05BFF4FF48051024801F058FF11E0CD
:1021300000380040000C01406F0000206E000020BD
:10214000600000206600002062000020680000207F
:102150006C0000200020FFF7F9FD102101EB471172
:10216000C9B241F00400FFF7E3FD05E015F8010BEB
:10217000FFF7DEFD601C84B24445F7DB4FF480516D
:10218000FE4801F02AFF09EB08001FFA80F94A46D1
:1021900024213846FFF7FAFE202201213846FFF7B6
:1021A000E3FDBDE8F08770B504460D46F4480078BD
:1021B000032811D1F348007820F00200F14908709B
:1021C0002A462146F04803F005FD2A46EE49002044
:1021D000FFF756FF012070BD0020FFF7F4FEFFF768
:1021E00079FE0020F7E770B505460C464FF48051A4
:1021F000E24801F0F4FE2846FFF7A8FD0520FFF7AE
:1022000097FD2046FFF794FD4FF48051DB4801F025
:10221000E4FE70BD70B505460C464FF48051D748BA
:1022200001F0DDFE2846FFF791FD0620FFF780FD57
:102230002046FFF78BFD4FF48051D04801F0CDFED2
:1022400070BD2DE9F04107460C4615464FF480510C
:10225000CA4801F0C4FE3846FFF778FD0420FFF7B6
:1022600067FD002605E014F8010BFFF761FD701C07
:1022700086B2AE42F7DB4FF48051C04801F0ADFEAC
:10228000BDE8F08110B5002480210020FFF7ABFFEE
:102290000A2001F04FFB0422BC490120FFF7D1FFC7
:1022A0000422BB490520FFF7CCFF0622B9490920CB
:1022B000FFF7C7FF0422B8490F20FFF7C2FF00BF96
:1022C0000BE002221E212046FFF74EFD02221F21B5
:1022D0002046FFF749FD601CC4B2082CF1DB4FF427
:1022E000FA611920FFF796FF08211B20FFF77BFFFB
:1022F000C0211620FFF777FF01211820FFF773FF99
:102300001F222C210020FFF72FFD01222F2100206A
:10231000FFF72AFD10BD08B517208DF80000012039
:102320008DF8010002208DF8020001208DF80300D5
:10233000684601F0DCFC08BD10B58021974801F02B
:102340004EFE322001F0F6FA8021944801F045FE5D
:10235000C82001F0EFFA10BD10B5002410218F48FD
:1023600001F021FE08B1002000E008202044C4B2A2
:1023700020218A4801F017FE08B1002000E0042067
:102380002044C4B24FF48041844801F00CFE08B1EF
:10239000002000E002202044C4B24FF400417F48F6
:1023A00001F001FE08B9012000E000202044C4B281
:1023B00014B104F10A00C4B2204610BD10B5FFF7F5
:1023C000CBFF10B97448C07801E0FFF7C5FF724930
:1023D000C870FFF7C1FF10B96E48407901E0FFF700
:1023E000BBFF6C49487101206D49087010BD0EB5E6
:1023F0000121082002F000F88020ADF8080001203B
:102400008DF80A0010208DF80B0002A9634801F036
:1024100037FD8021614801F0E2FD4020ADF8080061
:1024200003208DF80A0048208DF80B0002A95B48B4
:1024300001F026FD0621022001F038FE4020009028
:1024400000208DF804000C208DF8050001208DF887
:102450000600684603F0DAFA0EBD00B587B0012128
:1024600041F22D0001F0C8FF0121880301F0D1FFE6
:102470004FF46040ADF8180003208DF81A001820C2
:102480008DF81B0006A93D4801F0FAFC4FF46041AD
:102490003A4801F0A2FD4FF48050ADF81800032037
:1024A0008DF81A0010208DF81B0006A9334801F0A2
:1024B000E7FC4FF48051314801F08FFD0020ADF86A
:1024C00004004FF48270ADF806000020ADF808005B
:1024D000ADF80A00ADF80C004FF40070ADF80E0036
:1024E0000020ADF81000ADF812000720ADF8140080
:1024F00001A92C4802F00AF801212A4802F0ABF8A1
:1025000007B000BD10B5FFF7A8FFFFF770FFFFF79A
:1025100055FFFFF711FFFFF7FEFEFFF7B3FE0020A8
:10252000FFF751FDFFF7D6FC10BD2DE9F0478046BF
:102530000D4626214046FFF772FD064616B90020DB
:10254000BDE8F08740F2B450864200DD06462821FF
:102550004046FFF764FD0746B946C7F30A074FF444
:102560008051064801F03BFD3846FFF7EFFB18218C
:1025700001EB4811C8B2FFF7DBFB15E0000C01408E
:102580006F000020700000207C0900205C0000200B
:10259000580000204E000020540000200010014090
:1025A0006E00002000380040BE4802F087F800F0BE
:1025B000FF0AB819B0F5006F11DA00240CE0002012
:1025C000FFF7B6FBB74802F079F800F0FF0A85F88C
:1025D00000A06D1C601C84B2B442F0DB3BE0C7F588
:1025E000006087B200240CE00020FFF7A1FBAD489B
:1025F00002F064F800F0FF0A85F800A06D1C601C72
:1026000084B2BC42F0DB4FF48051A74801F0E5FCF6
:102610004FF48051A44801F0E2FC0020FFF796FB44
:10262000182101EB4811C8B2FFF782FB9D4802F068
:1026300045F800F0FF0A0CE00020FFF779FB99480D
:1026400002F03CF800F0FF0A85F800A06D1C601C49
:1026500084B2B442F0DB4FF48051934801F0BDFCEA
:1026600009EB06001FFA80F94A4628214046FFF789
:102670008DFC402201214046FFF776FB30465FE7A4
:1026800070B5044689492046FFF74FFF054670BDE7
:1026900070B504464FF48051834801F0A0FC2046F9
:1026A000FFF754FB0120FFF743FB7E4802F006F8DA
:1026B000C5B20020FFF73CFB7A4801F0FFFFC5B22E
:1026C0004FF48051784801F088FC284670BD70B501
:1026D00000BF77A003F046FB00207B49087015205F
:1026E000FFF7D6FF054605F0F0011520FFF77BFD4B
:1026F0001720FFF7CDFF054605F0010000285CD04C
:1027000002210020FFF74DFB044622460221002053
:10271000FFF72AFB04F0010040B16C48007840F05C
:1027200002006A4908706AA003F01CFB04F0020072
:1027300078B1102201210020FFF716FB0020FFF7DF
:1027400042FC002061490870FFF7C4FB6AA003F057
:1027500009FB04F0100040B16E48007840F0020020
:102760006C4908706CA003F0FDFA04F0040088B115
:102770006848007840F00100664908706EA003F0D8
:10278000F1FA0020FFF77CFF6248007820F001009A
:102790006049087004F0080078B11022012100207F
:1027A000FFF7E2FA0020FFF70EFC6AA003F0DAFA66
:1027B000002046490870FFF78DFB1720FFF768FFE0
:1027C00000B186E770BD10B5402003F085F938B13F
:1027D000402003F092F901203B490870FFF777FF92
:1027E00010BD38B564480078401CC0B28DF80000B8
:1027F00061484078401CC0B28DF801005E48807886
:10280000401CC0B28DF802005B48C078401CC0B2CA
:102810008DF803006A460C210020FFF78DFB012292
:1028200000210846FFF7A0FA012211460020FFF719
:102830009BFA052001F07EF803210020FFF7B1FA92
:10284000132806D0102201210020FFF78DFA002066
:1028500038BD042201210020FFF786FA00BF0024C2
:1028600002210020FFF79DFA044624B122460221EE
:102870000020FFF779FA052001F05CF804F0080069
:10288000082801D10020E3E706210020FFF789FA9C
:10289000FF2806D0102201210020FFF765FAFF2053
:1028A000D6E7DCE700380040000C01407C01002046
:1028B000BDF8C8EBB5BD5735353030CDE2B2BFD627
:1028C000D0B6CF0D0A0D0A00710000206F00002065
:1028D000544350B7FECEF1C6F7C1ACBDD3CDEAB379
:1028E000C9A3ACBFC9D2D4D5FDB3A3B4ABCAE4CAA3
:1028F000FDBEDD0D0A0D0A00B7FECEF1C6F7C1AC74
:10290000BDD3CAA7B0DC2CD5FDD4DAD6D8CAD40D35
:102910000A0D0A0070000020544350B6CBBFDAB74E
:10292000A2CBCDD2BBB8F6CAFDBEDDB0FCCDEAB3BA
:10293000C90D0A0D0A000000544350B6CBBFDABDE2
:10294000D3CAD5B5BDD2BBB8F6CAFDBEDDB0FC0D4D
:102950000A0D0A00536F636B6574C1ACBDD3BBF243
:10296000CAFDBEDDB4ABCAE4B3ACCAB1B4A6C0ED17
:10297000200D0A0D0A0000005400002070B5054625
:102980000C4645F2555003F0C1F8284603F0C1F853
:10299000204603F0C1F803F0C2F803F0C5F870BD9B
:1029A00010B503F0BCF810BD08B500208DF800008C
:1029B00001208DF8010003208DF80200684601F027
:1029C00096F908BD70B506460C4615460121C802A9
:1029D00001F01FFD284603F0C4F8204603F0CAF8B2
:1029E000304603F0E2F803F0EBF8FFF7DDFF03F009
:1029F000D2F870BD10B50446204603F0D6F810BDDD
:102A000010B57F2003F0CBF803F0DAF810BD00001A
:102A100008B50121042001F0EFFC4FF48070ADF8FF
:102A2000000010208DF8030003208DF80200694695
:102A3000624801F025FA4FF48071604801F0CFFA46
:102A40000121082001F0D8FC0121084601F0D4FC46
:102A500001215B4801F0E5FA40F61340ADF80000B3
:102A600010208DF8030003208DF8020069465548B8
:102A700001F006FA40F61341524801F0B0FA012184
:102A8000102001F0B9FC4FF44040ADF800001020D8
:102A90008DF8030003208DF8020069464A4801F0D2
:102AA000EFF94FF44041484801F099FA08BD10B5DC
:102AB0000446012C09D10020444908604449C1F86A
:102AC000B80101204349086016E0022C0AD1002019
:102AD0003E49086001203E49C1F8B80100203D4947
:102AE000086009E0032C07D1002038490860384904
:102AF000C1F8B8013749086001203449091F08604E
:102B00003549C1F8AC014FF4967000F013FF002076
:102B10002E49091F08603049C1F8AC01642000F05B
:102B200009FF01202949091F08602B49C1F8AC01A0
:102B30004FF4967000F0FEFE00202449091F086043
:102B40002549C1F8AC01642000F0F4FE10BD10B5B9
:102B50000446012C09D100201C4908601C49C1F819
:102B6000B80101201B49086016E0022C0AD10020A0
:102B70001649086001201649C1F8B801002015491E
:102B8000086009E0032C07D10020104908601049B3
:102B9000C1F8B8010F49086001200C49091F0860FD
:102BA0000D49C1F8AC01962000F0C4FE0020074991
:102BB000091F08600849C1F8AC0110BD00080140B8
:102BC00000013000000C01400010014084812142CE
:102BD00000002242BC0122420080214208B50121AE
:102BE000042001F009FC0720ADF8000010208DF84A
:102BF000030003208DF802006946F84801F040F90F
:102C00000721F64801F0EBF90121082001F0F4FB5F
:102C10004FF47040ADF8000010208DF80300032041
:102C20008DF802006946EE4801F02AF94FF4704130
:102C3000EB4801F0D4F908BD10B5014601294ED189
:102C4000E84A12680A23B2FBF3F403FB1420E64AB5
:102C5000125CE64B5A71E34A12680A23B2FBF3F2A4
:102C6000B2FBF3F403FB1420DF4A125CDF4B1A7152
:102C7000DC4A12686423B2FBF3F20A23B2FBF3F4DA
:102C800003FB1420D84A125CD84BDA70D54A12687C
:102C90004FF47A73B2FBF3F20A23B2FBF3F403FBB3
:102CA0001420D14A125CD14B9A70CE4A126842F27B
:102CB0001073B2FBF3F20A23B2FBF3F403FB14200C
:102CC000C94A125CC94B5A70C64A1268C84BB2FB5B
:102CD000F3F2D0B2C44A125CC44B1A704FE002291E
:102CE0004DD1C44A12680A23B2FBF3F403FB14204B
:102CF000BD4A125CC04B5A71BE4A12680A23B2FB2D
:102D0000F3F2B2FBF3F403FB1420B74A125CBA4BA4
:102D10001A71B84A12686423B2FBF3F20A23B2FBB9
:102D2000F3F403FB1420B04A125CB34BDA70B14ADF
:102D300012684FF47A73B2FBF3F20A23B2FBF3F496
:102D400003FB1420A84A125CAB4B9A70A94A126884
:102D500042F21073B2FBF3F20A23B2FBF3F403FB6B
:102D60001420A14A125CA44B5A70A24A1268A04BCC
:102D7000B2FBF3F2D0B29C4A125C9F4B1A7010BDAA
:102D800010B50146002215E000239C4C236001F0A1
:102D90008003802B03D10123241D236003E0002343
:102DA000964C241D23600123944C23604B06190E7E
:102DB000531CDAB2082AE7DB10BD10B501460A46FB
:102DC000002020E000238D4C2360082811DA02F057
:102DD0008003802B03D10123241D236003E0002303
:102DE000864C241D23600123844C236053061A0E55
:102DF00007E00023814C241D23600123804CC4F88C
:102E00008431431CD8B21028DCDB10BD00207B4984
:102E1000091F086001207A49C1F880010020774924
:102E2000091F0860704710286FD2DFE800F008150E
:102E30002332404F5F6F7D8B9AAAC6C6C6B9002168
:102E4000704A1160704AC2F8B4116E4A08321160BB
:102E50006D4AC2F8BC11B1E001216A4A116000213B
:102E6000694AC2F8B411674A08321160664AC2F86A
:102E7000BC11A3E00021634A11600121624AC2F83B
:102E8000B41100215F4A083211605F4AC2F8BC11D8
:102E900094E001215B4A11605B4AC2F8B411002141
:102EA000584A08321160584AC2F8BC1186E0002125
:102EB000544A1160544AC2F8B4110121514A0832EF
:102EC00011600021504AC2F8BC1177E001214D4A3F
:102ED000116000214C4AC2F8B4110121494A08325C
:102EE00011600021484AC2F8BC1167E00021454A40
:102EF00011600121444AC2F8B411424A08321160FB
:102F00000021414AC2F8BC1158E056E001213D4A77
:102F100011603D4AC2F8B4113A4A083211600021EA
:102F2000394AC2F8BC1149E00021364A1160364ADC
:102F3000C2F8B411334A083211600121324AC2F892
:102F4000BC113BE001212F4A116000212E4AC2F83A
:102F5000B4112C4A0832116001212B4AC2F8BC116D
:102F60002CE00021274A11600121274AC2F8B41140
:102F70000021244A083211600121234AC2F8BC1101
:102F80001CE001211F4A11601F4AC2F8B411002140
:102F90001C4A0832116001211B4AC2F8BC110DE025
:102FA0000121184A1160184AC2F8B411154A0832B2
:102FB0001160154AC2F8BC1100E000BF00BF7047A5
:102FC00030B505462C462046FFF72DFF052C1FDCAB
:102FD0000E49085DFFF7D4FE1FE000000008014025
:102FE000000C01407C0000209E000020CC0000204E
:102FF000A086010080000020D20000208401214230
:1030000000002142B081214200802142C000002006
:10301000A11F424A505CFFF7D0FEFFF7F7FE30BD1C
:10302000014601290AD13E4A10683E4BD870020A77
:103030009A70020C5A70020E1A700BE0022909D124
:10304000394A1068394BD870020A9A70020C5A70CB
:10305000020E1A70704710B50120354908606420CF
:1030600000F068FC00203349C1F8AC0110BD70B518
:103070000546314885700B2D0AD1294804682E4930
:10308000CC71200A8871200C4871200E08710BE069
:103090000C2D09D1244804682749CC71200A887175
:1030A000200C4871200E0871052023490870062065
:1030B00048700020C87060200872062048720A21FB
:1030C0001D4800F0C4FB70BD7CB505460E460024CB
:1030D00005222146641C0DF8012003222146641CB0
:1030E0000DF801202146641C0DF8015000222146F4
:1030F000641C0DF801202146641C0DF8016060225B
:103100002146641C0DF8012006222146641C0DF89E
:1031100001200721684600F09AFB7CBDC600002014
:103120007C00002004000020800000200800002017
:10313000AC812142008021427C11002010B5044660
:1031400000BF0221F64801F00AFB0028F9D0214611
:10315000F34801F0B1FA00BF0121F14801F0FFFA94
:103160000028F9D0EE4801F0A9FAC0B210BD10B5A0
:103170000020EC490860AB20FFF7E0FF0120EA499E
:10318000C1F8900110BD00B587B00121042001F005
:1031900033F90121080301F02FF90121084601F05C
:1031A0002BF92020ADF8040003208DF8060018202C
:1031B0008DF8070001A9DD4800F062FE8020ADF81F
:1031C000040001A9D94800F05BFE4020ADF80400DE
:1031D00048208DF8070001A9D44800F051FE1020C6
:1031E000ADF804008DF8070001A9D04800F048FEB2
:1031F0000120CC4908600020ADF808004FF482702F
:10320000ADF80A000020ADF80C000220ADF80E0069
:103210000120ADF810004002ADF812000820ADF812
:1032200014000020ADF816000720ADF8180002A920
:10323000BB4801F06BF90121B94801F00CFAFFF726
:1032400096FF07B000BD10B500240020B549086006
:103250000520FFF773FF00BFA520FFF76FFF0446AF
:1032600004F001000028F7D10120AE49086010BD2C
:1032700010B50020AB4908600620FFF75FFF012072
:10328000A949C1F8900110BD10B50446FFF7F0FF41
:103290000020A44908602020FFF750FFC4F3074036
:1032A000FFF74CFFC4F30720FFF748FFE0B2FFF73A
:1032B00045FF01209C49C1F89001FFF7C4FF10BDF4
:1032C00010B5FFF7D5FF002096490860C720FFF72B
:1032D00035FF01209449C1F89001FFF7B4FF10BDFC
:1032E00070B505460C461646FFF7C2FF00208D4913
:1032F00008600220FFF722FFC4F30740FFF71EFF1C
:10330000C4F30720FFF71AFFE0B2FFF717FFB6F587
:10331000807F01DD4FF4807603E02878FFF70EFF11
:103320006D1C301EA6F101018EB2F6D101207D493F
:103330000860FFF788FF70BD2DE9F05F07460E4675
:1033400014464FF00008C146C2460025AB4606F0C1
:10335000FF0ACAF10000C5B22046E11704EB116173
:10336000C1F30728E11704EB11610912A4EB012155
:1033700001F0FF09BAF1000F20D1B8F1000F05D11B
:10338000224631463846FFF7ABFF64E009E04FF4D0
:10339000807231463846FFF7A3FF06F5807607F5C1
:1033A0008077B8F10000A8F1010101F0FF08EED12B
:1033B0004A4631463846FFF793FF4CE0B8F1000F1C
:1033C00018D1A94510DDA9EB050000F0FF0B2A4636
:1033D00031463846FFF784FF2E442F445A46314683
:1033E0003846FFF77DFF36E0224631463846FFF784
:1033F00077FF30E0601B84B22046E11704EB1161D7
:10340000C1F30728E11704EB11610912A4EB0121B4
:1034100001F0FF092A4631463846FFF761FF2E4486
:103420002F4409E04FF4807231463846FFF758FFC9
:1034300006F5807607F58077B8F10000A8F1010164
:1034400001F0FF08EED1B9F1000F04D04A46314631
:103450003846FFF745FFBDE8F09F70B505460C46BE
:10346000164600202F4908600320FFF767FEC4F3CB
:103470000740FFF763FEC4F30720FFF75FFEE0B2EB
:10348000FFF75CFE04E0A520FFF758FE28706D1CD6
:10349000301EA6F101018EB2F5D10120214908604C
:1034A00070BD2DE9F04100240025002600270020F2
:1034B0001C4908609F20FFF741FEA520FFF73EFE54
:1034C0000546A520FFF73AFE0646A520FFF736FE83
:1034D000074601201449C1F89001280440EA06205B
:1034E00040EA07042046BDE8F08110B50024002022
:1034F0000C490860AB20FFF721FEA520FFF71EFE58
:10350000A520FFF71BFEA520FFF718FEA520FFF75B
:1035100015FE044601200449C1F89001204610BD63
:10352000003001409001214200002142000801408A
:1035300010B5044600201D4908600320FFF7FEFD7A
:10354000C4F30740FFF7FAFDC4F30720FFF7F6FDC9
:10355000E0B2FFF7F3FD10BD10B5A520FFF7EEFDBB
:1035600010BD10B5044600BF0221114801F0F7F864
:103570000028F9D021460E4801F09EF800BF012135
:103580000B4801F0ECF80028F9D0094801F096F852
:1035900010BD10B5002005490860B920FFF7CEFD29
:1035A00001200449C1F8900110BD000090012142A2
:1035B00000300140000021421FB50121052000F02C
:1035C0001BFF4FF4C050ADF8000028208DF8030019
:1035D0006946294800F054FC0B21002000F066FDEC
:1035E0004FF40060029000208DF80C0008208DF848
:1035F0000D0001208DF80E0002A802F007FA0C2140
:10360000002000F053FD4FF48050029000208DF810
:103610000C0008208DF80D0001208DF80E0002A886
:1036200002F0F4F928208DF8040000208DF8050040
:1036300001208DF806008DF8070001A800F057FB67
:103640001FBD10B54FF4006002F046FA38B10020FB
:103650000A4908704FF4006002F04FFA0BE04FF493
:10366000805002F039FA30B10020054908704FF45B
:10367000805002F042FA10BD000801404B000020CB
:103680004C00002010B54FF4C06000F02BFB10BDC3
:10369000014600BF704710B50A46C1B28B4B1B688C
:1036A00003F080739BB18A4B1B6803F0010373B175
:1036B000874B803B1B6803F0010343B100BF4FF011
:1036C00060431B68002BFAD04FF06044217000BFAC
:1036D00010BD00B587B0012144F23D0000F08CFE22
:1036E0004FF40070ADF8180003208DF81A00182070
:1036F0008DF81B0006A9774800F0C2FB4FF48060EC
:10370000ADF8180004208DF81B0006A9714800F0E0
:10371000B7FB25208DF8040000208DF805008DF8FA
:10372000060001208DF8070001A800F0E0FA002053
:10373000ADF80C00ADF80E00ADF81000ADF81400B7
:103740000C20ADF812004FF4E130029002A962485B
:1037500001F08DFF012240F225515F4802F01FF871
:1037600001215D4802F00FF807B000BD10B540F22E
:103770002551594802F0F8F8002854D040F225515C
:10378000554802F01BF9544802F06EF8C1B2534894
:1037900002680068401C514B186051488154007801
:1037A000052803D00020194608603CE04B4800681B
:1037B000401E4B49085C062835D148480068801EE9
:1037C000085C60282FD10846407846490860434885
:1037D000016844480068001D814224D14048807837
:1037E000414908703E48C078404908703D4800682B
:1037F00002280DDD002005E0394A011D515C3C4ADC
:103800001154401C37490968891E8142F4DC00BF0D
:103810004FF48061324802F0F6F900202F49086029
:1038200001203449087010BD10B504460BE000BFFC
:103830008021294802F082F80028F9D02178264812
:1038400002F00EF8641C20780028F0D110BD70B58D
:1038500004460D4600260DE000BF80211E4802F000
:103860006DF80028F9D021781B4801F0F9FF641C9D
:10387000701CC6B2AE42EFDB70BD10B504460BE063
:1038800000BF80211C4802F059F80028F9D02178A7
:10389000194801F0E5FF641C20780028F0D110BD24
:1038A00070B504460D4600260DE000BF8021124889
:1038B00002F044F80028F9D021780F4801F0D0FF39
:1038C000641C701CC6B2AE42EFDB70BDFCED00E0C4
:1038D000800E00E000080140003801404C0100204B
:1038E00090150020580100205E0100205F0100209B
:1038F000B01C002051010020004400404FF0E021A6
:10390000096921F004014FF0E0221161C21700EBB8
:103910005272C2F3C702E54B1A701946097801EBDF
:103920004102C2EBC1114FF6FF7202EAC101E04A47
:10393000118070470146DE4A12884A434FF0E02367
:103940005A6100229A6101221A6100BF4FF0E02201
:10395000106900F001021AB100F48032002AF5D09B
:1039600000224FF0E0231A619A61704710B50446B7
:1039700004E04FF47A70FFF7DDFF641E002CF8D1ED
:1039800010BD0146C94A12784A434FF0E0235A61FC
:1039900000229A6101221A6100BF4FF0E0221069F3
:1039A00000F001021AB100F48032002AF5D00022A2
:1039B0004FF0E0231A619A6170470146302905DB18
:1039C000392903DCA1F13000C0B27047612905DB61
:1039D000662903DCA1F15700C0B2F6E7412905DBF7
:1039E000462903DCA1F13700C0B2EEE70846ECE758
:1039F00030B502460B46002405E012F8010BFFF734
:103A0000DCFF04FB030410780028F6D1A0B230BD1F
:103A100030B502460B46002405E012F8010BFFF713
:103A2000CCFF04FB030410780028F6D1204630BDFB
:103A30002DE9F04104460D461646701EC7B22022FD
:103A40003146284602F0D8F800BF0A2094FBF0F176
:103A500000FB11403030C2B23846791ECFB22A5432
:103A60000A2094FBF0F080B2041EEEDCBDE8F08189
:103A70002DE9F04104460F46904626460CB12078C9
:103A800010B90020BDE8F0810BE03078FFF795FF1A
:103A90000546002D03DBBD4201DA761C01E0002063
:103AA000F0E730780028F0D1B9B22046FFF7A0FF48
:103AB000C8F800000120E5E710B50B46002104E03E
:103AC000445C9C4200D14254491C445C002CF7D118
:103AD00010BD014600200A06100C40EA1120704774
:103AE000014600200806C1F3072240EA0240C1F364
:103AF000074240EA022040EA116070472DE9F04792
:103B000081460E4617461D463146484602F086F865
:103B10000446304602F0A0F804443946204602F03C
:103B20007DF88246AAEB04001FFA80F8424621463F
:103B3000284602F085F8002005F80800BDE8F08767
:103B40002DE9F04188B006460F463146684602F03E
:103B50008AF86C4600251BE056A1204602F08CF83E
:103B600004462078302809D16078782806D11021C1
:103B7000A01CFFF73DFF00F0FF0805E00A212046EA
:103B8000FFF736FF00F0FF0807F8058000246D1CE2
:103B9000042DE1DB08B0BDE8F08110B5044620211A
:103BA000454802F030F8444810BD10B504461021D5
:103BB000424802F028F8414810BDF0B58FB00646E3
:103BC0000F4601AC314601A802F04DF800252AE06D
:103BD00038A1204602F050F8044614B900200FB076
:103BE000F0BD207830280AD16078782807D10EAA55
:103BF0001021A01CFFF73CFF48B90020EFE70EAAF8
:103C00000A212046FFF734FF08B90020E7E70E98A5
:103C100078550E98002802DB0E98FF2801DD002061
:103C2000DDE700246D1C042DD2DB0120D7E700B5B1
:103C300003461846FFF74DFF00BD00B50346184682
:103C4000FFF74EFF00BD10B504462046FFF7EFFF1B
:103C500010BD10B504462046FFF7EFFF10BDF0B5CC
:103C600002460D46C5F34F06002400210EE012F86F
:103C700011304FF6FF7707EA0323012707EB4107CF
:103C8000D75D1F44BBB21C444F1CB9B2B142EEDB3E
:103C900005F001071FB112F8113004EB0324A0B2A4
:103CA00000EB1447FF43B8B2F0BD000060010020F4
:103CB000620100202E000000C41C0020E41C002033
:103CC0000648804706480047FEE7FEE7FEE7FEE7B6
:103CD000FEE7FEE7FEE7FEE7FEE7FEE7DB0C000897
:103CE0003101000831490143314A1160704770B514
:103CF000002100230F22C47804B32D4C246804F45F
:103D0000E064C4F5E064210AC1F10403CA404478C8
:103D100004FA03F18478144021430901254C067804
:103D2000A155047804F01F050124AC4005786D11FD
:103D3000AD0005F1E025C5F8004109E0047804F084
:103D40001F050124AC401C4D0678761145F826402D
:103D500070BD1A4A0A400243154B1B1F1A60704778
:103D600039B1134A121D12680243114B1B1D1A6010
:103D700006E00F4A121D126882430D4B1B1D1A608C
:103D80007047042808D14FF0E021096941F004018F
:103D90004FF0E022116107E04FF0E021096921F0C6
:103DA00004014FF0E0221161704700000000FA05A5
:103DB0000CED00E000E400E080E100E080FFFF1F88
:103DC00010B50446CC48844208D10121042000F0FB
:103DD0002DFB0021042000F029FB46E0C748844267
:103DE00008D10121082000F021FB0021082000F06B
:103DF0001DFB3AE0C248844208D10121102000F0A6
:103E000015FB0021102000F011FB2EE0BD4884427C
:103E100008D10121202000F009FB0021202000F022
:103E200005FB22E0B848844208D10121402000F07F
:103E3000FDFA0021402000F0F9FA16E0B348844270
:103E400008D10121802000F0F1FA0021802000F04B
:103E5000EDFA0AE0AE48844207D10121801500F056
:103E6000E5FA0021A01500F0E1FA10BD10B501211E
:103E7000084600F0DBFA0021012000F0D7FA10BD5F
:103E80002DE9F041024600250026002000230024F1
:103E9000002791F803C00CF00F0591F803C00CF057
:103EA000100CBCF1000F03D091F802C04CEA0505DC
:103EB00091F800C0BCF1000F31D0146800202BE055
:103EC0004FF0010C0CFA00F3B1F800C00CEA030645
:103ED0009E4220D183004FF00F0C0CFA03F7BC4335
:103EE00005FA03FC4CEA040491F803C0BCF1280F66
:103EF00006D14FF0010C0CFA00FCC2F814C00AE025
:103F000091F803C0BCF1480F05D14FF0010C0CFA39
:103F100000FCC2F810C0401C0828D1D31460B1F8CE
:103F200000C0BCF1FF0F34DD546800202EE000F12A
:103F3000080C4FF0010808FA0CF3B1F800C00CEAC5
:103F400003069E4221D183004FF00F0C0CFA03F7B9
:103F5000BC4305FA03FC4CEA040491F803C0BCF12D
:103F6000280F05D100F1080C08FA0CF8C2F81480EB
:103F700091F803C0BCF1480F07D100F1080C4FF0D5
:103F8000010808FA0CF8C2F81080401C0828CED3AB
:103F90005460BDE8F0814FF6FF710180022181700D
:103FA0000421C17070470246002093680B400BB19A
:103FB000012000E0002070470146886880B2704709
:103FC00002460020D3680B400BB1012000E0002026
:103FD00070470146C86880B270470161704741610F
:103FE00070470AB1016100E041617047C1607047EC
:103FF0004FF480320A438261816182618269826901
:10400000704702460020434B18684FF680731840F3
:1040100040EA021008433F4B186070473E49C861B0
:104020007047F0B50A46002300240021002500F067
:104030000046B6F1004F02D1364EF16901E0354E2F
:104040007168C0F3034583B200F44016B6F5401F13
:1040500008D121F070612F4E766826F070662D4FE2
:104060007E6012E000F48016B6F5801F06D10326AC
:1040700006FA05F4A14341F0706106E0460D3601F1
:1040800003FA06F6B14341F0706122B1460D3601E4
:1040900003FA06F6314300F00046B6F1004F02D1B4
:1040A0001C4EF16101E01B4E7160F0BD30B5002285
:1040B0008B071C0F0F2303FA04F2164B08338C10E6
:1040C00053F824309343134C08348D1044F82530B2
:1040D00023468C1053F824308C07240F00FA04F484
:1040E00023430C4C08348D1044F8253030BD0A4968
:1040F000DC3108607047000000080140000C0140FE
:10410000001001400014014000180140001C014053
:10411000002001400000014000002042DF4800680C
:1041200040F00100DD49086008464068DC4908406D
:10413000DA49486008460068DA490840D74908600B
:104140000846006820F4802008600846406820F493
:10415000FE0048604FF41F0088607047CF4909682F
:1041600021F48031CD4A11601146096821F4802183
:104170001160B0F5803F03D0B0F5802F0ED106E07E
:10418000C649096841F48031C44A116007E0C34957
:10419000096841F4A021C14A116000E000BF00BFDE
:1041A000704710B501460022002300204A11012A61
:1041B00002D1BA4C236806E0022A02D1B74C236A26
:1041C00001E0B64C636A01F01F02012494401C40D8
:1041D0000CB1012000E0002010BD38B50020009097
:1041E0000024002500BF3120FFF7DBFF05460098C3
:1041F000401C00900098B0F5A06F01D0002DF2D0C7
:104200003120FFF7CEFF08B1012400E00024204652
:1042100038BD01460020A14A106820F0F80040EAAD
:10422000C10010607047A049086070470246002036
:104230009A4B586820F47C1042EA01031843974BCC
:104240005860704798490866704701460020934AB5
:10425000506820F003000843506070478F48406862
:1042600000F00C007047014600208C4A506820F096
:10427000F00008435060704701460020874A5068AC
:1042800020F4E06008435060704701460020834AF4
:10429000506820F4605040EAC1005060704729B176
:1042A0007E4A527A02437D4B5A7204E07B4A527A2C
:1042B00082437A4B5A7270477B49D8310860704705
:1042C00001460020754A506820F440400843506081
:1042D00070470021714A20321170704A82F8201014
:1042E000012802D004280AD104E001216B4A2032BF
:1042F000117005E00521694A2032117000E000BF0D
:1043000000BF70476949086070476449096A014302
:10431000624A11627047654944390860704730B598
:1043200000210022002400235C4D6D6805F00C0183
:1043300021B1042905D0082923D105E05C4D056091
:1043400022E05B4D05601FE0544D6D6805F470126E
:10435000524D6D6805F48034022505EB92421CB97C
:10436000544D554305600BE04C4D6D6805F4003528
:104370001DB1504D5543056002E04D4D554305605C
:1043800002E04B4D056000BF00BF444D6D6805F075
:10439000F0010909484D6B5C0568DD4045603F4D03
:1043A0006D6805F4E061090A434D6B5C4568DD40CA
:1043B00085603A4D6D6805F46051C90A3E4D6B5CED
:1043C0004568DD40C560354D6D6805F44041890B99
:1043D0003A4D6B5CC568B5FBF3F5056130BD29B19D
:1043E0002E4A526902432D4B5A6104E02B4A52690E
:1043F00082432A4B5A61704729B1284A9269024385
:10440000264B9A6104E0254A92698243234B9A61C4
:10441000704729B1214AD2690243204BDA6104E096
:104420001E4AD26982431D4BDA61704729B11B4A8B
:10443000D2680243194BDA6004E0184AD26882431A
:10444000164BDA60704729B1144A12690243134BC4
:104450001A6104E0114A12698243104B1A617047D5
:1044600012494039086070470F49C86470470B49CA
:10447000C87170470948406A40F080700749486237
:10448000704701460020054A92680A400AB101209F
:1044900000E0002070470149887270470010024018
:1044A0000000FFF8FFFFF6FE000042428004424297
:1044B00000127A0000093D00640100207401002010
:1044C00010B50446BE48844208D101218014FFF78C
:1044D000ADFF0021A014FFF7A9FF16E0B948844200
:1044E00008D101210014FFF7AEFF00212014FFF7CF
:1044F000AAFF0AE0B448844207D10121C013FFF7A4
:10450000A2FF0021E013FFF79EFF10BD10B50022AF
:10451000028802F441520B884C8823438C88234341
:10452000CC8823430C8923434C8923438C89234320
:10453000CC8923431A430280838B4FF2FF742340BC
:1045400083830B8A038210BD2DE9F04F85B00546A9
:104550000C464FF0000902274FF000084FF0010B06
:104560000026B246A88B4FF240010840A8830220E3
:104570002884B5F81C90A068022801D100BF38E05B
:10458000A08810B94FF0010B01E04FF0020B8D48ED
:10459000854200D100E000BF6846FFF7C0FEDDF8AD
:1045A00000A0E088B0F5007F0AD14FEA1A2000EBA6
:1045B00080004000A168B0FBF1F0401D86B20BE026
:1045C0004FEA4B10BAFBF0F000EB80004000A1680E
:1045D000B0FBF1F0401D86B20A20B6FBF0F606F003
:1045E0000108A6EB0800C0F34F074FF6FF7000EA82
:1045F0000828022F01DBFF2F02DD02274FF0000801
:10460000E08840EA080038432884A088A18908434C
:10461000618808432188084340F4006040EA0909A2
:10462000A5F81C9005B0BDE8F08F00210180418005
:104630008180C180018141818181C1810721018205
:1046400070470021018041808180C180022181600A
:1046500000218181704721B1028842F0400202802E
:1046600004E002884FF6BF731A400280704721B100
:10467000828B42F48062828304E0828B4FF6FF33A8
:104680001A408283704730B5002400230C110125A5
:10469000A540ABB21AB185881D43858002E08588AC
:1046A0009D43858030BD1AB183880B43838002E02F
:1046B00083888B4383807047818170470146888956
:1046C00070474FF6FF62914204D0028842F4807234
:1046D000028004E002884FF6FF631A4002807047B0
:1046E00021B1828842F00402828004E082884FF681
:1046F000FB731A408280704702884FF2FF731A40A2
:10470000028002880A4302807047018841F4805188
:104710000180704721B1028842F40052028004E017
:1047200002884DF6FF731A4002807047024600204F
:10473000012901D0108B00E0908A70470146088A59
:104740007047B1F5804F04D1028842F48042028064
:1047500004E002884BF6FF731A400280704702465D
:10476000002013890B400BB1012000E000207047AE
:10477000CA4302817047F0B502460020002400239E
:10478000002501F00F070126BE40B4B20B1101262F
:104790009E40B3B2968806EA03051689264016B1F4
:1047A0000DB1012000E00020F0BD10B5002201F0A5
:1047B0000F040123A3409AB2D343038110BD00002C
:1047C0000030014000380040003C004010B5044675
:1047D000FE48844208D10121C014FFF727FE0021C2
:1047E000E014FFF723FEC4E0B4F1804F08D10121AB
:1047F0000846FFF728FE00210120FFF724FEB8E05D
:10480000F348844208D101210220FFF71CFE002159
:104810000220FFF718FEACE0EE48844208D10121E7
:104820000420FFF710FE00210420FFF70CFEA0E09B
:10483000E948844208D101210820FFF704FE002145
:104840000820FFF700FE94E0E448844208D10121EB
:104850001020FFF7F8FD00211020FFF7F4FD88E09D
:10486000DF48844208D101212020FFF7ECFD002120
:104870002020FFF7E8FD7CE0DA48844208D10121DE
:104880004014FFF7D3FD00216014FFF7CFFD70E067
:10489000D548844209D10121C804FFF7C7FD002192
:1048A0004FF40020FFF7C2FD63E0D048844209D1F5
:1048B00001210805FFF7BAFD00214FF48010FFF732
:1048C000B5FD56E0CA48844209D101214805FFF7E9
:1048D000ADFD00214FF40010FFF7A8FD49E0C548E9
:1048E000844208D101214020FFF7ADFD0021402086
:1048F000FFF7A9FD3DE0C048844208D10121802096
:10490000FFF7A1FD00218020FFF79DFD31E0BB48AE
:10491000844208D101218015FFF795FD0021A015E3
:10492000FFF791FD25E0B648844209D10121080432
:10493000FFF77CFD00214FF48030FFF777FD18E092
:10494000B048844209D101214804FFF76FFD0021DE
:104950004FF40030FFF76AFD0BE0AB48844208D10A
:1049600001218804FFF762FD00214FF48020FFF74A
:104970005DFD10BD00220288944B98420ED0994BE9
:1049800098420BD0B0F1804F08D0914B984205D09F
:10499000904B984202D0904B984204D14FF68F73BF
:1049A0001A404B881A438D4B984207D08C4B984243
:1049B00004D04FF6FF431A40CB881A4302808B88FD
:1049C00083850B880385814B98420BD0854B984299
:1049D00008D08B4B984205D08A4B984202D08A4B24
:1049E000984201D10B7A038601238382704770B508
:1049F000002400220023058C4FF6FE763540058406
:104A0000028C8388048B4FF68F752C40B51E2C408A
:104A10000D882C43751E2A400D892A434D882A4350
:104A20006A4DA8420BD06F4DA84208D0744DA842E1
:104A300005D0744DA84202D0734DA84213D14FF651
:104A4000F7752A404D892A434FF6FB752A408D8819
:104A50002A434FF6FF652B404FF6FF552B408D89BB
:104A60002B43CD892B4383800483CD8885860284A4
:104A700070BD70B5002400220023058C4FF6EF7640
:104A800035400584028C8388048B48F6FF752C40E2
:104A90004FF6FF452C400D884FF6FF7606EA0525B8
:104AA0002C434FF6DF752A400D8906EA05152A4387
:104AB0004D8806EA05152A43444DA84202D0494DC7
:104AC000A8421DD14FF67F752A404D894FF6FF76DB
:104AD00006EA05152A434FF6BF752A408D8806EA77
:104AE00005152A434FF6FF352B404FF2FF752B403B
:104AF0008D8906EA85052B43CD8906EA85052B437A
:104B000083800483CD880587028470BD70B500243E
:104B100000220023058C4FF6FF6635400584028C89
:104B20008388848B4FF68F752C404FF6FC752C4094
:104B30000D882C434FF6FF552A400D894FF6FF761E
:104B400006EA05252A434D8806EA05252A431F4D16
:104B5000A84202D0234DA8421DD14FF2FF752A4032
:104B60004D894FF6FF7606EA05252A434FF6FF35B5
:104B70002A408D8806EA05252A434EF6FF752B400C
:104B80004DF6FF752B408D8906EA05152B43CD891F
:104B900006EA05152B4383808483CD8885870284AC
:104BA00070BD70B5002200230024058C4EF6FF7600
:104BB00035400584038C8488828B48F6FF752A4033
:104BC0004FF6FF452A400D8820E00000002C0140F0
:104BD0000004004000080040000C004000100040AD
:104BE0000014004000340140004C014000500140DE
:104BF0000054014000180040001C0040002000400C
:104C00000040014000440140004801404FF6FF765B
:104C100006EA05252A434DF6FF752B400D8906EA65
:104C200005352B434D8806EA05352B43FA4DA8423E
:104C300002D0FA4DA84208D14BF6FF752C408D8961
:104C40004FF6FF7606EA85152C4384808283CD8853
:104C5000A0F84050038470BD828B4FF2FF331A409E
:104C60008283828B4FF6FF7303EA01231A43828308
:104C70007047F0B50C461546002200210026078C2F
:104C80004EF6FF7C07EA0C070784828B018C4FF6F7
:104C9000FF7707EA043640F6FF473A404FF6FF77C2
:104CA00007EA05273A434FF6FF7707EA03373A4307
:104CB000D94FB8420ED0D94FB8420BD0B0F1804F87
:104CC00008D0D74FB84205D0D64FB84202D0D64F01
:104CD000B84206D14DF6FF77394046F48057394344
:104CE00005E047F6FF57394044F480573943828343
:104CF0000184F0BD828B4FF6F3731A408283828B5E
:104D00000A4382837047F0B50C4615460022002105
:104D10000026078C4FF6FF6C07EA0C070784828B8E
:104D2000018C4FF6FF7707EA04264FF60C773A40DE
:104D30004FF6FF7707EA03172F433A43B64FB842BF
:104D40000ED0B64FB8420BD0B0F1804F08D0B44F60
:104D5000B84205D0B34FB84202D0B34FB84206D1E3
:104D60004FF6FF57394046F48077394305E04FF25C
:104D7000FF57394044F48077394382830184F0BD82
:104D8000028B4FF2FF331A400283028B4FF6FF7300
:104D900003EA01231A4302837047F0B50C46154617
:104DA000002200210026078C4FF6EF7C07EA0C0753
:104DB0000784028B018C4FF6FF7707EA041640F652
:104DC000FF473A404FF6FF7707EA03373A434FF67B
:104DD000FF7707EA05273A438F4FB8420ED08F4F2F
:104DE000B8420BD0B0F1804F08D08D4FB84205D0FB
:104DF0008C4FB84202D08C4FB84206D14FF6DF77C5
:104E0000394046F01007394305E04FF65F773940E7
:104E100044F01007394302830184F0BD028B4FF642
:104E2000F3731A400283028B0A4302837047F0B582
:104E30000C46154600220021068C4FF6FE773E40B8
:104E40000684028B018C4FF60C7632407E1C06EAFB
:104E500003162E433243704EB0420ED06F4EB04216
:104E60000BD0B0F1804F08D06D4EB04205D06D4EE2
:104E7000B04202D06C4EB04206D14FF6FD763140C2
:104E800044F00106314305E04FF6F576314044F039
:104E90000106314302830184F0BD70B505460C461E
:104EA0005D4885420ED05D4885420BD0B5F1804FFC
:104EB00008D05B48854205D05A48854202D05A48FE
:104EC000854200D100E000BF208850B92389A28824
:104ED00061882846FFF7ABFFE1882846FFF79EFF71
:104EE00025E0208804280AD12389A28861882846E1
:104EF000FFF753FFE1882846FFF742FF17E02088BD
:104F000008280AD12389A28861882846FFF7FBFE7A
:104F1000E1882846FFF7EEFE09E02389A288618830
:104F20002846FFF7A6FEE1882846FFF795FE70BDEC
:104F30002DE9F04105460C4600260127608808B996
:104F4000022600E00026A088012801D1022700E007
:104F500001272088A0B92389A28861882846FFF705
:104F600066FFE1882846FFF759FF23893A46314614
:104F70002846FFF712FFE1882846FFF701FF13E0FC
:104F80002389A28861882846FFF707FFE188284621
:104F9000FFF7F6FE23893A4631462846FFF747FFDA
:104FA000E1882846FFF73AFFBDE8F0810A884B8880
:104FB0001A438B881A43CB881A430B891A434B89AF
:104FC0001A438B891A43A0F8442070474FF6FF71AB
:104FD000818000210180C1804180017270470021E1
:104FE000018041808180C180018141818181C181B5
:104FF0007047002101804180012181800021C18012
:10500000018170470021018041808180C180018140
:105010004181818170470000002C01400034014033
:105020000004004000080040000C004021B102884C
:1050300042F00102028004E002884FF6FE731A403B
:105040000280704731B1B0F8442042F40042A0F829
:10505000442005E0B0F84420C2F30E02A0F844203A
:1050600070471AB183890B43838102E083898B43A4
:10507000838170478182704741EA0203A0F848307B
:1050800070471AB183890B43838102E083898B4384
:105090008381704701894FF6F87211400181704792
:1050A0000A46002101894FF68F731940114301818F
:1050B000704730B504460D4629462046FFF7F0FFFD
:1050C000208940F00700208130BD2DE9F0410446E1
:1050D0000D4616461F46602D06D13B46012231463D
:1050E0002046FFF75AFE05E03B46012231462046A6
:1050F000FFF79DFE29462046FFF7D2FF208940F0AA
:1051000007002081BDE8F08130B50C4600210189FF
:10511000C9B24FF6FF7505EA032515432543294318
:10512000018130BD2DE9F04105460E4617469846EF
:10513000002443463A4631462846FFF7E5FF2C89CE
:105140004FF6F870044044F007044FF68F700440A7
:1051500044F070042C81BDE8F081F0B504460D46A2
:1051600016461F463B46324629462046FFF7CCFFEF
:10517000208940F480402081F0BD01858282704703
:105180000A46002101884FF68F73194011430180B0
:105190007047F0B50C4615461E460021002200233C
:1051A0000189028B038C4FF6F877394021434FF683
:1051B000FC473A4040F201173A434FF6DD773B4057
:1051C0004FF6FF7707EA06172F433B43018102831F
:1051D0000384F0BD0A460021018B4FF68F731940FE
:1051E0001143018370470A460021018B48F6FF7383
:1051F00019404FF6FF7303EA0223194301837047F6
:105200000A460021818B4FF68F7319401143818329
:1052100070470A460021818B48F6FF7319404FF60C
:10522000FF7303EA022319438183704721B1028887
:1052300042F08002028004E002884FF67F731A4039
:105240000280704721B1828842F00402828004E02B
:1052500082884FF6FB731A408280704721B18288A2
:1052600042F00802828004E082884FF6F7731A4009
:105270008280704721B1828842F00102828004E07E
:1052800082884FF6FE731A40828070470A460021DA
:10529000018B4FF6F77319401143018370470A469B
:1052A0000021018B4FF2FF7319404FF6FF7303EAA1
:1052B00002231943018370470A460021818B4FF670
:1052C000F77319401143818370470A460021818B8F
:1052D0004FF2FF7319404FF6FF7303EA022319439D
:1052E000818370470A460021018B4FF6FB731940FA
:1052F0001143018370470A460021018B4FF6FF33AB
:1053000019404FF6FF7303EA0223194301837047E4
:105310000A460021818B4FF6FB73194011438183AC
:1053200070470A460021818B4FF6FF3319404FF634
:10533000FF7303EA02231943818370470A46002161
:10534000018B4FF67F7319401143018370470A4662
:105350000021018BC1F30E014FF6FF7303EA022314
:105360001943018370470A460021818B4FF67F73F2
:1053700019401143818370470A460021818BC1F394
:105380000E014FF6FF7303EA02231943818370472E
:105390000A460021018C4FF6FD7319401143018428
:1053A00070470A460021018C4FF6F77319401143EC
:1053B000018470470A460021018C4FF6DF731940C3
:1053C0004FF6FF7303EA02131943018470470A463C
:1053D0000021018C4FF67F7319404FF6FF7303EAEB
:1053E00002131943018470470A460021018C4FF6CD
:1053F000FF5319404FF6FF7303EA02231943018458
:1054000070470A460021018C4FF2FF7319404FF696
:10541000FF7303EA02231943018470470A460021FF
:10542000018C4DF6FF7319404FF6FF7303EA023308
:1054300019430184704730B5002301248C40A3B286
:10544000048C9C430484048C02FA01F5ADB22C4315
:10545000048430BD30B5002304248C40A3B2048CF6
:105460009C430484048C02FA01F5ADB22C430484FD
:1054700030BD70B5034600200024184618300125C1
:105480008D40ACB21D8CA5431D8409B1082909D1FA
:1054900000EB6100056825F070050560056815439F
:1054A00005600EE00D1FC5F34E052844056825F480
:1054B000E045056005684FF6FF7606EA02263543AB
:1054C000056070BD21B1028842F00202028004E052
:1054D00002884FF6FD731A400280704721B102889E
:1054E00042F00402028004E002884FF6FB731A4087
:1054F0000280704721B1828842F08002828004E0FD
:1055000082884FF67F731A408280704702884FF678
:10551000F7731A40028002880A430280704782882B
:105520004FF68F731A40828082880A4382807047C8
:1055300002894FF6F8731A40028102890A430281F8
:10554000704702894FF67F731A40028102890A432D
:1055500002817047818470478185704781867047DA
:105560000187704781877047A0F840107047028814
:105570004FF6FF431A40028002880A4302807047B8
:105580000146888E70470146088F70470146888F14
:1055900070470146B1F8400070470146888C70475B
:1055A0000146088D704702460020138A0B400BB15C
:1055B000012000E000207047CA430282704730B5E6
:1055C0000246002000230024158A05EA010395897C
:1055D00005EA010413B10CB1012000E0002030BD48
:1055E000CA4302827047000010B50446FB4884425B
:1055F00009D101218803FEF719FF00214FF48040F3
:10560000FEF714FF32E0F648844209D10121480434
:10561000FEF719FF00214FF40030FEF714FF25E0DC
:10562000F048844209D101218804FEF70CFF0021D3
:105630004FF48020FEF707FF18E0EB48844209D1C1
:105640000121C804FEF7FFFE00214FF40020FEF701
:10565000FAFE0BE0E548844208D101210805FEF777
:10566000F2FE00214FF48010FEF7EDFE10BD2DE993
:10567000F04786B005460E460024A24600BFA1466C
:105680000027B08900B100BF2F462C8A4CF6FF706E
:105690000440F08804432C82AC894EF6F310044099
:1056A000B08831890843718908430443AC81AC8ACE
:1056B0004FF6FF400440B0890443AC8201A8FEF7D6
:1056C0002EFEC648874202D1DDF810A001E0DDF8C9
:1056D0000CA0A88900F4004040B10AEBCA0000EB1E
:1056E0000A1031684900B0FBF1F807E00AEBCA0084
:1056F00000EB0A1031688900B0FBF1F86420B8FBB8
:10570000F0F004012009642101FB1089A88900F44C
:10571000004040B1322000EBC900B0FBF1F000F0D6
:105720000700044308E0322000EB09106421B0FBBD
:10573000F1F000F00F0004432C8106B0BDE8F087C3
:105740004FF41651016000218180C18001810C213C
:10575000418100218181704710B502460020108AE6
:105760004FF2FF0318400B884C8823438C88234357
:10577000CC8823431843108210BD00210180418052
:105780008180C180704721B1828942F400528281B8
:1057900004E082894DF6FF731A4082817047F0B5AC
:1057A0000346002400260025002040F66A17B9426F
:1057B00000D100BF1846C1F3421401F01F060127B3
:1057C00007FA06F5012C01D10C3004E0022C01D1BE
:1057D000103000E014301AB107682F43076002E070
:1057E0000768AF430760F0BD1AB1838A0B43838219
:1057F00002E0838A8B4383827047028A4FF6F073FC
:105800001A400282028A0A430282704782894FF25A
:10581000FF731A40828182890A438281704721B1D5
:10582000828942F00202828104E082894FF6FD7390
:105830001A4082817047028A4FF6DF731A40028253
:10584000028A0A430282704721B1028A42F48042EE
:10585000028204E0028A4BF6FF731A40028270470C
:10586000C1F308028280704701468888C0F30800AF
:105870007047818941F0010181817047028BD2B26A
:105880000283028B42EA012202837047028B02F4F8
:105890007F420283028B0A430283704721B1828ACE
:1058A00042F02002828204E0828A4FF6DF731A40BF
:1058B0008282704721B1828A42F01002828204E023
:1058C000828A4FF6EF731A408282704721B1828A32
:1058D00042F00802828204E0828A4FF6F7731A408F
:1058E0008282704721B1828942F40042828103E0C2
:1058F0008289C2F30E028281704721B1828A42F40A
:105900000062828204E0828A4FF2FF731A40828230
:105910007047828A4FF6FB731A408282828A0A435A
:105920008282704721B1828A42F00202828204E0C0
:10593000828A4FF6FD731A40828270470246002029
:10594000B1F5007F00D100BF13880B400BB10120DF
:1059500000E00020704701F40072B2F5007F00D132
:1059600000BFCA430280704770B50246002400237E
:105970000025002040F66A16B14200D100BFC1F3F5
:10598000421501F01F03012606FA03F3012D02D18F
:105990009689334006E0022D02D1168A334001E099
:1059A000968A33400C12012606FA04F41688344015
:1059B00013B10CB1012000E0002070BD10B5002231
:1059C000002340F66A14A14200D100BF0A1201244C
:1059D0009440A3B2DC43048010BD000000380140B5
:1059E0000044004000480040004C0040005000408F
:1059F000002044490860091D0860091D0860091D50
:105A0000086041483F4914310860704700213D4912
:105A10008279002A3AD00A46126803689A430B46F4
:105A20001A600A1D126803689A430B1D1A600279F6
:105A300011440A6803681A430A60324A083212683D
:105A400003689A432F4B08331A601A1D12680368C3
:105A50009A432C4B0C331A604279102A0ED11A1F2C
:105A6000126803681A43274B08331A601A1D12681C
:105A700003681A43234B0C331A600DE02149427925
:105A800011440A6803681A430A6005E00279114468
:105A90000A6803689A430A60704700210160017137
:105AA0000C2141710021817170471649103109683C
:105AB0000143144A10321160704701460020114A18
:105AC000143212680A400AB1012000E00020704739
:105AD0000C49143108607047014600200022094B30
